{
  "address": "0x3250eF3fD987C247D402A29f1fc6E9edD958EEC0",
  "abi": [
    {
      "inputs": [
        {
          "internalType": "address",
          "name": "_vault",
          "type": "address"
        },
        {
          "internalType": "string",
          "name": "_settlementChainRpc",
          "type": "string"
        }
      ],
      "stateMutability": "nonpayable",
      "type": "constructor"
    },
    {
      "inputs": [
        {
          "internalType": "address",
          "name": "",
          "type": "address"
        },
        {
          "internalType": "bytes",
          "name": "",
          "type": "bytes"
        }
      ],
      "name": "PeekerReverted",
      "type": "error"
    },
    {
      "inputs": [
        {
          "internalType": "string",
          "name": "message",
          "type": "string"
        }
      ],
      "name": "SuaveError",
      "type": "error"
    },
    {
      "inputs": [
        {
          "internalType": "string",
          "name": "message",
          "type": "string"
        },
        {
          "internalType": "bytes",
          "name": "data",
          "type": "bytes"
        }
      ],
      "name": "SuaveErrorWithData",
      "type": "error"
    },
    {
      "anonymous": false,
      "inputs": [
        {
          "indexed": true,
          "internalType": "uint256",
          "name": "auctionId",
          "type": "uint256"
        }
      ],
      "name": "AuctionCancelled",
      "type": "event"
    },
    {
      "anonymous": false,
      "inputs": [
        {
          "indexed": true,
          "internalType": "uint256",
          "name": "auctionId",
          "type": "uint256"
        },
        {
          "indexed": true,
          "internalType": "address",
          "name": "auctioneer",
          "type": "address"
        },
        {
          "indexed": true,
          "internalType": "bytes32",
          "name": "hashedToken",
          "type": "bytes32"
        },
        {
          "indexed": false,
          "internalType": "address",
          "name": "payoutAddress",
          "type": "address"
        },
        {
          "indexed": false,
          "internalType": "uint64",
          "name": "until",
          "type": "uint64"
        },
        {
          "indexed": false,
          "internalType": "uint64",
          "name": "payoutCollectionDuration",
          "type": "uint64"
        }
      ],
      "name": "AuctionCreated",
      "type": "event"
    },
    {
      "anonymous": false,
      "inputs": [
        {
          "indexed": true,
          "internalType": "uint256",
          "name": "auctionId",
          "type": "uint256"
        },
        {
          "indexed": false,
          "internalType": "BidId",
          "name": "winningBidId",
          "type": "uint256"
        },
        {
          "components": [
            {
              "internalType": "address",
              "name": "account",
              "type": "address"
            },
            {
              "internalType": "uint256",
              "name": "amount",
              "type": "uint256"
            }
          ],
          "indexed": false,
          "internalType": "struct AuctionPayout",
          "name": "payout",
          "type": "tuple"
        },
        {
          "indexed": false,
          "internalType": "bytes",
          "name": "payoutSig",
          "type": "bytes"
        }
      ],
      "name": "AuctionSettled",
      "type": "event"
    },
    {
      "anonymous": false,
      "inputs": [
        {
          "indexed": true,
          "internalType": "uint256",
          "name": "auctionId",
          "type": "uint256"
        },
        {
          "indexed": true,
          "internalType": "BidId",
          "name": "bidId",
          "type": "uint256"
        },
        {
          "indexed": true,
          "internalType": "address",
          "name": "bidder",
          "type": "address"
        }
      ],
      "name": "BidPlaced",
      "type": "event"
    },
    {
      "stateMutability": "nonpayable",
      "type": "fallback"
    },
    {
      "inputs": [],
      "name": "auctionMaster",
      "outputs": [
        {
          "internalType": "address",
          "name": "",
          "type": "address"
        }
      ],
      "stateMutability": "view",
      "type": "function"
    },
    {
      "inputs": [
        {
          "internalType": "uint256",
          "name": "",
          "type": "uint256"
        }
      ],
      "name": "auctions",
      "outputs": [
        {
          "internalType": "enum AuctionStatus",
          "name": "status",
          "type": "uint8"
        },
        {
          "internalType": "uint128",
          "name": "bids",
          "type": "uint128"
        },
        {
          "internalType": "address",
          "name": "payoutAddress",
          "type": "address"
        },
        {
          "internalType": "bytes32",
          "name": "hashedToken",
          "type": "bytes32"
        },
        {
          "internalType": "uint64",
          "name": "until",
          "type": "uint64"
        },
        {
          "internalType": "uint64",
          "name": "payoutCollectionDuration",
          "type": "uint64"
        },
        {
          "internalType": "address",
          "name": "auctioneer",
          "type": "address"
        }
      ],
      "stateMutability": "view",
      "type": "function"
    },
    {
      "inputs": [
        {
          "internalType": "uint256",
          "name": "auctionId",
          "type": "uint256"
        }
      ],
      "name": "cancelAuction",
      "outputs": [
        {
          "internalType": "bytes",
          "name": "",
          "type": "bytes"
        }
      ],
      "stateMutability": "nonpayable",
      "type": "function"
    },
    {
      "inputs": [
        {
          "internalType": "uint256",
          "name": "auctionId",
          "type": "uint256"
        }
      ],
      "name": "cancelAuctionCallback",
      "outputs": [],
      "stateMutability": "nonpayable",
      "type": "function"
    },
    {
      "inputs": [
        {
          "internalType": "uint256",
          "name": "auctionId",
          "type": "uint256"
        },
        {
          "internalType": "address",
          "name": "bidder",
          "type": "address"
        },
        {
          "internalType": "uint256",
          "name": "bidAmount",
          "type": "uint256"
        }
      ],
      "name": "checkBidValidity",
      "outputs": [],
      "stateMutability": "nonpayable",
      "type": "function"
    },
    {
      "inputs": [],
      "name": "confidentialConstructor",
      "outputs": [
        {
          "internalType": "bytes",
          "name": "",
          "type": "bytes"
        }
      ],
      "stateMutability": "nonpayable",
      "type": "function"
    },
    {
      "inputs": [
        {
          "internalType": "Suave.DataId",
          "name": "_pkDataId",
          "type": "bytes16"
        },
        {
          "internalType": "address",
          "name": "pkAddress",
          "type": "address"
        }
      ],
      "name": "confidentialConstructorCallback",
      "outputs": [],
      "stateMutability": "nonpayable",
      "type": "function"
    },
    {
      "inputs": [
        {
          "components": [
            {
              "internalType": "uint64",
              "name": "auctionDuration",
              "type": "uint64"
            },
            {
              "internalType": "uint64",
              "name": "payoutCollectionDuration",
              "type": "uint64"
            },
            {
              "internalType": "address",
              "name": "payoutAddress",
              "type": "address"
            }
          ],
          "internalType": "struct NewAuctionArgs",
          "name": "auctionArgs",
          "type": "tuple"
        }
      ],
      "name": "createAuction",
      "outputs": [
        {
          "internalType": "bytes",
          "name": "",
          "type": "bytes"
        }
      ],
      "stateMutability": "nonpayable",
      "type": "function"
    },
    {
      "inputs": [
        {
          "components": [
            {
              "internalType": "uint64",
              "name": "auctionDuration",
              "type": "uint64"
            },
            {
              "internalType": "uint64",
              "name": "payoutCollectionDuration",
              "type": "uint64"
            },
            {
              "internalType": "address",
              "name": "payoutAddress",
              "type": "address"
            }
          ],
          "internalType": "struct NewAuctionArgs",
          "name": "auctionArgs",
          "type": "tuple"
        },
        {
          "internalType": "bytes32",
          "name": "tokenHash",
          "type": "bytes32"
        },
        {
          "internalType": "address",
          "name": "auctioneer",
          "type": "address"
        }
      ],
      "name": "createAuctionCallback",
      "outputs": [],
      "stateMutability": "nonpayable",
      "type": "function"
    },
    {
      "inputs": [
        {
          "internalType": "uint256",
          "name": "",
          "type": "uint256"
        }
      ],
      "name": "genericPeekers",
      "outputs": [
        {
          "internalType": "address",
          "name": "",
          "type": "address"
        }
      ],
      "stateMutability": "view",
      "type": "function"
    },
    {
      "inputs": [],
      "name": "isInitialized",
      "outputs": [
        {
          "internalType": "bool",
          "name": "",
          "type": "bool"
        }
      ],
      "stateMutability": "view",
      "type": "function"
    },
    {
      "inputs": [
        {
          "internalType": "uint256",
          "name": "auctionId",
          "type": "uint256"
        }
      ],
      "name": "settleAuction",
      "outputs": [
        {
          "internalType": "bytes",
          "name": "",
          "type": "bytes"
        }
      ],
      "stateMutability": "nonpayable",
      "type": "function"
    },
    {
      "inputs": [
        {
          "internalType": "uint256",
          "name": "auctionId",
          "type": "uint256"
        },
        {
          "internalType": "BidId",
          "name": "winningBidId",
          "type": "uint256"
        },
        {
          "components": [
            {
              "internalType": "address",
              "name": "account",
              "type": "address"
            },
            {
              "internalType": "uint256",
              "name": "amount",
              "type": "uint256"
            }
          ],
          "internalType": "struct AuctionPayout",
          "name": "payout",
          "type": "tuple"
        },
        {
          "internalType": "bytes",
          "name": "payoutSig",
          "type": "bytes"
        }
      ],
      "name": "settleAuctionCallback",
      "outputs": [],
      "stateMutability": "nonpayable",
      "type": "function"
    },
    {
      "inputs": [
        {
          "internalType": "uint256",
          "name": "auctionId",
          "type": "uint256"
        }
      ],
      "name": "submitBid",
      "outputs": [
        {
          "internalType": "bytes",
          "name": "",
          "type": "bytes"
        }
      ],
      "stateMutability": "nonpayable",
      "type": "function"
    },
    {
      "inputs": [
        {
          "internalType": "uint256",
          "name": "auctionId",
          "type": "uint256"
        },
        {
          "internalType": "BidId",
          "name": "bidId",
          "type": "uint256"
        },
        {
          "internalType": "address",
          "name": "bidder",
          "type": "address"
        }
      ],
      "name": "submitBidCallback",
      "outputs": [],
      "stateMutability": "nonpayable",
      "type": "function"
    },
    {
      "inputs": [
        {
          "internalType": "address",
          "name": "user",
          "type": "address"
        },
        {
          "internalType": "uint256",
          "name": "amount",
          "type": "uint256"
        },
        {
          "internalType": "uint256",
          "name": "auctionEndPlusClaimTime",
          "type": "uint256"
        }
      ],
      "name": "userHasSufficientFunds",
      "outputs": [
        {
          "internalType": "bool",
          "name": "",
          "type": "bool"
        }
      ],
      "stateMutability": "nonpayable",
      "type": "function"
    },
    {
      "inputs": [],
      "name": "vault",
      "outputs": [
        {
          "internalType": "address",
          "name": "",
          "type": "address"
        }
      ],
      "stateMutability": "view",
      "type": "function"
    }
  ],
  "transactionHash": "0xdbcc85aa2fc503604ac8da4c4df959ebcd096b87bf4e4093f7d56543338236c0",
  "args": [
    "0xb72e99654d87DBf02981fBf94BC9969BaA76f94B",
    "https://ethereum-holesky-rpc.publicnode.com"
  ],
  "numDeployments": 10,
  "solcInputHash": "4b24e13b2f61fafcc1a912a0959a573d",
  "bytecode": "0x60a0604052604051806020016040528073c8df3686b4afb2bb53e60eae97ef043fe03fb82973ffffffffffffffffffffffffffffffffffffffff1673ffffffffffffffffffffffffffffffffffffffff16815250600090600162000065929190620001cf565b503480156200007357600080fd5b506040516200bd2b3803806200bd2b83398181016040528101906200009991906200049b565b80604051620000a8906200025e565b620000b491906200055e565b604051809103906000f080158015620000d1573d6000803e3d6000fd5b50600560006101000a81548173ffffffffffffffffffffffffffffffffffffffff021916908373ffffffffffffffffffffffffffffffffffffffff1602179055508173ffffffffffffffffffffffffffffffffffffffff1660808173ffffffffffffffffffffffffffffffffffffffff16815250506000818360405162000158906200026c565b6200016592919062000593565b604051809103906000f08015801562000182573d6000803e3d6000fd5b50905080600460016101000a81548173ffffffffffffffffffffffffffffffffffffffff021916908373ffffffffffffffffffffffffffffffffffffffff160217905550505050620005c7565b8280548282559060005260206000209081019282156200024b579160200282015b828111156200024a5782518260006101000a81548173ffffffffffffffffffffffffffffffffffffffff021916908373ffffffffffffffffffffffffffffffffffffffff16021790555091602001919060010190620001f0565b5b5090506200025a91906200027a565b5090565b61364a806200493683390190565b613dab8062007f8083390190565b5b80821115620002955760008160009055506001016200027b565b5090565b6000604051905090565b600080fd5b600080fd5b600073ffffffffffffffffffffffffffffffffffffffff82169050919050565b6000620002da82620002ad565b9050919050565b620002ec81620002cd565b8114620002f857600080fd5b50565b6000815190506200030c81620002e1565b92915050565b600080fd5b600080fd5b6000601f19601f8301169050919050565b7f4e487b7100000000000000000000000000000000000000000000000000000000600052604160045260246000fd5b62000367826200031c565b810181811067ffffffffffffffff821117156200038957620003886200032d565b5b80604052505050565b60006200039e62000299565b9050620003ac82826200035c565b919050565b600067ffffffffffffffff821115620003cf57620003ce6200032d565b5b620003da826200031c565b9050602081019050919050565b60005b8381101562000407578082015181840152602081019050620003ea565b8381111562000417576000848401525b50505050565b6000620004346200042e84620003b1565b62000392565b90508281526020810184848401111562000453576200045262000317565b5b62000460848285620003e7565b509392505050565b600082601f83011262000480576200047f62000312565b5b8151620004928482602086016200041d565b91505092915050565b60008060408385031215620004b557620004b4620002a3565b5b6000620004c585828601620002fb565b925050602083015167ffffffffffffffff811115620004e957620004e8620002a8565b5b620004f78582860162000468565b9150509250929050565b600081519050919050565b600082825260208201905092915050565b60006200052a8262000501565b6200053681856200050c565b935062000548818560208601620003e7565b62000553816200031c565b840191505092915050565b600060208201905081810360008301526200057a81846200051d565b905092915050565b6200058d81620002cd565b82525050565b60006040820190508181036000830152620005af81856200051d565b9050620005c0602083018462000582565b9392505050565b60805161434c620005ea6000396000818161046101526114e0015261434c6000f3fe608060405234801561001057600080fd5b506004361061010f5760003560e01c8063571a26a0116100a25780638ecb5b8e116100715780638ecb5b8e146102e657806396b5a75514610302578063b67a86de14610332578063e24116251461034e578063fbfa77cf1461036a57610110565b8063571a26a01461023257806374bdda151461026857806377e97ad6146102985780637e48532c146102c857610110565b80632e993611116100de5780632e993611146101aa578063392e53cd146101da5780634ca89c2c146101f857806350fa23ff1461021657610110565b8063048d79d5146101125780630dbd796d1461012e5780631ed55ecc1461015e57806324f6c7561461018e57610110565b5b005b61012c600480360381019061012791906129c5565b610388565b005b61014860048036038101906101439190612a48565b61041e565b6040516101559190612ab6565b60405180910390f35b61017860048036038101906101739190612b75565b6105b6565b6040516101859190612c2a565b60405180910390f35b6101a860048036038101906101a39190612c4c565b6106be565b005b6101c460048036038101906101bf9190612c9f565b610790565b6040516101d19190612c2a565b60405180910390f35b6101e2610a4c565b6040516101ef9190612ab6565b60405180910390f35b610200610a5f565b60405161020d9190612cdb565b60405180910390f35b610230600480360381019061022b9190612c9f565b610a85565b005b61024c60048036038101906102479190612c9f565b610b03565b60405161025f9796959493929190612dc0565b60405180910390f35b610282600480360381019061027d9190612c9f565b610be6565b60405161028f9190612c2a565b60405180910390f35b6102b260048036038101906102ad9190612c9f565b610d74565b6040516102bf9190612cdb565b60405180910390f35b6102d0610db3565b6040516102dd9190612c2a565b60405180910390f35b61030060048036038101906102fb9190612e5b565b610eac565b005b61031c60048036038101906103179190612c9f565b61102f565b6040516103299190612c2a565b60405180910390f35b61034c60048036038101906103479190612eae565b611225565b005b61036860048036038101906103639190612f59565b611405565b005b6103726114de565b60405161037f9190612cdb565b60405180910390f35b60006003858154811061039e5761039d612f99565b5b9060005260206000209060050201905060028160000160006101000a81548160ff021916908360028111156103d6576103d5612cf6565b5b0217905550847f955fbdd42805cbcfdad865d06361ba0ae2c30719f6988e50e2ef44b993cc26fd85858560405161040f93929190613050565b60405180910390a25050505050565b600080600560009054906101000a900473ffffffffffffffffffffffffffffffffffffffff1673ffffffffffffffffffffffffffffffffffffffff16631b8b921d7f0000000000000000000000000000000000000000000000000000000000000000876040516024016104919190612cdb565b6040516020818303038152906040527ff8b2cb4f000000000000000000000000000000000000000000000000000000007bffffffffffffffffffffffffffffffffffffffffffffffffffffffff19166020820180517bffffffffffffffffffffffffffffffffffffffffffffffffffffffff83818316178352505050506040518363ffffffff1660e01b815260040161052b92919061308e565b6000604051808303816000875af115801561054a573d6000803e3d6000fd5b505050506040513d6000823e3d601f19601f82011682018060405250810190610573919061312e565b90506000808280602001905181019061058c91906131a1565b915091508582101580156105aa5750848167ffffffffffffffff1610155b93505050509392505050565b60606105fe6105c3611502565b6040518060400160405280601081526020017f4e6f7420636f6e666964656e7469616c000000000000000000000000000000008152506115cc565b6000610608611612565b905060008160405160200161061d9190613236565b6040516020818303038152906040528051906020012090506000339050638ecb5b8e60e01b858383604051602401610657939291906132a9565b604051602081830303815290604052907bffffffffffffffffffffffffffffffffffffffffffffffffffffffff19166020820180517bffffffffffffffffffffffffffffffffffffffffffffffffffffffff83818316178352505050509350505050919050565b600383815481106106d2576106d1612f99565b5b9060005260206000209060050201600001600181819054906101000a90046fffffffffffffffffffffffffffffffff168092919061070f9061330f565b91906101000a8154816fffffffffffffffffffffffffffffffff02191690836fffffffffffffffffffffffffffffffff160217905550508073ffffffffffffffffffffffffffffffffffffffff1682847fbfbf2db1f7880e9487cbceeb181c4dce363d0ad1b6e73f5aa494ffb5d919149660405160405180910390a4505050565b60606107d861079d611502565b6040518060400160405280601081526020017f4e6f7420636f6e666964656e7469616c000000000000000000000000000000008152506115cc565b6000600383815481106107ee576107ed612f99565b5b906000526020600020906005020190506000600281111561081257610811612cf6565b5b8160000160009054906101000a900460ff16600281111561083657610835612cf6565b5b14610876576040517f08c379a000000000000000000000000000000000000000000000000000000000815260040161086d90613393565b60405180910390fd5b8060030160009054906101000a900467ffffffffffffffff1667ffffffffffffffff164210156108db576040517f08c379a00000000000000000000000000000000000000000000000000000000081526004016108d2906133ff565b60405180910390fd5b60008160000160019054906101000a90046fffffffffffffffffffffffffffffffff166fffffffffffffffffffffffffffffffff1611610950576040517f08c379a00000000000000000000000000000000000000000000000000000000081526004016109479061346b565b60405180910390fd5b60008061095c856116eb565b91509150600060405180604001604052808560010160009054906101000a900473ffffffffffffffffffffffffffffffffffffffff1673ffffffffffffffffffffffffffffffffffffffff16815260200183815250905060006109be82611789565b905063048d79d560e01b87856000015184846040516024016109e3949392919061349a565b604051602081830303815290604052907bffffffffffffffffffffffffffffffffffffffffffffffffffffffff19166020820180517bffffffffffffffffffffffffffffffffffffffffffffffffffffffff838183161783525050505095505050505050919050565b600460009054906101000a900460ff1681565b600260009054906101000a900473ffffffffffffffffffffffffffffffffffffffff1681565b600160038281548110610a9b57610a9a612f99565b5b906000526020600020906005020160000160006101000a81548160ff02191690836002811115610ace57610acd612cf6565b5b0217905550807f2809c7e17bf978fbc7194c0a694b638c4215e9140cacc6c38ca36010b45697df60405160405180910390a250565b60038181548110610b1357600080fd5b90600052602060002090600502016000915090508060000160009054906101000a900460ff16908060000160019054906101000a90046fffffffffffffffffffffffffffffffff16908060010160009054906101000a900473ffffffffffffffffffffffffffffffffffffffff16908060020154908060030160009054906101000a900467ffffffffffffffff16908060030160089054906101000a900467ffffffffffffffff16908060040160009054906101000a900473ffffffffffffffffffffffffffffffffffffffff16905087565b6060610c2e610bf3611502565b6040518060400160405280601081526020017f4e6f7420636f6e666964656e7469616c000000000000000000000000000000008152506115cc565b6000610c38611612565b806020019051810190610c4b91906134e6565b90506000339050610c5d848284611225565b6000610caa8560038781548110610c7757610c76612f99565b5b906000526020600020906005020160000160019054906101000a90046fffffffffffffffffffffffffffffffff166117f6565b9050600060405180606001604052808381526020018473ffffffffffffffffffffffffffffffffffffffff168152602001858152509050610ceb818761182b565b6324f6c75660e01b86826000015185604051602401610d0c93929190613513565b604051602081830303815290604052907bffffffffffffffffffffffffffffffffffffffffffffffffffffffff19166020820180517bffffffffffffffffffffffffffffffffffffffffffffffffffffffff8381831617835250505050945050505050919050565b60008181548110610d8457600080fd5b906000526020600020016000915054906101000a900473ffffffffffffffffffffffffffffffffffffffff1681565b6060610e04600460009054906101000a900460ff16156040518060400160405280601381526020017f416c726561647920696e697469616c697a6564000000000000000000000000008152506115cc565b6000610e106000611ae3565b90506000610e1d82611bdc565b90506000610e2a83611c48565b905063e241162560e01b8183604051602401610e4792919061356b565b604051602081830303815290604052907bffffffffffffffffffffffffffffffffffffffffffffffffffffffff19166020820180517bffffffffffffffffffffffffffffffffffffffffffffffffffffffff8381831617835250505050935050505090565b6000836000015142610ebe9190613594565b905060006003600181600181540180825580915050039060005260206000209060050201905060008160000160006101000a81548160ff02191690836002811115610f0c57610f0b612cf6565b5b021790555084604001518160010160006101000a81548173ffffffffffffffffffffffffffffffffffffffff021916908373ffffffffffffffffffffffffffffffffffffffff160217905550838160020181905550818160030160006101000a81548167ffffffffffffffff021916908367ffffffffffffffff16021790555084602001518160030160086101000a81548167ffffffffffffffff021916908367ffffffffffffffff160217905550838373ffffffffffffffffffffffffffffffffffffffff166001600380549050610fe591906135d2565b7f216b9e3e12e47255d565cd84569baa0c9998c971b9b8631c092eea22c8ed9e338860400151868a6020015160405161102093929190613606565b60405180910390a45050505050565b606061107761103c611502565b6040518060400160405280601081526020017f4e6f7420636f6e666964656e7469616c000000000000000000000000000000008152506115cc565b60006003838154811061108d5761108c612f99565b5b906000526020600020906005020190503373ffffffffffffffffffffffffffffffffffffffff168160040160009054906101000a900473ffffffffffffffffffffffffffffffffffffffff1673ffffffffffffffffffffffffffffffffffffffff161461112f576040517f08c379a000000000000000000000000000000000000000000000000000000000815260040161112690613689565b60405180910390fd5b6000600281111561114357611142612cf6565b5b8160000160009054906101000a900460ff16600281111561116757611166612cf6565b5b146111a7576040517f08c379a000000000000000000000000000000000000000000000000000000000815260040161119e90613393565b60405180910390fd5b6350fa23ff60e01b836040516024016111c091906136a9565b604051602081830303815290604052907bffffffffffffffffffffffffffffffffffffffffffffffffffffffff19166020820180517bffffffffffffffffffffffffffffffffffffffffffffffffffffffff8381831617835250505050915050919050565b60006003848154811061123b5761123a612f99565b5b906000526020600020906005020190506000600281111561125f5761125e612cf6565b5b8160000160009054906101000a900460ff16600281111561128357611282612cf6565b5b146112c3576040517f08c379a00000000000000000000000000000000000000000000000000000000081526004016112ba90613393565b60405180910390fd5b8060030160009054906101000a900467ffffffffffffffff1667ffffffffffffffff164210611327576040517f08c379a000000000000000000000000000000000000000000000000000000000815260040161131e90613710565b60405180910390fd5b6000821161136a576040517f08c379a0000000000000000000000000000000000000000000000000000000008152600401611361906137a2565b60405180910390fd5b60006113bc84848460030160089054906101000a900467ffffffffffffffff168560030160009054906101000a900467ffffffffffffffff166113ad9190613594565b67ffffffffffffffff1661041e565b9050806113fe576040517f08c379a00000000000000000000000000000000000000000000000000000000081526004016113f59061380e565b60405180910390fd5b5050505050565b611454600460009054906101000a900460ff16156040518060400160405280601381526020017f416c726561647920696e697469616c697a6564000000000000000000000000008152506115cc565b81600160006101000a8154816fffffffffffffffffffffffffffffffff021916908360801c021790555080600260006101000a81548173ffffffffffffffffffffffffffffffffffffffff021916908373ffffffffffffffffffffffffffffffffffffffff1602179055506001600460006101000a81548160ff0219169083151502179055505050565b7f000000000000000000000000000000000000000000000000000000000000000081565b6000806000634201000073ffffffffffffffffffffffffffffffffffffffff1660405161152e9061385f565b6000604051808303816000865af19150503d806000811461156b576040519150601f19603f3d011682016040523d82523d6000602084013e611570565b606091505b5091509150816115bd576342010000816040517f75fff4670000000000000000000000000000000000000000000000000000000081526004016115b492919061308e565b60405180910390fd5b80516020820151935050505090565b8161160e57806040517f0c25cd980000000000000000000000000000000000000000000000000000000081526004016116059190613236565b60405180910390fd5b5050565b6060600080634201000173ffffffffffffffffffffffffffffffffffffffff1660405160200160405160208183030381529060405260405161165491906138a5565b6000604051808303816000865af19150503d8060008114611691576040519150601f19603f3d011682016040523d82523d6000602084013e611696565b606091505b5091509150816116e3576342010001816040517f75fff4670000000000000000000000000000000000000000000000000000000081526004016116da92919061308e565b60405180910390fd5b809250505090565b6116f36126b4565b6000806116ff84611f2f565b905060005b815181101561177257600082828151811061172257611721612f99565b5b6020026020010151905084604001518160400151111561174b5784604001519350809450611760565b838160400151111561175f57806040015193505b5b508061176b906138bc565b9050611704565b506000820361178357826040015191505b50915091565b60606000611795612084565b90506000836040516020016117aa9190613904565b6040516020818303038152906040528051906020012090506117ed816040516020016117d69190613940565b6040516020818303038152906040526000846120df565b92505050919050565b6000816080846fffffffffffffffffffffffffffffffff16901b176fffffffffffffffffffffffffffffffff16905092915050565b60008160405160200161183e919061397c565b60405160208183030381529060405290506000600367ffffffffffffffff81111561186c5761186b6127dd565b5b60405190808252806020026020018201604052801561189a5781602001602082028036833780820191505090505b50905030816000815181106118b2576118b1612f99565b5b602002602001019073ffffffffffffffffffffffffffffffffffffffff16908173ffffffffffffffffffffffffffffffffffffffff168152505063420300018160018151811061190557611904612f99565b5b602002602001019073ffffffffffffffffffffffffffffffffffffffff16908173ffffffffffffffffffffffffffffffffffffffff168152505063420200018160028151811061195857611957612f99565b5b602002602001019073ffffffffffffffffffffffffffffffffffffffff16908173ffffffffffffffffffffffffffffffffffffffff16815250506000611aac600080805480602002602001604051908101604052809291908181526020018280548015611a1a57602002820191906000526020600020905b8160009054906101000a900473ffffffffffffffffffffffffffffffffffffffff1673ffffffffffffffffffffffffffffffffffffffff16815260200190600101908083116119d0575b50505050506000805480602002602001604051908101604052809291908181526020018280548015611aa157602002820191906000526020600020905b8160009054906101000a900473ffffffffffffffffffffffffffffffffffffffff1673ffffffffffffffffffffffffffffffffffffffff1681526020019060010190808311611a57575b5050505050866121ef565b9050611adc81600001518487604051602001611ac891906139e8565b6040516020818303038152906040526122f7565b5050505050565b6060600080635320000373ffffffffffffffffffffffffffffffffffffffff1684604051602001611b149190613a4b565b604051602081830303815290604052604051611b3091906138a5565b6000604051808303816000865af19150503d8060008114611b6d576040519150601f19603f3d011682016040523d82523d6000602084013e611b72565b606091505b509150915081611bbf576353200003816040517f75fff467000000000000000000000000000000000000000000000000000000008152600401611bb692919061308e565b60405180910390fd5b80806020019051810190611bd39190613b07565b92505050919050565b600080604051602001611bee90613b9c565b6040516020818303038152906040528051906020012090506000611c3382604051602001611c1c9190613940565b6040516020818303038152906040526000866120df565b9050611c3f82826123dc565b92505050919050565b600080600367ffffffffffffffff811115611c6657611c656127dd565b5b604051908082528060200260200182016040528015611c945781602001602082028036833780820191505090505b5090503081600081518110611cac57611cab612f99565b5b602002602001019073ffffffffffffffffffffffffffffffffffffffff16908173ffffffffffffffffffffffffffffffffffffffff1681525050634203000181600181518110611cff57611cfe612f99565b5b602002602001019073ffffffffffffffffffffffffffffffffffffffff16908173ffffffffffffffffffffffffffffffffffffffff1681525050634202000181600281518110611d5257611d51612f99565b5b602002602001019073ffffffffffffffffffffffffffffffffffffffff16908173ffffffffffffffffffffffffffffffffffffffff16815250506000611edb600080805480602002602001604051908101604052809291908181526020018280548015611e1457602002820191906000526020600020905b8160009054906101000a900473ffffffffffffffffffffffffffffffffffffffff1673ffffffffffffffffffffffffffffffffffffffff1681526020019060010190808311611dca575b50505050506000805480602002602001604051908101604052809291908181526020018280548015611e9b57602002820191906000526020600020905b8160009054906101000a900473ffffffffffffffffffffffffffffffffffffffff1673ffffffffffffffffffffffffffffffffffffffff1681526020019060010190808311611e51575b50505050506040518060400160405280601381526020017f61756374696f6e3a76303a706b736563726574000000000000000000000000008152506121ef565b9050611f2181600001516040518060400160405280601381526020017f61756374696f6e3a76303a706b73656372657400000000000000000000000000815250866122f7565b806000015192505050919050565b606060006040518060400160405280600f81526020017f61756374696f6e3a76303a62696473000000000000000000000000000000000081525083604051602001611f7b929190613bf8565b60405160208183030381529060405290506000611f9960008361244b565b90506000815167ffffffffffffffff811115611fb857611fb76127dd565b5b604051908082528060200260200182016040528015611ff157816020015b611fde6126b4565b815260200190600190039081611fd65790505b50905060005b825181101561207857600061202a84838151811061201857612017612f99565b5b60200260200101516000015186612547565b90506000818060200190518101906120429190613cae565b90508084848151811061205857612057612f99565b5b602002602001018190525050508080612070906138bc565b915050611ff7565b50809350505050919050565b606060006120d6600160009054906101000a900460801b6040518060400160405280601381526020017f61756374696f6e3a76303a706b73656372657400000000000000000000000000815250612547565b90508091505090565b60606120e9611502565b6120f257600080fd5b600080634010000373ffffffffffffffffffffffffffffffffffffffff1686868660405160200161212593929190613cdb565b60405160208183030381529060405260405161214191906138a5565b6000604051808303816000865af19150503d806000811461217e576040519150601f19603f3d011682016040523d82523d6000602084013e612183565b606091505b5091509150816121d0576340100003816040517f75fff4670000000000000000000000000000000000000000000000000000000081526004016121c792919061308e565b60405180910390fd5b808060200190518101906121e4919061312e565b925050509392505050565b6121f76126eb565b600080634203000073ffffffffffffffffffffffffffffffffffffffff168787878760405160200161222c9493929190613dcf565b60405160208183030381529060405260405161224891906138a5565b6000604051808303816000865af19150503d8060008114612285576040519150601f19603f3d011682016040523d82523d6000602084013e61228a565b606091505b5091509150816122d7576342030000816040517f75fff4670000000000000000000000000000000000000000000000000000000081526004016122ce92919061308e565b60405180910390fd5b808060200190518101906122eb9190613ffa565b92505050949350505050565b600080634202000073ffffffffffffffffffffffffffffffffffffffff1685858560405160200161232a93929190614043565b60405160208183030381529060405260405161234691906138a5565b6000604051808303816000865af19150503d8060008114612383576040519150601f19603f3d011682016040523d82523d6000602084013e612388565b606091505b5091509150816123d5576342020000816040517f75fff4670000000000000000000000000000000000000000000000000000000081526004016123cc92919061308e565b60405180910390fd5b5050505050565b6000806000806123eb85612630565b9250925092506001868285856040516000815260200160405260405161241494939291906140a4565b6020604051602081039080840390855afa158015612436573d6000803e3d6000fd5b50505060206040510351935050505092915050565b6060600080634203000173ffffffffffffffffffffffffffffffffffffffff16858560405160200161247e9291906140e9565b60405160208183030381529060405260405161249a91906138a5565b6000604051808303816000865af19150503d80600081146124d7576040519150601f19603f3d011682016040523d82523d6000602084013e6124dc565b606091505b509150915081612529576342030001816040517f75fff46700000000000000000000000000000000000000000000000000000000815260040161252092919061308e565b60405180910390fd5b8080602001905181019061253d91906141fa565b9250505092915050565b6060600080634202000173ffffffffffffffffffffffffffffffffffffffff16858560405160200161257a929190614243565b60405160208183030381529060405260405161259691906138a5565b6000604051808303816000865af19150503d80600081146125d3576040519150601f19603f3d011682016040523d82523d6000602084013e6125d8565b606091505b509150915081612625576342020001816040517f75fff46700000000000000000000000000000000000000000000000000000000815260040161261c92919061308e565b60405180910390fd5b809250505092915050565b60008060006041845114612679576040517f08c379a0000000000000000000000000000000000000000000000000000000008152600401612670906142bf565b60405180910390fd5b6020840151925060408401519150606084015160001a9050601b8160ff1610156126ad57601b816126aa91906142df565b90505b9193909250565b604051806060016040528060008152602001600073ffffffffffffffffffffffffffffffffffffffff168152602001600081525090565b6040518060c0016040528060006fffffffffffffffffffffffffffffffff1916815260200160006fffffffffffffffffffffffffffffffff19168152602001600067ffffffffffffffff1681526020016060815260200160608152602001606081525090565b6000604051905090565b600080fd5b600080fd5b6000819050919050565b61277881612765565b811461278357600080fd5b50565b6000813590506127958161276f565b92915050565b6127a481612765565b81146127af57600080fd5b50565b6000813590506127c18161279b565b92915050565b600080fd5b6000601f19601f8301169050919050565b7f4e487b7100000000000000000000000000000000000000000000000000000000600052604160045260246000fd5b612815826127cc565b810181811067ffffffffffffffff82111715612834576128336127dd565b5b80604052505050565b6000612847612751565b9050612853828261280c565b919050565b600080fd5b600073ffffffffffffffffffffffffffffffffffffffff82169050919050565b60006128888261285d565b9050919050565b6128988161287d565b81146128a357600080fd5b50565b6000813590506128b58161288f565b92915050565b6000604082840312156128d1576128d06127c7565b5b6128db604061283d565b905060006128eb848285016128a6565b60008301525060206128ff84828501612786565b60208301525092915050565b600080fd5b600080fd5b600067ffffffffffffffff8211156129305761292f6127dd565b5b612939826127cc565b9050602081019050919050565b82818337600083830152505050565b600061296861296384612915565b61283d565b90508281526020810184848401111561298457612983612910565b5b61298f848285612946565b509392505050565b600082601f8301126129ac576129ab61290b565b5b81356129bc848260208601612955565b91505092915050565b60008060008060a085870312156129df576129de61275b565b5b60006129ed87828801612786565b94505060206129fe878288016127b2565b9350506040612a0f878288016128bb565b925050608085013567ffffffffffffffff811115612a3057612a2f612760565b5b612a3c87828801612997565b91505092959194509250565b600080600060608486031215612a6157612a6061275b565b5b6000612a6f868287016128a6565b9350506020612a8086828701612786565b9250506040612a9186828701612786565b9150509250925092565b60008115159050919050565b612ab081612a9b565b82525050565b6000602082019050612acb6000830184612aa7565b92915050565b600067ffffffffffffffff82169050919050565b612aee81612ad1565b8114612af957600080fd5b50565b600081359050612b0b81612ae5565b92915050565b600060608284031215612b2757612b266127c7565b5b612b31606061283d565b90506000612b4184828501612afc565b6000830152506020612b5584828501612afc565b6020830152506040612b69848285016128a6565b60408301525092915050565b600060608284031215612b8b57612b8a61275b565b5b6000612b9984828501612b11565b91505092915050565b600081519050919050565b600082825260208201905092915050565b60005b83811015612bdc578082015181840152602081019050612bc1565b83811115612beb576000848401525b50505050565b6000612bfc82612ba2565b612c068185612bad565b9350612c16818560208601612bbe565b612c1f816127cc565b840191505092915050565b60006020820190508181036000830152612c448184612bf1565b905092915050565b600080600060608486031215612c6557612c6461275b565b5b6000612c7386828701612786565b9350506020612c84868287016127b2565b9250506040612c95868287016128a6565b9150509250925092565b600060208284031215612cb557612cb461275b565b5b6000612cc384828501612786565b91505092915050565b612cd58161287d565b82525050565b6000602082019050612cf06000830184612ccc565b92915050565b7f4e487b7100000000000000000000000000000000000000000000000000000000600052602160045260246000fd5b60038110612d3657612d35612cf6565b5b50565b6000819050612d4782612d25565b919050565b6000612d5782612d39565b9050919050565b612d6781612d4c565b82525050565b60006fffffffffffffffffffffffffffffffff82169050919050565b612d9281612d6d565b82525050565b6000819050919050565b612dab81612d98565b82525050565b612dba81612ad1565b82525050565b600060e082019050612dd5600083018a612d5e565b612de26020830189612d89565b612def6040830188612ccc565b612dfc6060830187612da2565b612e096080830186612db1565b612e1660a0830185612db1565b612e2360c0830184612ccc565b98975050505050505050565b612e3881612d98565b8114612e4357600080fd5b50565b600081359050612e5581612e2f565b92915050565b600080600060a08486031215612e7457612e7361275b565b5b6000612e8286828701612b11565b9350506060612e9386828701612e46565b9250506080612ea4868287016128a6565b9150509250925092565b600080600060608486031215612ec757612ec661275b565b5b6000612ed586828701612786565b9350506020612ee6868287016128a6565b9250506040612ef786828701612786565b9150509250925092565b60007fffffffffffffffffffffffffffffffff0000000000000000000000000000000082169050919050565b612f3681612f01565b8114612f4157600080fd5b50565b600081359050612f5381612f2d565b92915050565b60008060408385031215612f7057612f6f61275b565b5b6000612f7e85828601612f44565b9250506020612f8f858286016128a6565b9150509250929050565b7f4e487b7100000000000000000000000000000000000000000000000000000000600052603260045260246000fd5b6000819050919050565b6000612fed612fe8612fe384612765565b612fc8565b612765565b9050919050565b612ffd81612fd2565b82525050565b61300c8161287d565b82525050565b61301b81612765565b82525050565b6040820160008201516130376000850182613003565b50602082015161304a6020850182613012565b50505050565b60006080820190506130656000830186612ff4565b6130726020830185613021565b81810360608301526130848184612bf1565b9050949350505050565b60006040820190506130a36000830185612ccc565b81810360208301526130b58184612bf1565b90509392505050565b60006130d16130cc84612915565b61283d565b9050828152602081018484840111156130ed576130ec612910565b5b6130f8848285612bbe565b509392505050565b600082601f8301126131155761311461290b565b5b81516131258482602086016130be565b91505092915050565b6000602082840312156131445761314361275b565b5b600082015167ffffffffffffffff81111561316257613161612760565b5b61316e84828501613100565b91505092915050565b6000815190506131868161276f565b92915050565b60008151905061319b81612ae5565b92915050565b600080604083850312156131b8576131b761275b565b5b60006131c685828601613177565b92505060206131d78582860161318c565b9150509250929050565b600081519050919050565b600082825260208201905092915050565b6000613208826131e1565b61321281856131ec565b9350613222818560208601612bbe565b61322b816127cc565b840191505092915050565b6000602082019050818103600083015261325081846131fd565b905092915050565b61326181612ad1565b82525050565b60608201600082015161327d6000850182613258565b5060208201516132906020850182613258565b5060408201516132a36040850182613003565b50505050565b600060a0820190506132be6000830186613267565b6132cb6060830185612da2565b6132d86080830184612ccc565b949350505050565b7f4e487b7100000000000000000000000000000000000000000000000000000000600052601160045260246000fd5b600061331a82612d6d565b91506fffffffffffffffffffffffffffffffff820361333c5761333b6132e0565b5b600182019050919050565b7f41756374696f6e206973206e6f74206c69766500000000000000000000000000600082015250565b600061337d6013836131ec565b915061338882613347565b602082019050919050565b600060208201905081810360008301526133ac81613370565b9050919050565b7f41756374696f6e20686173206e6f7420656e6465640000000000000000000000600082015250565b60006133e96015836131ec565b91506133f4826133b3565b602082019050919050565b60006020820190508181036000830152613418816133dc565b9050919050565b7f4e6f206269647300000000000000000000000000000000000000000000000000600082015250565b60006134556007836131ec565b91506134608261341f565b602082019050919050565b6000602082019050818103600083015261348481613448565b9050919050565b61349481612765565b82525050565b600060a0820190506134af600083018761348b565b6134bc6020830186612ff4565b6134c96040830185613021565b81810360808301526134db8184612bf1565b905095945050505050565b6000602082840312156134fc576134fb61275b565b5b600061350a84828501613177565b91505092915050565b6000606082019050613528600083018661348b565b6135356020830185612ff4565b6135426040830184612ccc565b949350505050565b600061355582612f01565b9050919050565b6135658161354a565b82525050565b6000604082019050613580600083018561355c565b61358d6020830184612ccc565b9392505050565b600061359f82612ad1565b91506135aa83612ad1565b92508267ffffffffffffffff038211156135c7576135c66132e0565b5b828201905092915050565b60006135dd82612765565b91506135e883612765565b9250828210156135fb576135fa6132e0565b5b828203905092915050565b600060608201905061361b6000830186612ccc565b6136286020830185612db1565b6136356040830184612db1565b949350505050565b7f4f6e6c792061756374696f6e206d61737465722063616e2063616e63656c0000600082015250565b6000613673601e836131ec565b915061367e8261363d565b602082019050919050565b600060208201905081810360008301526136a281613666565b9050919050565b60006020820190506136be600083018461348b565b92915050565b7f41756374696f6e2068617320656e646564000000000000000000000000000000600082015250565b60006136fa6011836131ec565b9150613705826136c4565b602082019050919050565b60006020820190508181036000830152613729816136ed565b9050919050565b7f42696420616d6f756e742073686f756c6420626520677265617465722074686160008201527f6e207a65726f0000000000000000000000000000000000000000000000000000602082015250565b600061378c6026836131ec565b915061379782613730565b604082019050919050565b600060208201905081810360008301526137bb8161377f565b9050919050565b7f496e73756666696369656e742066756e64730000000000000000000000000000600082015250565b60006137f86012836131ec565b9150613803826137c2565b602082019050919050565b60006020820190508181036000830152613827816137eb565b9050919050565b600081905092915050565b50565b600061384960008361382e565b915061385482613839565b600082019050919050565b600061386a8261383c565b9150819050919050565b600061387f82612ba2565b613889818561382e565b9350613899818560208601612bbe565b80840191505092915050565b60006138b18284613874565b915081905092915050565b60006138c782612765565b91507fffffffffffffffffffffffffffffffffffffffffffffffffffffffffffffffff82036138f9576138f86132e0565b5b600182019050919050565b60006040820190506139196000830184613021565b92915050565b6000819050919050565b61393a61393582612d98565b61391f565b82525050565b600061394c8284613929565b60208201915081905092915050565b6000819050919050565b61397661397182612765565b61395b565b82525050565b60006139888284613965565b60208201915081905092915050565b6139a081612fd2565b82525050565b6060820160008201516139bc6000850182613997565b5060208201516139cf6020850182613003565b5060408201516139e26040850182613012565b50505050565b60006060820190506139fd60008301846139a6565b92915050565b60028110613a1457613a13612cf6565b5b50565b6000819050613a2582613a03565b919050565b6000613a3582613a17565b9050919050565b613a4581613a2a565b82525050565b6000602082019050613a606000830184613a3c565b92915050565b600067ffffffffffffffff821115613a8157613a806127dd565b5b613a8a826127cc565b9050602081019050919050565b6000613aaa613aa584613a66565b61283d565b905082815260208101848484011115613ac657613ac5612910565b5b613ad1848285612bbe565b509392505050565b600082601f830112613aee57613aed61290b565b5b8151613afe848260208601613a97565b91505092915050565b600060208284031215613b1d57613b1c61275b565b5b600082015167ffffffffffffffff811115613b3b57613b3a612760565b5b613b4784828501613ad9565b91505092915050565b7f796f000000000000000000000000000000000000000000000000000000000000600082015250565b6000613b866002836131ec565b9150613b9182613b50565b602082019050919050565b60006020820190508181036000830152613bb581613b79565b9050919050565b600081905092915050565b6000613bd2826131e1565b613bdc8185613bbc565b9350613bec818560208601612bbe565b80840191505092915050565b6000613c048285613bc7565b9150613c108284613965565b6020820191508190509392505050565b600081519050613c2f8161279b565b92915050565b600081519050613c448161288f565b92915050565b600060608284031215613c6057613c5f6127c7565b5b613c6a606061283d565b90506000613c7a84828501613c20565b6000830152506020613c8e84828501613c35565b6020830152506040613ca284828501613177565b60408301525092915050565b600060608284031215613cc457613cc361275b565b5b6000613cd284828501613c4a565b91505092915050565b60006060820190508181036000830152613cf58186612bf1565b9050613d046020830185613a3c565b8181036040830152613d1681846131fd565b9050949350505050565b600081519050919050565b600082825260208201905092915050565b6000819050602082019050919050565b6000613d588383613003565b60208301905092915050565b6000602082019050919050565b6000613d7c82613d20565b613d868185613d2b565b9350613d9183613d3c565b8060005b83811015613dc2578151613da98882613d4c565b9750613db483613d64565b925050600181019050613d95565b5085935050505092915050565b6000608082019050613de46000830187612db1565b8181036020830152613df68186613d71565b90508181036040830152613e0a8185613d71565b90508181036060830152613e1e81846131fd565b905095945050505050565b600081519050613e3881612f2d565b92915050565b600067ffffffffffffffff821115613e5957613e586127dd565b5b602082029050602081019050919050565b600080fd5b6000613e82613e7d84613e3e565b61283d565b90508083825260208201905060208402830185811115613ea557613ea4613e6a565b5b835b81811015613ece5780613eba8882613c35565b845260208401935050602081019050613ea7565b5050509392505050565b600082601f830112613eed57613eec61290b565b5b8151613efd848260208601613e6f565b91505092915050565b600060c08284031215613f1c57613f1b6127c7565b5b613f2660c061283d565b90506000613f3684828501613e29565b6000830152506020613f4a84828501613e29565b6020830152506040613f5e8482850161318c565b604083015250606082015167ffffffffffffffff811115613f8257613f81612858565b5b613f8e84828501613ed8565b606083015250608082015167ffffffffffffffff811115613fb257613fb1612858565b5b613fbe84828501613ed8565b60808301525060a082015167ffffffffffffffff811115613fe257613fe1612858565b5b613fee84828501613ad9565b60a08301525092915050565b6000602082840312156140105761400f61275b565b5b600082015167ffffffffffffffff81111561402e5761402d612760565b5b61403a84828501613f06565b91505092915050565b6000606082019050614058600083018661355c565b818103602083015261406a81856131fd565b9050818103604083015261407e8184612bf1565b9050949350505050565b600060ff82169050919050565b61409e81614088565b82525050565b60006080820190506140b96000830187612da2565b6140c66020830186614095565b6140d36040830185612da2565b6140e06060830184612da2565b95945050505050565b60006040820190506140fe6000830185612db1565b818103602083015261411081846131fd565b90509392505050565b600067ffffffffffffffff821115614134576141336127dd565b5b602082029050602081019050919050565b600061415861415384614119565b61283d565b9050808382526020820190506020840283018581111561417b5761417a613e6a565b5b835b818110156141c257805167ffffffffffffffff8111156141a05761419f61290b565b5b8086016141ad8982613f06565b8552602085019450505060208101905061417d565b5050509392505050565b600082601f8301126141e1576141e061290b565b5b81516141f1848260208601614145565b91505092915050565b6000602082840312156142105761420f61275b565b5b600082015167ffffffffffffffff81111561422e5761422d612760565b5b61423a848285016141cc565b91505092915050565b6000604082019050614258600083018561355c565b818103602083015261426a81846131fd565b90509392505050565b7f696e76616c6964207369676e6174757265206c656e6774680000000000000000600082015250565b60006142a96018836131ec565b91506142b482614273565b602082019050919050565b600060208201905081810360008301526142d88161429c565b9050919050565b60006142ea82614088565b91506142f583614088565b92508260ff0382111561430b5761430a6132e0565b5b82820190509291505056fea264697066735822122029450857e5b1b4b3fd70900428f84b817c2387f9382f80613f4f19dfda5c51c464736f6c634300080d003360806040523480156200001157600080fd5b506040516200364a3803806200364a8339818101604052810190620000379190620002a4565b80600090805190602001906200004f92919062000057565b505062000359565b828054620000659062000324565b90600052602060002090601f016020900481019282620000895760008555620000d5565b82601f10620000a457805160ff1916838001178555620000d5565b82800160010185558215620000d5579182015b82811115620000d4578251825591602001919060010190620000b7565b5b509050620000e49190620000e8565b5090565b5b8082111562000103576000816000905550600101620000e9565b5090565b6000604051905090565b600080fd5b600080fd5b600080fd5b600080fd5b6000601f19601f8301169050919050565b7f4e487b7100000000000000000000000000000000000000000000000000000000600052604160045260246000fd5b620001708262000125565b810181811067ffffffffffffffff8211171562000192576200019162000136565b5b80604052505050565b6000620001a762000107565b9050620001b5828262000165565b919050565b600067ffffffffffffffff821115620001d857620001d762000136565b5b620001e38262000125565b9050602081019050919050565b60005b8381101562000210578082015181840152602081019050620001f3565b8381111562000220576000848401525b50505050565b60006200023d6200023784620001ba565b6200019b565b9050828152602081018484840111156200025c576200025b62000120565b5b62000269848285620001f0565b509392505050565b600082601f8301126200028957620002886200011b565b5b81516200029b84826020860162000226565b91505092915050565b600060208284031215620002bd57620002bc62000111565b5b600082015167ffffffffffffffff811115620002de57620002dd62000116565b5b620002ec8482850162000271565b91505092915050565b7f4e487b7100000000000000000000000000000000000000000000000000000000600052602260045260246000fd5b600060028204905060018216806200033d57607f821691505b602082108103620003535762000352620002f5565b5b50919050565b6132e180620003696000396000f3fe608060405234801561001057600080fd5b50600436106100575760003560e01c80631b8b921d1461005c57806370ae92d21461008c5780637c52407c146100bc578063c672f9d6146100ec578063e3d670d71461011c575b600080fd5b61007660048036038101906100719190611f9b565b61014c565b604051610083919061207f565b60405180910390f35b6100a660048036038101906100a191906120a1565b6101ba565b6040516100b391906120e7565b60405180910390f35b6100d660048036038101906100d1919061225e565b61021c565b6040516100e3919061207f565b60405180910390f35b6101066004803603810190610101919061238a565b6103b9565b60405161011391906123fe565b60405180910390f35b610136600480360381019061013191906120a1565b61065e565b60405161014391906120e7565b60405180910390f35b60606000610159846106c0565b6101628461073a565b60405160200161017392919061256a565b6040516020818303038152906040529050600061018f826103b9565b905060006101ac6101a76101a284610760565b610782565b61088d565b905080935050505092915050565b6000806101c6836106c0565b6040516020016101d6919061266d565b604051602081830303815290604052905060006101f2826103b9565b9050600061020f61020a61020584610760565b610a11565b610c43565b9050809350505050919050565b60606102488484604051602001610234929190612706565b604051602081830303815290604052610ce0565b6000610253856106c0565b61025c8561073a565b60405160200161026d929190612795565b604051602081830303815290604052905060005b835181101561034757816102b28583815181106102a1576102a06127da565b5b6020026020010151600001516106c0565b6102d98684815181106102c8576102c76127da565b5b60200260200101516020015161073a565b6040516020016102eb93929190612929565b60405160208183030381529060405291506001845161030a91906129aa565b81101561033457816040516020016103229190612a2a565b60405160208183030381529060405291505b808061033f90612a4c565b915050610281565b50806040516020016103599190612ae0565b604051602081830303815290604052905061037381610ce0565b600061037e826103b9565b9050600061038b82610760565b905061039681610ce0565b60006103a96103a483610782565b61088d565b9050809450505050509392505050565b6103c1611d84565b6103c9611d97565b6040518060400160405280600481526020017f504f53540000000000000000000000000000000000000000000000000000000081525081602001819052506000805461041490612b31565b80601f016020809104026020016040519081016040528092919081815260200182805461044090612b31565b801561048d5780601f106104625761010080835404028352916020019161048d565b820191906000526020600020905b81548152906001019060200180831161047057829003601f168201915b50505050508160000181905250600167ffffffffffffffff8111156104b5576104b4611e70565b5b6040519080825280602002602001820160405280156104e857816020015b60608152602001906001900390816104d35790505b5081604001819052506040518060400160405280601e81526020017f436f6e74656e742d547970653a206170706c69636174696f6e2f6a736f6e0000815250816040015160008151811061053f5761053e6127da565b5b6020026020010181905250828160600181905250600061055e82610d79565b9050600061056b82610e72565b905060006105b76040518060400160405280600781526020017f226572726f72220000000000000000000000000000000000000000000000000081525083610e9e90919063ffffffff16565b90506105c281610f21565b61060b576105cf81610760565b6040517f08c379a00000000000000000000000000000000000000000000000000000000081526004016106029190612b9b565b60405180910390fd5b6106536040518060400160405280600881526020017f22726573756c742200000000000000000000000000000000000000000000000081525083610e9e90919063ffffffff16565b945050505050919050565b60008061066a836106c0565b60405160200161067a9190612c2f565b60405160208183030381529060405290506000610696826103b9565b905060006106b36106ae6106a984610760565b610a11565b610c43565b9050809350505050919050565b60606106cb82610f37565b905060ff6000190460061b60228201816022026028822016608860f01b60005b60011561070a5782811a820281820152600181019050601481036106eb575b50838351166000511660011c8351188352602083019250838351166020511660011c835118835250505050919050565b606061074582610f5d565b90506002815101613078825260028203915080825250919050565b6060600061077761077084610fcb565b6000610fd5565b905080915050919050565b6060600082905060006004825161079991906129aa565b67ffffffffffffffff8111156107b2576107b1611e70565b5b6040519080825280601f01601f1916602001820160405280156107e45781602001600182028036833780820191505090505b5090506000600390505b600183516107fc91906129aa565b81101561088257828181518110610816576108156127da565b5b602001015160f81c60f81b8260038361082f91906129aa565b815181106108405761083f6127da565b5b60200101907effffffffffffffffffffffffffffffffffffffffffffffffffffffffffffff1916908160001a905350808061087a90612a4c565b9150506107ee565b508092505050919050565b606060008290506000600282516108a49190612c8b565b146108ae57600080fd5b6000600282516108be9190612cbc565b67ffffffffffffffff8111156108d7576108d6611e70565b5b6040519080825280601f01601f1916602001820160405280156109095781602001600182028036833780820191505090505b50905060005b6002835161091d9190612cbc565b811015610a06576109658360018360026109379190612ced565b6109419190612d47565b81518110610952576109516127da565b5b602001015160f81c60f81b60f81c611899565b601061099c858460026109789190612ced565b81518110610989576109886127da565b5b602001015160f81c60f81b60f81c611899565b6109a69190612daa565b6109b09190612de5565b60f81b8282815181106109c6576109c56127da565b5b60200101907effffffffffffffffffffffffffffffffffffffffffffffffffffffffffffff1916908160001a905350806109ff90612a4c565b905061090f565b508092505050919050565b606060008290506002815110158015610a8957507f220000000000000000000000000000000000000000000000000000000000000081600081518110610a5a57610a596127da565b5b602001015160f81c60f81b7effffffffffffffffffffffffffffffffffffffffffffffffffffffffffffff1916145b8015610b0057507f22000000000000000000000000000000000000000000000000000000000000008160018351610ac091906129aa565b81518110610ad157610ad06127da565b5b602001015160f81c60f81b7effffffffffffffffffffffffffffffffffffffffffffffffffffffffffffff1916145b610b3f576040517f08c379a0000000000000000000000000000000000000000000000000000000008152600401610b3690612e68565b60405180910390fd5b600060028251610b4f91906129aa565b67ffffffffffffffff811115610b6857610b67611e70565b5b6040519080825280601f01601f191660200182016040528015610b9a5781602001600182028036833780820191505090505b5090506000600190505b60018351610bb291906129aa565b811015610c3857828181518110610bcc57610bcb6127da565b5b602001015160f81c60f81b82600183610be591906129aa565b81518110610bf657610bf56127da565b5b60200101907effffffffffffffffffffffffffffffffffffffffffffffffffffffffffffff1916908160001a9053508080610c3090612a4c565b915050610ba4565b508092505050919050565b600081516001811160208085015160f01c17613078141660011b5b600115610cc6576001810190507403010a071000000b0104040208000c05090d060e0f6d03e4088843e41bac00000000000060ff83870151161c601f161a8360fc1c8115171583029250600181038460041b019350828210610cc05750610cc6565b50610c5e565b81610cd95763101827966000526004601cfd5b5050919050565b610d7681604051602401610cf49190612b9b565b6040516020818303038152906040527f41304fac000000000000000000000000000000000000000000000000000000007bffffffffffffffffffffffffffffffffffffffffffffffffffffffff19166020820180517bffffffffffffffffffffffffffffffffffffffffffffffffffffffff8381831617835250505050611c3e565b50565b6060600080634320000273ffffffffffffffffffffffffffffffffffffffff1684604051602001610daa91906130ba565b604051602081830303815290604052604051610dc691906130dc565b6000604051808303816000865af19150503d8060008114610e03576040519150601f19603f3d011682016040523d82523d6000602084013e610e08565b606091505b509150915081610e55576343200002816040517f75fff467000000000000000000000000000000000000000000000000000000008152600401610e4c9291906130f3565b60405180910390fd5b80806020019051810190610e699190613193565b92505050919050565b610e7a611d84565b806040526000610e93610e8c84611c58565b60ff610fd5565b905080915050919050565b610ea6611d84565b8060405260609050610eb783611c62565b15610f1b576000828051906020012090506000610ed385611c79565b9050600060058251901b90505b60008114610f175780820151955060208103905082610efe87611c9b565b8051906020012003610f1257859350610f17565b610ee0565b5050505b92915050565b60008060ff166007836000015116149050919050565b6060610f4282611ccd565b90506002815101613078825260028203915080825250919050565b60608151600260405101915080810182526f30313233343536373839616263646566600f52602082018184015b808514610fb857600185019450600f855116516001830153600f855160041c16518253600282019150610f8a565b6000825260208201604052505050919050565b6000819050919050565b60006117e1565b63101827966000526004601cfd5b6000815160001a9050919050565b60008190505b60011561102857600164010000260061101683610fea565b1c161561102957600181019050610ffe565b5b92915050565b600063ffffffff84113d3d3e83831b8263ffffffff851b19161790509392505050565b600081831c63ffffffff16905092915050565b6000604051905061108a848603607861108560208601880360588861102f565b61102f565b925085831781526020810160405295945050505050565b6000806110b284601860005161102f565b6110bc8787610ff8565b91508682106110cb575061121e565b6110d482610fea565b60011561120f576022810361110857826110f089858589611460565b935061110060048583868a611065565b94505061120f565b605b81036111255761111c88848488611227565b9350935061120f565b607b810361114257611139888484886112ff565b9350935061120f565b6001611ff9602d1b821c16156111675761115e8884848861156f565b9350935061120f565b8760048401116111ca5782835160e01c6374727565810361119f5760048501945061119660058684878b611065565b9550505061120f565b636e756c6c81036111c7576004850194506111be60068684878b611065565b9550505061120f565b50505b8760058401116112065782835160d81c6466616c73658103611203576005850194506111fa60058684878b611065565b9550505061120f565b50505b61120e610fdc565b5b5061121a8783610ff8565b9150505b94509492505050565b60008060006001860191505b6001156112d15786821061124a57611249610fdc565b5b8261126d576112598783610ff8565b9150605d61126683610fea565b03156112d1575b611279878385876110a1565b9250925082156112c257611293816098855160401761102f565b83526001810190506112a482610fea565b605d81036112b257506112d1565b602c81036112c057506112c6565b505b8691505b600182019150611233565b6001820191506112e38360388761102f565b94506112f3600183888888611065565b92505094509492505050565b6000806001850190505b6001156113f2578581106113205761131f610fdc565b5b816113435761132f8682610ff8565b9050607d61133c82610fea565b03156113f2575b61134d8682610ff8565b90508061135c87838587611460565b6113668882610ff8565b9250603a61137384610fea565b036113e157611387886001850186886110a1565b9350935083156113e0576113b360208601830360986113ae85850360b8895160801761102f565b61102f565b84526113be83610fea565b607d81036113ce575050506113f2565b602c81036113de575050506113e7565b505b5b87925050505b600181019050611309565b6001810190506114048260388661102f565b9350611414600282878787611065565b915094509492505050565b6001667e0000007e03ff6030611436858501610fea565b031c1661144657611445610fdc565b5b6005821461145c5761145b600183018261141f565b5b5050565b600084841061147257611471610fdc565b5b6001840190505b60011561150b5761148981610fea565b60228103611497575061150b565b605c81146114ab5760018201915050611506565b6114b760018301610fea565b905060016a0510110400000000002001602283031c16156114de5760028201915050611506565b607581036114fd576114f160028361141f565b60068201915050611506565b8591505061150b565b611479565b84811061151b5761151a610fdc565b5b600181019050949350505050565b60008190505b60011561155557600a603061154383610fea565b0310156115555760018101905061152f565b80821484161561156857611567610fdc565b5b9392505050565b600080849050602d61158082610fea565b0361158c576001810190505b600a603061159983610fea565b03106115a8576115a7610fdc565b5b6115b181610fea565b600182019150603081146115ce576115cb60008884611529565b91505b602e6115d983610fea565b036115f0576115ed60018860018501611529565b91505b815160658160001a6020170361161f5761161c6001896001860162010001600e8660011a031a01611529565b92505b61162d600384898989611065565b9350505094509492505050565b600060405190508282019150601f1980601f8601165b60011561166a578084015181840152818101905080611650575b50848252600085602084010152846040830101604052509392505050565b6000606090508151600281600716116117745782158115176117745760208116156116bf576116b8603882611052565b9150611774565b6040519150602082016116d3603883611052565b5b80156117085780825280516116ea601882611052565b6116f68760188461102f565b835280925060208401935050506116d4565b50601f1983820381018060051c8552826040526117278560388661102f565b93508360201786526040811061177057602085018186015b60011561176d578151815183528082528482019150602083019250818310611767575061176d565b5061173f565b50505b5050505b50919050565b600060609050815180158315171561179257506117d9565b61179c8482611052565b91508086166117d7576117b060d882611052565b6117c46117bd8784611052565b848361163a565b92506117d183868461102f565b87178452505b505b949350505050565b816000811461185a5760018114611870576003811461188657602084018451810180821461183f5761181281610fea565b602282536118268760d8602260f81b61102f565b600052611836828460008a6110a1565b93509450808253505b8315818310171561185357611852610fdc565b5b5050611892565b6118696010607860588761177a565b9150611892565b61187f600860b860988761177a565b9150611892565b61188f84611688565b91505b5092915050565b60007f30000000000000000000000000000000000000000000000000000000000000007effffffffffffffffffffffffffffffffffffffffffffffffffffffffffffff19168260f81b7effffffffffffffffffffffffffffffffffffffffffffffffffffffffffffff19161015801561197957507f39000000000000000000000000000000000000000000000000000000000000007effffffffffffffffffffffffffffffffffffffffffffffffffffffffffffff19168260f81b7effffffffffffffffffffffffffffffffffffffffffffffffffffffffffffff191611155b156119b4577f300000000000000000000000000000000000000000000000000000000000000060f81c826119ad91906131dc565b9050611c39565b7f61000000000000000000000000000000000000000000000000000000000000007effffffffffffffffffffffffffffffffffffffffffffffffffffffffffffff19168260f81b7effffffffffffffffffffffffffffffffffffffffffffffffffffffffffffff191610158015611a9257507f66000000000000000000000000000000000000000000000000000000000000007effffffffffffffffffffffffffffffffffffffffffffffffffffffffffffff19168260f81b7effffffffffffffffffffffffffffffffffffffffffffffffffffffffffffff191611155b15611ad9577f610000000000000000000000000000000000000000000000000000000000000060f81c82600a611ac89190612de5565b611ad291906131dc565b9050611c39565b7f41000000000000000000000000000000000000000000000000000000000000007effffffffffffffffffffffffffffffffffffffffffffffffffffffffffffff19168260f81b7effffffffffffffffffffffffffffffffffffffffffffffffffffffffffffff191610158015611bb757507f46000000000000000000000000000000000000000000000000000000000000007effffffffffffffffffffffffffffffffffffffffffffffffffffffffffffff19168260f81b7effffffffffffffffffffffffffffffffffffffffffffffffffffffffffffff191611155b15611bfe577f410000000000000000000000000000000000000000000000000000000000000060f81c82600a611bed9190612de5565b611bf791906131dc565b9050611c39565b6040517f08c379a0000000000000000000000000000000000000000000000000000000008152600401611c309061325c565b60405180910390fd5b919050565b611c5581611c4d611d50611d79565b63ffffffff16565b50565b6000819050919050565b6000600260ff166007836000015116149050919050565b60606000611c90611c8984610fcb565b6003610fd5565b905080915050919050565b60606000608083600001511614611cc8576000611cc1611cba84610fcb565b6001610fd5565b9050809150505b919050565b60606040519050608081016040526f30313233343536373839616263646566600f526002810190506028815260208101600060288201528260601b925060005b600115611d4957808101820184821a600f81165160018301538060041c51825360018301925060148303611d42575050611d49565b5050611d0d565b5050919050565b60008151905060006a636f6e736f6c652e6c6f679050602083016000808483855afa5050505050565b611dd9819050919050565b6040518060200160405280600081525090565b6040518060c0016040528060608152602001606081526020016060815260200160608152602001600015158152602001600067ffffffffffffffff1681525090565b611de161327c565b565b6000604051905090565b600080fd5b600080fd5b600073ffffffffffffffffffffffffffffffffffffffff82169050919050565b6000611e2282611df7565b9050919050565b611e3281611e17565b8114611e3d57600080fd5b50565b600081359050611e4f81611e29565b92915050565b600080fd5b600080fd5b6000601f19601f8301169050919050565b7f4e487b7100000000000000000000000000000000000000000000000000000000600052604160045260246000fd5b611ea882611e5f565b810181811067ffffffffffffffff82111715611ec757611ec6611e70565b5b80604052505050565b6000611eda611de3565b9050611ee68282611e9f565b919050565b600067ffffffffffffffff821115611f0657611f05611e70565b5b611f0f82611e5f565b9050602081019050919050565b82818337600083830152505050565b6000611f3e611f3984611eeb565b611ed0565b905082815260208101848484011115611f5a57611f59611e5a565b5b611f65848285611f1c565b509392505050565b600082601f830112611f8257611f81611e55565b5b8135611f92848260208601611f2b565b91505092915050565b60008060408385031215611fb257611fb1611ded565b5b6000611fc085828601611e40565b925050602083013567ffffffffffffffff811115611fe157611fe0611df2565b5b611fed85828601611f6d565b9150509250929050565b600081519050919050565b600082825260208201905092915050565b60005b83811015612031578082015181840152602081019050612016565b83811115612040576000848401525b50505050565b600061205182611ff7565b61205b8185612002565b935061206b818560208601612013565b61207481611e5f565b840191505092915050565b600060208201905081810360008301526120998184612046565b905092915050565b6000602082840312156120b7576120b6611ded565b5b60006120c584828501611e40565b91505092915050565b6000819050919050565b6120e1816120ce565b82525050565b60006020820190506120fc60008301846120d8565b92915050565b600067ffffffffffffffff82111561211d5761211c611e70565b5b602082029050602081019050919050565b600080fd5b600080fd5b600080fd5b60006040828403121561215357612152612133565b5b61215d6040611ed0565b9050600061216d84828501611e40565b600083015250602082013567ffffffffffffffff81111561219157612190612138565b5b61219d84828501611f6d565b60208301525092915050565b60006121bc6121b784612102565b611ed0565b905080838252602082019050602084028301858111156121df576121de61212e565b5b835b8181101561222657803567ffffffffffffffff81111561220457612203611e55565b5b808601612211898261213d565b855260208501945050506020810190506121e1565b5050509392505050565b600082601f83011261224557612244611e55565b5b81356122558482602086016121a9565b91505092915050565b60008060006060848603121561227757612276611ded565b5b600061228586828701611e40565b935050602084013567ffffffffffffffff8111156122a6576122a5611df2565b5b6122b286828701611f6d565b925050604084013567ffffffffffffffff8111156122d3576122d2611df2565b5b6122df86828701612230565b9150509250925092565b600067ffffffffffffffff82111561230457612303611e70565b5b61230d82611e5f565b9050602081019050919050565b600061232d612328846122e9565b611ed0565b90508281526020810184848401111561234957612348611e5a565b5b612354848285611f1c565b509392505050565b600082601f83011261237157612370611e55565b5b813561238184826020860161231a565b91505092915050565b6000602082840312156123a05761239f611ded565b5b600082013567ffffffffffffffff8111156123be576123bd611df2565b5b6123ca8482850161235c565b91505092915050565b6123dc816120ce565b82525050565b6020820160008201516123f860008501826123d3565b50505050565b600060208201905061241360008301846123e2565b92915050565b600081905092915050565b7f7b226a736f6e727063223a22322e30222c226d6574686f64223a226574685f6360008201527f616c6c222c22706172616d73223a5b7b22746f223a2200000000000000000000602082015250565b6000612480603683612419565b915061248b82612424565b603682019050919050565b600081519050919050565b60006124ac82612496565b6124b68185612419565b93506124c6818560208601612013565b80840191505092915050565b7f222c2264617461223a2200000000000000000000000000000000000000000000600082015250565b6000612508600a83612419565b9150612513826124d2565b600a82019050919050565b7f227d2c226c6174657374225d2c226964223a317d000000000000000000000000600082015250565b6000612554601483612419565b915061255f8261251e565b601482019050919050565b600061257582612473565b915061258182856124a1565b915061258c826124fb565b915061259882846124a1565b91506125a382612547565b91508190509392505050565b7f7b226a736f6e727063223a22322e30222c226d6574686f64223a226574685f6760008201527f65745472616e73616374696f6e436f756e74222c22706172616d73223a5b2200602082015250565b600061260b603f83612419565b9150612616826125af565b603f82019050919050565b7f222c226c6174657374225d2c226964223a317d00000000000000000000000000600082015250565b6000612657601383612419565b915061266282612621565b601382019050919050565b6000612678826125fe565b915061268482846124a1565b915061268f8261264a565b915081905092915050565b6126a381611e17565b82525050565b600082825260208201905092915050565b7f2c20000000000000000000000000000000000000000000000000000000000000600082015250565b60006126f06002836126a9565b91506126fb826126ba565b602082019050919050565b600060608201905061271b600083018561269a565b818103602083015261272c816126e3565b905081810360408301526127408184612046565b90509392505050565b7f227d2c226c6174657374222c7b00000000000000000000000000000000000000600082015250565b600061277f600d83612419565b915061278a82612749565b600d82019050919050565b60006127a082612473565b91506127ac82856124a1565b91506127b7826124fb565b91506127c382846124a1565b91506127ce82612772565b91508190509392505050565b7f4e487b7100000000000000000000000000000000000000000000000000000000600052603260045260246000fd5b600081905092915050565b600061281f82611ff7565b6128298185612809565b9350612839818560208601612013565b80840191505092915050565b7f2200000000000000000000000000000000000000000000000000000000000000600082015250565b600061287b600183612419565b915061288682612845565b600182019050919050565b7f223a207b22636f6465223a202200000000000000000000000000000000000000600082015250565b60006128c7600d83612419565b91506128d282612891565b600d82019050919050565b7f227d000000000000000000000000000000000000000000000000000000000000600082015250565b6000612913600283612419565b915061291e826128dd565b600282019050919050565b60006129358286612814565b91506129408261286e565b915061294c82856124a1565b9150612957826128ba565b915061296382846124a1565b915061296e82612906565b9150819050949350505050565b7f4e487b7100000000000000000000000000000000000000000000000000000000600052601160045260246000fd5b60006129b5826120ce565b91506129c0836120ce565b9250828210156129d3576129d261297b565b5b828203905092915050565b7f2c00000000000000000000000000000000000000000000000000000000000000600082015250565b6000612a14600183612419565b9150612a1f826129de565b600182019050919050565b6000612a368284612814565b9150612a4182612a07565b915081905092915050565b6000612a57826120ce565b91507fffffffffffffffffffffffffffffffffffffffffffffffffffffffffffffffff8203612a8957612a8861297b565b5b600182019050919050565b7f7d5d2c226964223a317d00000000000000000000000000000000000000000000600082015250565b6000612aca600a83612419565b9150612ad582612a94565b600a82019050919050565b6000612aec8284612814565b9150612af782612abd565b915081905092915050565b7f4e487b7100000000000000000000000000000000000000000000000000000000600052602260045260246000fd5b60006002820490506001821680612b4957607f821691505b602082108103612b5c57612b5b612b02565b5b50919050565b6000612b6d82612496565b612b7781856126a9565b9350612b87818560208601612013565b612b9081611e5f565b840191505092915050565b60006020820190508181036000830152612bb58184612b62565b905092915050565b7f7b226a736f6e727063223a22322e30222c226d6574686f64223a226574685f6760008201527f657442616c616e6365222c22706172616d73223a5b2200000000000000000000602082015250565b6000612c19603683612419565b9150612c2482612bbd565b603682019050919050565b6000612c3a82612c0c565b9150612c4682846124a1565b9150612c518261264a565b915081905092915050565b7f4e487b7100000000000000000000000000000000000000000000000000000000600052601260045260246000fd5b6000612c96826120ce565b9150612ca1836120ce565b925082612cb157612cb0612c5c565b5b828206905092915050565b6000612cc7826120ce565b9150612cd2836120ce565b925082612ce257612ce1612c5c565b5b828204905092915050565b6000612cf8826120ce565b9150612d03836120ce565b9250817fffffffffffffffffffffffffffffffffffffffffffffffffffffffffffffffff0483118215151615612d3c57612d3b61297b565b5b828202905092915050565b6000612d52826120ce565b9150612d5d836120ce565b9250827fffffffffffffffffffffffffffffffffffffffffffffffffffffffffffffffff03821115612d9257612d9161297b565b5b828201905092915050565b600060ff82169050919050565b6000612db582612d9d565b9150612dc083612d9d565b92508160ff0483118215151615612dda57612dd961297b565b5b828202905092915050565b6000612df082612d9d565b9150612dfb83612d9d565b92508260ff03821115612e1157612e1061297b565b5b828201905092915050565b7f496e76616c696420696e70757400000000000000000000000000000000000000600082015250565b6000612e52600d836126a9565b9150612e5d82612e1c565b602082019050919050565b60006020820190508181036000830152612e8181612e45565b9050919050565b600082825260208201905092915050565b6000612ea482612496565b612eae8185612e88565b9350612ebe818560208601612013565b612ec781611e5f565b840191505092915050565b600081519050919050565b600082825260208201905092915050565b6000819050602082019050919050565b6000612f0a8383612e99565b905092915050565b6000602082019050919050565b6000612f2a82612ed2565b612f348185612edd565b935083602082028501612f4685612eee565b8060005b85811015612f825784840389528151612f638582612efe565b9450612f6e83612f12565b925060208a01995050600181019050612f4a565b50829750879550505050505092915050565b600082825260208201905092915050565b6000612fb082611ff7565b612fba8185612f94565b9350612fca818560208601612013565b612fd381611e5f565b840191505092915050565b60008115159050919050565b612ff381612fde565b82525050565b600067ffffffffffffffff82169050919050565b61301681612ff9565b82525050565b600060c08301600083015184820360008601526130398282612e99565b915050602083015184820360208601526130538282612e99565b9150506040830151848203604086015261306d8282612f1f565b915050606083015184820360608601526130878282612fa5565b915050608083015161309c6080860182612fea565b5060a08301516130af60a086018261300d565b508091505092915050565b600060208201905081810360008301526130d4818461301c565b905092915050565b60006130e88284612814565b915081905092915050565b6000604082019050613108600083018561269a565b818103602083015261311a8184612046565b90509392505050565b600061313661313184611eeb565b611ed0565b90508281526020810184848401111561315257613151611e5a565b5b61315d848285612013565b509392505050565b600082601f83011261317a57613179611e55565b5b815161318a848260208601613123565b91505092915050565b6000602082840312156131a9576131a8611ded565b5b600082015167ffffffffffffffff8111156131c7576131c6611df2565b5b6131d384828501613165565b91505092915050565b60006131e782612d9d565b91506131f283612d9d565b9250828210156132055761320461297b565b5b828203905092915050565b7f6661696c00000000000000000000000000000000000000000000000000000000600082015250565b60006132466004836126a9565b915061325182613210565b602082019050919050565b6000602082019050818103600083015261327581613239565b9050919050565b7f4e487b7100000000000000000000000000000000000000000000000000000000600052605160045260246000fdfea26469706673582212206ac443126c4930bb99e8604de2734d92cc9efb038dc2587f909679e641456e7664736f6c634300080d0033608060405234801561001057600080fd5b5060405162003dab38038062003dab833981810160405281019061003491906102d9565b81604051610041906100ef565b61004b919061038a565b604051809103906000f080158015610067573d6000803e3d6000fd5b506000806101000a81548173ffffffffffffffffffffffffffffffffffffffff021916908373ffffffffffffffffffffffffffffffffffffffff16021790555080600160006101000a81548173ffffffffffffffffffffffffffffffffffffffff021916908373ffffffffffffffffffffffffffffffffffffffff16021790555050506103ac565b61364a806200076183390190565b6000604051905090565b600080fd5b600080fd5b600080fd5b600080fd5b6000601f19601f8301169050919050565b7f4e487b7100000000000000000000000000000000000000000000000000000000600052604160045260246000fd5b6101648261011b565b810181811067ffffffffffffffff821117156101835761018261012c565b5b80604052505050565b60006101966100fd565b90506101a2828261015b565b919050565b600067ffffffffffffffff8211156101c2576101c161012c565b5b6101cb8261011b565b9050602081019050919050565b60005b838110156101f65780820151818401526020810190506101db565b83811115610205576000848401525b50505050565b600061021e610219846101a7565b61018c565b90508281526020810184848401111561023a57610239610116565b5b6102458482856101d8565b509392505050565b600082601f83011261026257610261610111565b5b815161027284826020860161020b565b91505092915050565b600073ffffffffffffffffffffffffffffffffffffffff82169050919050565b60006102a68261027b565b9050919050565b6102b68161029b565b81146102c157600080fd5b50565b6000815190506102d3816102ad565b92915050565b600080604083850312156102f0576102ef610107565b5b600083015167ffffffffffffffff81111561030e5761030d61010c565b5b61031a8582860161024d565b925050602061032b858286016102c4565b9150509250929050565b600081519050919050565b600082825260208201905092915050565b600061035c82610335565b6103668185610340565b93506103768185602086016101d8565b61037f8161011b565b840191505092915050565b600060208201905081810360008301526103a48184610351565b905092915050565b6103a580620003bc6000396000f3fe608060405234801561001057600080fd5b5060008060009054906101000a900473ffffffffffffffffffffffffffffffffffffffff1673ffffffffffffffffffffffffffffffffffffffff16631b8b921d600160009054906101000a900473ffffffffffffffffffffffffffffffffffffffff166000366040518463ffffffff1660e01b815260040161009493929190610187565b6000604051808303816000875af11580156100b3573d6000803e3d6000fd5b505050506040513d6000823e3d601f19601f820116820180604052508101906100dc9190610326565b90508081518060208301f35b600073ffffffffffffffffffffffffffffffffffffffff82169050919050565b6000610113826100e8565b9050919050565b61012381610108565b82525050565b600082825260208201905092915050565b82818337600083830152505050565b6000601f19601f8301169050919050565b60006101668385610129565b935061017383858461013a565b61017c83610149565b840190509392505050565b600060408201905061019c600083018661011a565b81810360208301526101af81848661015a565b9050949350505050565b6000604051905090565b600080fd5b600080fd5b600080fd5b600080fd5b7f4e487b7100000000000000000000000000000000000000000000000000000000600052604160045260246000fd5b61020f82610149565b810181811067ffffffffffffffff8211171561022e5761022d6101d7565b5b80604052505050565b60006102416101b9565b905061024d8282610206565b919050565b600067ffffffffffffffff82111561026d5761026c6101d7565b5b61027682610149565b9050602081019050919050565b60005b838110156102a1578082015181840152602081019050610286565b838111156102b0576000848401525b50505050565b60006102c96102c484610252565b610237565b9050828152602081018484840111156102e5576102e46101d2565b5b6102f0848285610283565b509392505050565b600082601f83011261030d5761030c6101cd565b5b815161031d8482602086016102b6565b91505092915050565b60006020828403121561033c5761033b6101c3565b5b600082015167ffffffffffffffff81111561035a576103596101c8565b5b610366848285016102f8565b9150509291505056fea26469706673582212200fe9bc46d9a1e404085b79242f2da5160d63e8a9bc579180fffeb3cb8ec7d62c64736f6c634300080d003360806040523480156200001157600080fd5b506040516200364a3803806200364a8339818101604052810190620000379190620002a4565b80600090805190602001906200004f92919062000057565b505062000359565b828054620000659062000324565b90600052602060002090601f016020900481019282620000895760008555620000d5565b82601f10620000a457805160ff1916838001178555620000d5565b82800160010185558215620000d5579182015b82811115620000d4578251825591602001919060010190620000b7565b5b509050620000e49190620000e8565b5090565b5b8082111562000103576000816000905550600101620000e9565b5090565b6000604051905090565b600080fd5b600080fd5b600080fd5b600080fd5b6000601f19601f8301169050919050565b7f4e487b7100000000000000000000000000000000000000000000000000000000600052604160045260246000fd5b620001708262000125565b810181811067ffffffffffffffff8211171562000192576200019162000136565b5b80604052505050565b6000620001a762000107565b9050620001b5828262000165565b919050565b600067ffffffffffffffff821115620001d857620001d762000136565b5b620001e38262000125565b9050602081019050919050565b60005b8381101562000210578082015181840152602081019050620001f3565b8381111562000220576000848401525b50505050565b60006200023d6200023784620001ba565b6200019b565b9050828152602081018484840111156200025c576200025b62000120565b5b62000269848285620001f0565b509392505050565b600082601f8301126200028957620002886200011b565b5b81516200029b84826020860162000226565b91505092915050565b600060208284031215620002bd57620002bc62000111565b5b600082015167ffffffffffffffff811115620002de57620002dd62000116565b5b620002ec8482850162000271565b91505092915050565b7f4e487b7100000000000000000000000000000000000000000000000000000000600052602260045260246000fd5b600060028204905060018216806200033d57607f821691505b602082108103620003535762000352620002f5565b5b50919050565b6132e180620003696000396000f3fe608060405234801561001057600080fd5b50600436106100575760003560e01c80631b8b921d1461005c57806370ae92d21461008c5780637c52407c146100bc578063c672f9d6146100ec578063e3d670d71461011c575b600080fd5b61007660048036038101906100719190611f9b565b61014c565b604051610083919061207f565b60405180910390f35b6100a660048036038101906100a191906120a1565b6101ba565b6040516100b391906120e7565b60405180910390f35b6100d660048036038101906100d1919061225e565b61021c565b6040516100e3919061207f565b60405180910390f35b6101066004803603810190610101919061238a565b6103b9565b60405161011391906123fe565b60405180910390f35b610136600480360381019061013191906120a1565b61065e565b60405161014391906120e7565b60405180910390f35b60606000610159846106c0565b6101628461073a565b60405160200161017392919061256a565b6040516020818303038152906040529050600061018f826103b9565b905060006101ac6101a76101a284610760565b610782565b61088d565b905080935050505092915050565b6000806101c6836106c0565b6040516020016101d6919061266d565b604051602081830303815290604052905060006101f2826103b9565b9050600061020f61020a61020584610760565b610a11565b610c43565b9050809350505050919050565b60606102488484604051602001610234929190612706565b604051602081830303815290604052610ce0565b6000610253856106c0565b61025c8561073a565b60405160200161026d929190612795565b604051602081830303815290604052905060005b835181101561034757816102b28583815181106102a1576102a06127da565b5b6020026020010151600001516106c0565b6102d98684815181106102c8576102c76127da565b5b60200260200101516020015161073a565b6040516020016102eb93929190612929565b60405160208183030381529060405291506001845161030a91906129aa565b81101561033457816040516020016103229190612a2a565b60405160208183030381529060405291505b808061033f90612a4c565b915050610281565b50806040516020016103599190612ae0565b604051602081830303815290604052905061037381610ce0565b600061037e826103b9565b9050600061038b82610760565b905061039681610ce0565b60006103a96103a483610782565b61088d565b9050809450505050509392505050565b6103c1611d84565b6103c9611d97565b6040518060400160405280600481526020017f504f53540000000000000000000000000000000000000000000000000000000081525081602001819052506000805461041490612b31565b80601f016020809104026020016040519081016040528092919081815260200182805461044090612b31565b801561048d5780601f106104625761010080835404028352916020019161048d565b820191906000526020600020905b81548152906001019060200180831161047057829003601f168201915b50505050508160000181905250600167ffffffffffffffff8111156104b5576104b4611e70565b5b6040519080825280602002602001820160405280156104e857816020015b60608152602001906001900390816104d35790505b5081604001819052506040518060400160405280601e81526020017f436f6e74656e742d547970653a206170706c69636174696f6e2f6a736f6e0000815250816040015160008151811061053f5761053e6127da565b5b6020026020010181905250828160600181905250600061055e82610d79565b9050600061056b82610e72565b905060006105b76040518060400160405280600781526020017f226572726f72220000000000000000000000000000000000000000000000000081525083610e9e90919063ffffffff16565b90506105c281610f21565b61060b576105cf81610760565b6040517f08c379a00000000000000000000000000000000000000000000000000000000081526004016106029190612b9b565b60405180910390fd5b6106536040518060400160405280600881526020017f22726573756c742200000000000000000000000000000000000000000000000081525083610e9e90919063ffffffff16565b945050505050919050565b60008061066a836106c0565b60405160200161067a9190612c2f565b60405160208183030381529060405290506000610696826103b9565b905060006106b36106ae6106a984610760565b610a11565b610c43565b9050809350505050919050565b60606106cb82610f37565b905060ff6000190460061b60228201816022026028822016608860f01b60005b60011561070a5782811a820281820152600181019050601481036106eb575b50838351166000511660011c8351188352602083019250838351166020511660011c835118835250505050919050565b606061074582610f5d565b90506002815101613078825260028203915080825250919050565b6060600061077761077084610fcb565b6000610fd5565b905080915050919050565b6060600082905060006004825161079991906129aa565b67ffffffffffffffff8111156107b2576107b1611e70565b5b6040519080825280601f01601f1916602001820160405280156107e45781602001600182028036833780820191505090505b5090506000600390505b600183516107fc91906129aa565b81101561088257828181518110610816576108156127da565b5b602001015160f81c60f81b8260038361082f91906129aa565b815181106108405761083f6127da565b5b60200101907effffffffffffffffffffffffffffffffffffffffffffffffffffffffffffff1916908160001a905350808061087a90612a4c565b9150506107ee565b508092505050919050565b606060008290506000600282516108a49190612c8b565b146108ae57600080fd5b6000600282516108be9190612cbc565b67ffffffffffffffff8111156108d7576108d6611e70565b5b6040519080825280601f01601f1916602001820160405280156109095781602001600182028036833780820191505090505b50905060005b6002835161091d9190612cbc565b811015610a06576109658360018360026109379190612ced565b6109419190612d47565b81518110610952576109516127da565b5b602001015160f81c60f81b60f81c611899565b601061099c858460026109789190612ced565b81518110610989576109886127da565b5b602001015160f81c60f81b60f81c611899565b6109a69190612daa565b6109b09190612de5565b60f81b8282815181106109c6576109c56127da565b5b60200101907effffffffffffffffffffffffffffffffffffffffffffffffffffffffffffff1916908160001a905350806109ff90612a4c565b905061090f565b508092505050919050565b606060008290506002815110158015610a8957507f220000000000000000000000000000000000000000000000000000000000000081600081518110610a5a57610a596127da565b5b602001015160f81c60f81b7effffffffffffffffffffffffffffffffffffffffffffffffffffffffffffff1916145b8015610b0057507f22000000000000000000000000000000000000000000000000000000000000008160018351610ac091906129aa565b81518110610ad157610ad06127da565b5b602001015160f81c60f81b7effffffffffffffffffffffffffffffffffffffffffffffffffffffffffffff1916145b610b3f576040517f08c379a0000000000000000000000000000000000000000000000000000000008152600401610b3690612e68565b60405180910390fd5b600060028251610b4f91906129aa565b67ffffffffffffffff811115610b6857610b67611e70565b5b6040519080825280601f01601f191660200182016040528015610b9a5781602001600182028036833780820191505090505b5090506000600190505b60018351610bb291906129aa565b811015610c3857828181518110610bcc57610bcb6127da565b5b602001015160f81c60f81b82600183610be591906129aa565b81518110610bf657610bf56127da565b5b60200101907effffffffffffffffffffffffffffffffffffffffffffffffffffffffffffff1916908160001a9053508080610c3090612a4c565b915050610ba4565b508092505050919050565b600081516001811160208085015160f01c17613078141660011b5b600115610cc6576001810190507403010a071000000b0104040208000c05090d060e0f6d03e4088843e41bac00000000000060ff83870151161c601f161a8360fc1c8115171583029250600181038460041b019350828210610cc05750610cc6565b50610c5e565b81610cd95763101827966000526004601cfd5b5050919050565b610d7681604051602401610cf49190612b9b565b6040516020818303038152906040527f41304fac000000000000000000000000000000000000000000000000000000007bffffffffffffffffffffffffffffffffffffffffffffffffffffffff19166020820180517bffffffffffffffffffffffffffffffffffffffffffffffffffffffff8381831617835250505050611c3e565b50565b6060600080634320000273ffffffffffffffffffffffffffffffffffffffff1684604051602001610daa91906130ba565b604051602081830303815290604052604051610dc691906130dc565b6000604051808303816000865af19150503d8060008114610e03576040519150601f19603f3d011682016040523d82523d6000602084013e610e08565b606091505b509150915081610e55576343200002816040517f75fff467000000000000000000000000000000000000000000000000000000008152600401610e4c9291906130f3565b60405180910390fd5b80806020019051810190610e699190613193565b92505050919050565b610e7a611d84565b806040526000610e93610e8c84611c58565b60ff610fd5565b905080915050919050565b610ea6611d84565b8060405260609050610eb783611c62565b15610f1b576000828051906020012090506000610ed385611c79565b9050600060058251901b90505b60008114610f175780820151955060208103905082610efe87611c9b565b8051906020012003610f1257859350610f17565b610ee0565b5050505b92915050565b60008060ff166007836000015116149050919050565b6060610f4282611ccd565b90506002815101613078825260028203915080825250919050565b60608151600260405101915080810182526f30313233343536373839616263646566600f52602082018184015b808514610fb857600185019450600f855116516001830153600f855160041c16518253600282019150610f8a565b6000825260208201604052505050919050565b6000819050919050565b60006117e1565b63101827966000526004601cfd5b6000815160001a9050919050565b60008190505b60011561102857600164010000260061101683610fea565b1c161561102957600181019050610ffe565b5b92915050565b600063ffffffff84113d3d3e83831b8263ffffffff851b19161790509392505050565b600081831c63ffffffff16905092915050565b6000604051905061108a848603607861108560208601880360588861102f565b61102f565b925085831781526020810160405295945050505050565b6000806110b284601860005161102f565b6110bc8787610ff8565b91508682106110cb575061121e565b6110d482610fea565b60011561120f576022810361110857826110f089858589611460565b935061110060048583868a611065565b94505061120f565b605b81036111255761111c88848488611227565b9350935061120f565b607b810361114257611139888484886112ff565b9350935061120f565b6001611ff9602d1b821c16156111675761115e8884848861156f565b9350935061120f565b8760048401116111ca5782835160e01c6374727565810361119f5760048501945061119660058684878b611065565b9550505061120f565b636e756c6c81036111c7576004850194506111be60068684878b611065565b9550505061120f565b50505b8760058401116112065782835160d81c6466616c73658103611203576005850194506111fa60058684878b611065565b9550505061120f565b50505b61120e610fdc565b5b5061121a8783610ff8565b9150505b94509492505050565b60008060006001860191505b6001156112d15786821061124a57611249610fdc565b5b8261126d576112598783610ff8565b9150605d61126683610fea565b03156112d1575b611279878385876110a1565b9250925082156112c257611293816098855160401761102f565b83526001810190506112a482610fea565b605d81036112b257506112d1565b602c81036112c057506112c6565b505b8691505b600182019150611233565b6001820191506112e38360388761102f565b94506112f3600183888888611065565b92505094509492505050565b6000806001850190505b6001156113f2578581106113205761131f610fdc565b5b816113435761132f8682610ff8565b9050607d61133c82610fea565b03156113f2575b61134d8682610ff8565b90508061135c87838587611460565b6113668882610ff8565b9250603a61137384610fea565b036113e157611387886001850186886110a1565b9350935083156113e0576113b360208601830360986113ae85850360b8895160801761102f565b61102f565b84526113be83610fea565b607d81036113ce575050506113f2565b602c81036113de575050506113e7565b505b5b87925050505b600181019050611309565b6001810190506114048260388661102f565b9350611414600282878787611065565b915094509492505050565b6001667e0000007e03ff6030611436858501610fea565b031c1661144657611445610fdc565b5b6005821461145c5761145b600183018261141f565b5b5050565b600084841061147257611471610fdc565b5b6001840190505b60011561150b5761148981610fea565b60228103611497575061150b565b605c81146114ab5760018201915050611506565b6114b760018301610fea565b905060016a0510110400000000002001602283031c16156114de5760028201915050611506565b607581036114fd576114f160028361141f565b60068201915050611506565b8591505061150b565b611479565b84811061151b5761151a610fdc565b5b600181019050949350505050565b60008190505b60011561155557600a603061154383610fea565b0310156115555760018101905061152f565b80821484161561156857611567610fdc565b5b9392505050565b600080849050602d61158082610fea565b0361158c576001810190505b600a603061159983610fea565b03106115a8576115a7610fdc565b5b6115b181610fea565b600182019150603081146115ce576115cb60008884611529565b91505b602e6115d983610fea565b036115f0576115ed60018860018501611529565b91505b815160658160001a6020170361161f5761161c6001896001860162010001600e8660011a031a01611529565b92505b61162d600384898989611065565b9350505094509492505050565b600060405190508282019150601f1980601f8601165b60011561166a578084015181840152818101905080611650575b50848252600085602084010152846040830101604052509392505050565b6000606090508151600281600716116117745782158115176117745760208116156116bf576116b8603882611052565b9150611774565b6040519150602082016116d3603883611052565b5b80156117085780825280516116ea601882611052565b6116f68760188461102f565b835280925060208401935050506116d4565b50601f1983820381018060051c8552826040526117278560388661102f565b93508360201786526040811061177057602085018186015b60011561176d578151815183528082528482019150602083019250818310611767575061176d565b5061173f565b50505b5050505b50919050565b600060609050815180158315171561179257506117d9565b61179c8482611052565b91508086166117d7576117b060d882611052565b6117c46117bd8784611052565b848361163a565b92506117d183868461102f565b87178452505b505b949350505050565b816000811461185a5760018114611870576003811461188657602084018451810180821461183f5761181281610fea565b602282536118268760d8602260f81b61102f565b600052611836828460008a6110a1565b93509450808253505b8315818310171561185357611852610fdc565b5b5050611892565b6118696010607860588761177a565b9150611892565b61187f600860b860988761177a565b9150611892565b61188f84611688565b91505b5092915050565b60007f30000000000000000000000000000000000000000000000000000000000000007effffffffffffffffffffffffffffffffffffffffffffffffffffffffffffff19168260f81b7effffffffffffffffffffffffffffffffffffffffffffffffffffffffffffff19161015801561197957507f39000000000000000000000000000000000000000000000000000000000000007effffffffffffffffffffffffffffffffffffffffffffffffffffffffffffff19168260f81b7effffffffffffffffffffffffffffffffffffffffffffffffffffffffffffff191611155b156119b4577f300000000000000000000000000000000000000000000000000000000000000060f81c826119ad91906131dc565b9050611c39565b7f61000000000000000000000000000000000000000000000000000000000000007effffffffffffffffffffffffffffffffffffffffffffffffffffffffffffff19168260f81b7effffffffffffffffffffffffffffffffffffffffffffffffffffffffffffff191610158015611a9257507f66000000000000000000000000000000000000000000000000000000000000007effffffffffffffffffffffffffffffffffffffffffffffffffffffffffffff19168260f81b7effffffffffffffffffffffffffffffffffffffffffffffffffffffffffffff191611155b15611ad9577f610000000000000000000000000000000000000000000000000000000000000060f81c82600a611ac89190612de5565b611ad291906131dc565b9050611c39565b7f41000000000000000000000000000000000000000000000000000000000000007effffffffffffffffffffffffffffffffffffffffffffffffffffffffffffff19168260f81b7effffffffffffffffffffffffffffffffffffffffffffffffffffffffffffff191610158015611bb757507f46000000000000000000000000000000000000000000000000000000000000007effffffffffffffffffffffffffffffffffffffffffffffffffffffffffffff19168260f81b7effffffffffffffffffffffffffffffffffffffffffffffffffffffffffffff191611155b15611bfe577f410000000000000000000000000000000000000000000000000000000000000060f81c82600a611bed9190612de5565b611bf791906131dc565b9050611c39565b6040517f08c379a0000000000000000000000000000000000000000000000000000000008152600401611c309061325c565b60405180910390fd5b919050565b611c5581611c4d611d50611d79565b63ffffffff16565b50565b6000819050919050565b6000600260ff166007836000015116149050919050565b60606000611c90611c8984610fcb565b6003610fd5565b905080915050919050565b60606000608083600001511614611cc8576000611cc1611cba84610fcb565b6001610fd5565b9050809150505b919050565b60606040519050608081016040526f30313233343536373839616263646566600f526002810190506028815260208101600060288201528260601b925060005b600115611d4957808101820184821a600f81165160018301538060041c51825360018301925060148303611d42575050611d49565b5050611d0d565b5050919050565b60008151905060006a636f6e736f6c652e6c6f679050602083016000808483855afa5050505050565b611dd9819050919050565b6040518060200160405280600081525090565b6040518060c0016040528060608152602001606081526020016060815260200160608152602001600015158152602001600067ffffffffffffffff1681525090565b611de161327c565b565b6000604051905090565b600080fd5b600080fd5b600073ffffffffffffffffffffffffffffffffffffffff82169050919050565b6000611e2282611df7565b9050919050565b611e3281611e17565b8114611e3d57600080fd5b50565b600081359050611e4f81611e29565b92915050565b600080fd5b600080fd5b6000601f19601f8301169050919050565b7f4e487b7100000000000000000000000000000000000000000000000000000000600052604160045260246000fd5b611ea882611e5f565b810181811067ffffffffffffffff82111715611ec757611ec6611e70565b5b80604052505050565b6000611eda611de3565b9050611ee68282611e9f565b919050565b600067ffffffffffffffff821115611f0657611f05611e70565b5b611f0f82611e5f565b9050602081019050919050565b82818337600083830152505050565b6000611f3e611f3984611eeb565b611ed0565b905082815260208101848484011115611f5a57611f59611e5a565b5b611f65848285611f1c565b509392505050565b600082601f830112611f8257611f81611e55565b5b8135611f92848260208601611f2b565b91505092915050565b60008060408385031215611fb257611fb1611ded565b5b6000611fc085828601611e40565b925050602083013567ffffffffffffffff811115611fe157611fe0611df2565b5b611fed85828601611f6d565b9150509250929050565b600081519050919050565b600082825260208201905092915050565b60005b83811015612031578082015181840152602081019050612016565b83811115612040576000848401525b50505050565b600061205182611ff7565b61205b8185612002565b935061206b818560208601612013565b61207481611e5f565b840191505092915050565b600060208201905081810360008301526120998184612046565b905092915050565b6000602082840312156120b7576120b6611ded565b5b60006120c584828501611e40565b91505092915050565b6000819050919050565b6120e1816120ce565b82525050565b60006020820190506120fc60008301846120d8565b92915050565b600067ffffffffffffffff82111561211d5761211c611e70565b5b602082029050602081019050919050565b600080fd5b600080fd5b600080fd5b60006040828403121561215357612152612133565b5b61215d6040611ed0565b9050600061216d84828501611e40565b600083015250602082013567ffffffffffffffff81111561219157612190612138565b5b61219d84828501611f6d565b60208301525092915050565b60006121bc6121b784612102565b611ed0565b905080838252602082019050602084028301858111156121df576121de61212e565b5b835b8181101561222657803567ffffffffffffffff81111561220457612203611e55565b5b808601612211898261213d565b855260208501945050506020810190506121e1565b5050509392505050565b600082601f83011261224557612244611e55565b5b81356122558482602086016121a9565b91505092915050565b60008060006060848603121561227757612276611ded565b5b600061228586828701611e40565b935050602084013567ffffffffffffffff8111156122a6576122a5611df2565b5b6122b286828701611f6d565b925050604084013567ffffffffffffffff8111156122d3576122d2611df2565b5b6122df86828701612230565b9150509250925092565b600067ffffffffffffffff82111561230457612303611e70565b5b61230d82611e5f565b9050602081019050919050565b600061232d612328846122e9565b611ed0565b90508281526020810184848401111561234957612348611e5a565b5b612354848285611f1c565b509392505050565b600082601f83011261237157612370611e55565b5b813561238184826020860161231a565b91505092915050565b6000602082840312156123a05761239f611ded565b5b600082013567ffffffffffffffff8111156123be576123bd611df2565b5b6123ca8482850161235c565b91505092915050565b6123dc816120ce565b82525050565b6020820160008201516123f860008501826123d3565b50505050565b600060208201905061241360008301846123e2565b92915050565b600081905092915050565b7f7b226a736f6e727063223a22322e30222c226d6574686f64223a226574685f6360008201527f616c6c222c22706172616d73223a5b7b22746f223a2200000000000000000000602082015250565b6000612480603683612419565b915061248b82612424565b603682019050919050565b600081519050919050565b60006124ac82612496565b6124b68185612419565b93506124c6818560208601612013565b80840191505092915050565b7f222c2264617461223a2200000000000000000000000000000000000000000000600082015250565b6000612508600a83612419565b9150612513826124d2565b600a82019050919050565b7f227d2c226c6174657374225d2c226964223a317d000000000000000000000000600082015250565b6000612554601483612419565b915061255f8261251e565b601482019050919050565b600061257582612473565b915061258182856124a1565b915061258c826124fb565b915061259882846124a1565b91506125a382612547565b91508190509392505050565b7f7b226a736f6e727063223a22322e30222c226d6574686f64223a226574685f6760008201527f65745472616e73616374696f6e436f756e74222c22706172616d73223a5b2200602082015250565b600061260b603f83612419565b9150612616826125af565b603f82019050919050565b7f222c226c6174657374225d2c226964223a317d00000000000000000000000000600082015250565b6000612657601383612419565b915061266282612621565b601382019050919050565b6000612678826125fe565b915061268482846124a1565b915061268f8261264a565b915081905092915050565b6126a381611e17565b82525050565b600082825260208201905092915050565b7f2c20000000000000000000000000000000000000000000000000000000000000600082015250565b60006126f06002836126a9565b91506126fb826126ba565b602082019050919050565b600060608201905061271b600083018561269a565b818103602083015261272c816126e3565b905081810360408301526127408184612046565b90509392505050565b7f227d2c226c6174657374222c7b00000000000000000000000000000000000000600082015250565b600061277f600d83612419565b915061278a82612749565b600d82019050919050565b60006127a082612473565b91506127ac82856124a1565b91506127b7826124fb565b91506127c382846124a1565b91506127ce82612772565b91508190509392505050565b7f4e487b7100000000000000000000000000000000000000000000000000000000600052603260045260246000fd5b600081905092915050565b600061281f82611ff7565b6128298185612809565b9350612839818560208601612013565b80840191505092915050565b7f2200000000000000000000000000000000000000000000000000000000000000600082015250565b600061287b600183612419565b915061288682612845565b600182019050919050565b7f223a207b22636f6465223a202200000000000000000000000000000000000000600082015250565b60006128c7600d83612419565b91506128d282612891565b600d82019050919050565b7f227d000000000000000000000000000000000000000000000000000000000000600082015250565b6000612913600283612419565b915061291e826128dd565b600282019050919050565b60006129358286612814565b91506129408261286e565b915061294c82856124a1565b9150612957826128ba565b915061296382846124a1565b915061296e82612906565b9150819050949350505050565b7f4e487b7100000000000000000000000000000000000000000000000000000000600052601160045260246000fd5b60006129b5826120ce565b91506129c0836120ce565b9250828210156129d3576129d261297b565b5b828203905092915050565b7f2c00000000000000000000000000000000000000000000000000000000000000600082015250565b6000612a14600183612419565b9150612a1f826129de565b600182019050919050565b6000612a368284612814565b9150612a4182612a07565b915081905092915050565b6000612a57826120ce565b91507fffffffffffffffffffffffffffffffffffffffffffffffffffffffffffffffff8203612a8957612a8861297b565b5b600182019050919050565b7f7d5d2c226964223a317d00000000000000000000000000000000000000000000600082015250565b6000612aca600a83612419565b9150612ad582612a94565b600a82019050919050565b6000612aec8284612814565b9150612af782612abd565b915081905092915050565b7f4e487b7100000000000000000000000000000000000000000000000000000000600052602260045260246000fd5b60006002820490506001821680612b4957607f821691505b602082108103612b5c57612b5b612b02565b5b50919050565b6000612b6d82612496565b612b7781856126a9565b9350612b87818560208601612013565b612b9081611e5f565b840191505092915050565b60006020820190508181036000830152612bb58184612b62565b905092915050565b7f7b226a736f6e727063223a22322e30222c226d6574686f64223a226574685f6760008201527f657442616c616e6365222c22706172616d73223a5b2200000000000000000000602082015250565b6000612c19603683612419565b9150612c2482612bbd565b603682019050919050565b6000612c3a82612c0c565b9150612c4682846124a1565b9150612c518261264a565b915081905092915050565b7f4e487b7100000000000000000000000000000000000000000000000000000000600052601260045260246000fd5b6000612c96826120ce565b9150612ca1836120ce565b925082612cb157612cb0612c5c565b5b828206905092915050565b6000612cc7826120ce565b9150612cd2836120ce565b925082612ce257612ce1612c5c565b5b828204905092915050565b6000612cf8826120ce565b9150612d03836120ce565b9250817fffffffffffffffffffffffffffffffffffffffffffffffffffffffffffffffff0483118215151615612d3c57612d3b61297b565b5b828202905092915050565b6000612d52826120ce565b9150612d5d836120ce565b9250827fffffffffffffffffffffffffffffffffffffffffffffffffffffffffffffffff03821115612d9257612d9161297b565b5b828201905092915050565b600060ff82169050919050565b6000612db582612d9d565b9150612dc083612d9d565b92508160ff0483118215151615612dda57612dd961297b565b5b828202905092915050565b6000612df082612d9d565b9150612dfb83612d9d565b92508260ff03821115612e1157612e1061297b565b5b828201905092915050565b7f496e76616c696420696e70757400000000000000000000000000000000000000600082015250565b6000612e52600d836126a9565b9150612e5d82612e1c565b602082019050919050565b60006020820190508181036000830152612e8181612e45565b9050919050565b600082825260208201905092915050565b6000612ea482612496565b612eae8185612e88565b9350612ebe818560208601612013565b612ec781611e5f565b840191505092915050565b600081519050919050565b600082825260208201905092915050565b6000819050602082019050919050565b6000612f0a8383612e99565b905092915050565b6000602082019050919050565b6000612f2a82612ed2565b612f348185612edd565b935083602082028501612f4685612eee565b8060005b85811015612f825784840389528151612f638582612efe565b9450612f6e83612f12565b925060208a01995050600181019050612f4a565b50829750879550505050505092915050565b600082825260208201905092915050565b6000612fb082611ff7565b612fba8185612f94565b9350612fca818560208601612013565b612fd381611e5f565b840191505092915050565b60008115159050919050565b612ff381612fde565b82525050565b600067ffffffffffffffff82169050919050565b61301681612ff9565b82525050565b600060c08301600083015184820360008601526130398282612e99565b915050602083015184820360208601526130538282612e99565b9150506040830151848203604086015261306d8282612f1f565b915050606083015184820360608601526130878282612fa5565b915050608083015161309c6080860182612fea565b5060a08301516130af60a086018261300d565b508091505092915050565b600060208201905081810360008301526130d4818461301c565b905092915050565b60006130e88284612814565b915081905092915050565b6000604082019050613108600083018561269a565b818103602083015261311a8184612046565b90509392505050565b600061313661313184611eeb565b611ed0565b90508281526020810184848401111561315257613151611e5a565b5b61315d848285612013565b509392505050565b600082601f83011261317a57613179611e55565b5b815161318a848260208601613123565b91505092915050565b6000602082840312156131a9576131a8611ded565b5b600082015167ffffffffffffffff8111156131c7576131c6611df2565b5b6131d384828501613165565b91505092915050565b60006131e782612d9d565b91506131f283612d9d565b9250828210156132055761320461297b565b5b828203905092915050565b7f6661696c00000000000000000000000000000000000000000000000000000000600082015250565b60006132466004836126a9565b915061325182613210565b602082019050919050565b6000602082019050818103600083015261327581613239565b9050919050565b7f4e487b7100000000000000000000000000000000000000000000000000000000600052605160045260246000fdfea26469706673582212206ac443126c4930bb99e8604de2734d92cc9efb038dc2587f909679e641456e7664736f6c634300080d0033",
  "devdoc": {
    "kind": "dev",
    "methods": {},
    "version": 1
  },
  "userdoc": {
    "kind": "user",
    "methods": {},
    "version": 1
  },
  "storageLayout": {
    "storage": [
      {
        "astId": 72,
        "contract": "contracts/Auction.sol:TokenAuction",
        "label": "genericPeekers",
        "offset": 0,
        "slot": "0",
        "type": "t_array(t_address)dyn_storage"
      },
      {
        "astId": 77,
        "contract": "contracts/Auction.sol:TokenAuction",
        "label": "pkDataId",
        "offset": 0,
        "slot": "1",
        "type": "t_userDefinedValueType(DataId)10055"
      },
      {
        "astId": 79,
        "contract": "contracts/Auction.sol:TokenAuction",
        "label": "auctionMaster",
        "offset": 0,
        "slot": "2",
        "type": "t_address"
      },
      {
        "astId": 83,
        "contract": "contracts/Auction.sol:TokenAuction",
        "label": "auctions",
        "offset": 0,
        "slot": "3",
        "type": "t_array(t_struct(Auction)1096_storage)dyn_storage"
      },
      {
        "astId": 85,
        "contract": "contracts/Auction.sol:TokenAuction",
        "label": "isInitialized",
        "offset": 0,
        "slot": "4",
        "type": "t_bool"
      },
      {
        "astId": 88,
        "contract": "contracts/Auction.sol:TokenAuction",
        "label": "vaultRemote",
        "offset": 1,
        "slot": "4",
        "type": "t_contract(ISettlementVault)20"
      },
      {
        "astId": 91,
        "contract": "contracts/Auction.sol:TokenAuction",
        "label": "settlementRpc",
        "offset": 0,
        "slot": "5",
        "type": "t_contract(EthJsonRPC)10041"
      }
    ],
    "types": {
      "t_address": {
        "encoding": "inplace",
        "label": "address",
        "numberOfBytes": "20"
      },
      "t_array(t_address)dyn_storage": {
        "base": "t_address",
        "encoding": "dynamic_array",
        "label": "address[]",
        "numberOfBytes": "32"
      },
      "t_array(t_struct(Auction)1096_storage)dyn_storage": {
        "base": "t_struct(Auction)1096_storage",
        "encoding": "dynamic_array",
        "label": "struct Auction[]",
        "numberOfBytes": "32"
      },
      "t_bool": {
        "encoding": "inplace",
        "label": "bool",
        "numberOfBytes": "1"
      },
      "t_bytes32": {
        "encoding": "inplace",
        "label": "bytes32",
        "numberOfBytes": "32"
      },
      "t_contract(EthJsonRPC)10041": {
        "encoding": "inplace",
        "label": "contract EthJsonRPC",
        "numberOfBytes": "20"
      },
      "t_contract(ISettlementVault)20": {
        "encoding": "inplace",
        "label": "contract ISettlementVault",
        "numberOfBytes": "20"
      },
      "t_enum(AuctionStatus)1080": {
        "encoding": "inplace",
        "label": "enum AuctionStatus",
        "numberOfBytes": "1"
      },
      "t_struct(Auction)1096_storage": {
        "encoding": "inplace",
        "label": "struct Auction",
        "members": [
          {
            "astId": 1083,
            "contract": "contracts/Auction.sol:TokenAuction",
            "label": "status",
            "offset": 0,
            "slot": "0",
            "type": "t_enum(AuctionStatus)1080"
          },
          {
            "astId": 1085,
            "contract": "contracts/Auction.sol:TokenAuction",
            "label": "bids",
            "offset": 1,
            "slot": "0",
            "type": "t_uint128"
          },
          {
            "astId": 1087,
            "contract": "contracts/Auction.sol:TokenAuction",
            "label": "payoutAddress",
            "offset": 0,
            "slot": "1",
            "type": "t_address"
          },
          {
            "astId": 1089,
            "contract": "contracts/Auction.sol:TokenAuction",
            "label": "hashedToken",
            "offset": 0,
            "slot": "2",
            "type": "t_bytes32"
          },
          {
            "astId": 1091,
            "contract": "contracts/Auction.sol:TokenAuction",
            "label": "until",
            "offset": 0,
            "slot": "3",
            "type": "t_uint64"
          },
          {
            "astId": 1093,
            "contract": "contracts/Auction.sol:TokenAuction",
            "label": "payoutCollectionDuration",
            "offset": 8,
            "slot": "3",
            "type": "t_uint64"
          },
          {
            "astId": 1095,
            "contract": "contracts/Auction.sol:TokenAuction",
            "label": "auctioneer",
            "offset": 0,
            "slot": "4",
            "type": "t_address"
          }
        ],
        "numberOfBytes": "160"
      },
      "t_uint128": {
        "encoding": "inplace",
        "label": "uint128",
        "numberOfBytes": "16"
      },
      "t_uint64": {
        "encoding": "inplace",
        "label": "uint64",
        "numberOfBytes": "8"
      },
      "t_userDefinedValueType(DataId)10055": {
        "encoding": "inplace",
        "label": "Suave.DataId",
        "numberOfBytes": "16"
      }
    }
  }
}