{
  "address": "0x94af2De510698F10a80d751813d9DfEF5be9CaD9",
  "abi": [
    {
      "inputs": [
        {
          "internalType": "address",
          "name": "_vault",
          "type": "address"
        },
        {
          "internalType": "string",
          "name": "_settlementChainRpc",
          "type": "string"
        }
      ],
      "stateMutability": "nonpayable",
      "type": "constructor"
    },
    {
      "inputs": [
        {
          "internalType": "address",
          "name": "",
          "type": "address"
        },
        {
          "internalType": "bytes",
          "name": "",
          "type": "bytes"
        }
      ],
      "name": "PeekerReverted",
      "type": "error"
    },
    {
      "inputs": [
        {
          "internalType": "string",
          "name": "message",
          "type": "string"
        }
      ],
      "name": "SuaveError",
      "type": "error"
    },
    {
      "inputs": [
        {
          "internalType": "string",
          "name": "message",
          "type": "string"
        },
        {
          "internalType": "bytes",
          "name": "data",
          "type": "bytes"
        }
      ],
      "name": "SuaveErrorWithData",
      "type": "error"
    },
    {
      "anonymous": false,
      "inputs": [
        {
          "indexed": true,
          "internalType": "uint256",
          "name": "auctionId",
          "type": "uint256"
        }
      ],
      "name": "AuctionCancelled",
      "type": "event"
    },
    {
      "anonymous": false,
      "inputs": [
        {
          "indexed": true,
          "internalType": "uint256",
          "name": "auctionId",
          "type": "uint256"
        },
        {
          "indexed": true,
          "internalType": "address",
          "name": "auctioneer",
          "type": "address"
        },
        {
          "indexed": true,
          "internalType": "bytes32",
          "name": "hashedToken",
          "type": "bytes32"
        },
        {
          "indexed": false,
          "internalType": "address",
          "name": "payoutAddress",
          "type": "address"
        },
        {
          "indexed": false,
          "internalType": "uint64",
          "name": "until",
          "type": "uint64"
        },
        {
          "indexed": false,
          "internalType": "uint64",
          "name": "payoutCollectionDuration",
          "type": "uint64"
        }
      ],
      "name": "AuctionCreated",
      "type": "event"
    },
    {
      "anonymous": false,
      "inputs": [
        {
          "indexed": true,
          "internalType": "uint256",
          "name": "auctionId",
          "type": "uint256"
        },
        {
          "indexed": false,
          "internalType": "BidId",
          "name": "winningBidId",
          "type": "uint256"
        },
        {
          "components": [
            {
              "internalType": "address",
              "name": "account",
              "type": "address"
            },
            {
              "internalType": "uint256",
              "name": "amount",
              "type": "uint256"
            }
          ],
          "indexed": false,
          "internalType": "struct AuctionPayout",
          "name": "payout",
          "type": "tuple"
        },
        {
          "indexed": false,
          "internalType": "bytes",
          "name": "payoutSig",
          "type": "bytes"
        }
      ],
      "name": "AuctionSettled",
      "type": "event"
    },
    {
      "anonymous": false,
      "inputs": [
        {
          "indexed": true,
          "internalType": "uint256",
          "name": "auctionId",
          "type": "uint256"
        },
        {
          "indexed": true,
          "internalType": "BidId",
          "name": "bidId",
          "type": "uint256"
        },
        {
          "indexed": true,
          "internalType": "address",
          "name": "bidder",
          "type": "address"
        }
      ],
      "name": "BidPlaced",
      "type": "event"
    },
    {
      "inputs": [],
      "name": "auctionMaster",
      "outputs": [
        {
          "internalType": "address",
          "name": "",
          "type": "address"
        }
      ],
      "stateMutability": "view",
      "type": "function"
    },
    {
      "inputs": [
        {
          "internalType": "uint256",
          "name": "",
          "type": "uint256"
        }
      ],
      "name": "auctions",
      "outputs": [
        {
          "internalType": "enum AuctionStatus",
          "name": "status",
          "type": "uint8"
        },
        {
          "internalType": "uint128",
          "name": "bids",
          "type": "uint128"
        },
        {
          "internalType": "address",
          "name": "payoutAddress",
          "type": "address"
        },
        {
          "internalType": "bytes32",
          "name": "hashedToken",
          "type": "bytes32"
        },
        {
          "internalType": "uint64",
          "name": "until",
          "type": "uint64"
        },
        {
          "internalType": "uint64",
          "name": "payoutCollectionDuration",
          "type": "uint64"
        },
        {
          "internalType": "address",
          "name": "auctioneer",
          "type": "address"
        }
      ],
      "stateMutability": "view",
      "type": "function"
    },
    {
      "inputs": [
        {
          "internalType": "uint256",
          "name": "auctionId",
          "type": "uint256"
        }
      ],
      "name": "cancelAuction",
      "outputs": [
        {
          "internalType": "bytes",
          "name": "",
          "type": "bytes"
        }
      ],
      "stateMutability": "nonpayable",
      "type": "function"
    },
    {
      "inputs": [
        {
          "internalType": "uint256",
          "name": "auctionId",
          "type": "uint256"
        }
      ],
      "name": "cancelAuctionCallback",
      "outputs": [],
      "stateMutability": "nonpayable",
      "type": "function"
    },
    {
      "inputs": [],
      "name": "confidentialConstructor",
      "outputs": [
        {
          "internalType": "bytes",
          "name": "",
          "type": "bytes"
        }
      ],
      "stateMutability": "nonpayable",
      "type": "function"
    },
    {
      "inputs": [
        {
          "internalType": "Suave.DataId",
          "name": "_pkDataId",
          "type": "bytes16"
        },
        {
          "internalType": "address",
          "name": "pkAddress",
          "type": "address"
        }
      ],
      "name": "confidentialConstructorCallback",
      "outputs": [],
      "stateMutability": "nonpayable",
      "type": "function"
    },
    {
      "inputs": [
        {
          "components": [
            {
              "internalType": "uint64",
              "name": "auctionDuration",
              "type": "uint64"
            },
            {
              "internalType": "uint64",
              "name": "payoutCollectionDuration",
              "type": "uint64"
            },
            {
              "internalType": "address",
              "name": "payoutAddress",
              "type": "address"
            }
          ],
          "internalType": "struct NewAuctionArgs",
          "name": "auctionArgs",
          "type": "tuple"
        }
      ],
      "name": "createAuction",
      "outputs": [
        {
          "internalType": "bytes",
          "name": "",
          "type": "bytes"
        }
      ],
      "stateMutability": "nonpayable",
      "type": "function"
    },
    {
      "inputs": [
        {
          "components": [
            {
              "internalType": "uint64",
              "name": "auctionDuration",
              "type": "uint64"
            },
            {
              "internalType": "uint64",
              "name": "payoutCollectionDuration",
              "type": "uint64"
            },
            {
              "internalType": "address",
              "name": "payoutAddress",
              "type": "address"
            }
          ],
          "internalType": "struct NewAuctionArgs",
          "name": "auctionArgs",
          "type": "tuple"
        },
        {
          "internalType": "bytes32",
          "name": "tokenHash",
          "type": "bytes32"
        },
        {
          "internalType": "address",
          "name": "auctioneer",
          "type": "address"
        }
      ],
      "name": "createAuctionCallback",
      "outputs": [],
      "stateMutability": "nonpayable",
      "type": "function"
    },
    {
      "inputs": [
        {
          "internalType": "uint256",
          "name": "",
          "type": "uint256"
        }
      ],
      "name": "genericPeekers",
      "outputs": [
        {
          "internalType": "address",
          "name": "",
          "type": "address"
        }
      ],
      "stateMutability": "view",
      "type": "function"
    },
    {
      "inputs": [],
      "name": "isInitialized",
      "outputs": [
        {
          "internalType": "bool",
          "name": "",
          "type": "bool"
        }
      ],
      "stateMutability": "view",
      "type": "function"
    },
    {
      "inputs": [
        {
          "internalType": "uint256",
          "name": "auctionId",
          "type": "uint256"
        }
      ],
      "name": "settleAuction",
      "outputs": [
        {
          "internalType": "bytes",
          "name": "",
          "type": "bytes"
        }
      ],
      "stateMutability": "nonpayable",
      "type": "function"
    },
    {
      "inputs": [
        {
          "internalType": "uint256",
          "name": "auctionId",
          "type": "uint256"
        },
        {
          "internalType": "BidId",
          "name": "winningBidId",
          "type": "uint256"
        },
        {
          "components": [
            {
              "internalType": "address",
              "name": "account",
              "type": "address"
            },
            {
              "internalType": "uint256",
              "name": "amount",
              "type": "uint256"
            }
          ],
          "internalType": "struct AuctionPayout",
          "name": "payout",
          "type": "tuple"
        },
        {
          "internalType": "bytes",
          "name": "payoutSig",
          "type": "bytes"
        }
      ],
      "name": "settleAuctionCallback",
      "outputs": [],
      "stateMutability": "nonpayable",
      "type": "function"
    },
    {
      "inputs": [
        {
          "internalType": "uint256",
          "name": "auctionId",
          "type": "uint256"
        }
      ],
      "name": "submitBid",
      "outputs": [
        {
          "internalType": "bytes",
          "name": "",
          "type": "bytes"
        }
      ],
      "stateMutability": "nonpayable",
      "type": "function"
    },
    {
      "inputs": [
        {
          "internalType": "uint256",
          "name": "auctionId",
          "type": "uint256"
        },
        {
          "internalType": "BidId",
          "name": "bidId",
          "type": "uint256"
        },
        {
          "internalType": "address",
          "name": "bidder",
          "type": "address"
        }
      ],
      "name": "submitBidCallback",
      "outputs": [],
      "stateMutability": "nonpayable",
      "type": "function"
    },
    {
      "inputs": [],
      "name": "vault",
      "outputs": [
        {
          "internalType": "address",
          "name": "",
          "type": "address"
        }
      ],
      "stateMutability": "view",
      "type": "function"
    }
  ],
  "transactionHash": "0x702a58f4b055ca540e28e1dcc5b5ffc1aeeb40cc25f3b88519448373b3bc86d7",
  "args": [
    "0x1865e4Fab145875b6AFf513AF496340a9a2Abb52",
    "holesky"
  ],
  "numDeployments": 3,
  "solcInputHash": "939ffface212c630dee0cf8d5bb4b379",
  "bytecode": "0x60a0604052604051806020016040528073c8df3686b4afb2bb53e60eae97ef043fe03fb82973ffffffffffffffffffffffffffffffffffffffff1673ffffffffffffffffffffffffffffffffffffffff168152506000906001620000659291906200014e565b503480156200007357600080fd5b5060405162007bb138038062007bb183398181016040528101906200009991906200040c565b80604051620000a890620001dd565b620000b49190620004cf565b604051809103906000f080158015620000d1573d6000803e3d6000fd5b50600460016101000a81548173ffffffffffffffffffffffffffffffffffffffff021916908373ffffffffffffffffffffffffffffffffffffffff1602179055508173ffffffffffffffffffffffffffffffffffffffff1660808173ffffffffffffffffffffffffffffffffffffffff16815250505050620004f3565b828054828255906000526020600020908101928215620001ca579160200282015b82811115620001c95782518260006101000a81548173ffffffffffffffffffffffffffffffffffffffff021916908373ffffffffffffffffffffffffffffffffffffffff160217905550916020019190600101906200016f565b5b509050620001d99190620001eb565b5090565b613459806200475883390190565b5b8082111562000206576000816000905550600101620001ec565b5090565b6000604051905090565b600080fd5b600080fd5b600073ffffffffffffffffffffffffffffffffffffffff82169050919050565b60006200024b826200021e565b9050919050565b6200025d816200023e565b81146200026957600080fd5b50565b6000815190506200027d8162000252565b92915050565b600080fd5b600080fd5b6000601f19601f8301169050919050565b7f4e487b7100000000000000000000000000000000000000000000000000000000600052604160045260246000fd5b620002d8826200028d565b810181811067ffffffffffffffff82111715620002fa57620002f96200029e565b5b80604052505050565b60006200030f6200020a565b90506200031d8282620002cd565b919050565b600067ffffffffffffffff82111562000340576200033f6200029e565b5b6200034b826200028d565b9050602081019050919050565b60005b83811015620003785780820151818401526020810190506200035b565b8381111562000388576000848401525b50505050565b6000620003a56200039f8462000322565b62000303565b905082815260208101848484011115620003c457620003c362000288565b5b620003d184828562000358565b509392505050565b600082601f830112620003f157620003f062000283565b5b8151620004038482602086016200038e565b91505092915050565b6000806040838503121562000426576200042562000214565b5b600062000436858286016200026c565b925050602083015167ffffffffffffffff8111156200045a576200045962000219565b5b6200046885828601620003d9565b9150509250929050565b600081519050919050565b600082825260208201905092915050565b60006200049b8262000472565b620004a781856200047d565b9350620004b981856020860162000358565b620004c4816200028d565b840191505092915050565b60006020820190508181036000830152620004eb81846200048e565b905092915050565b6080516142426200051660003960008181611104015261203601526142426000f3fe608060405234801561001057600080fd5b50600436106100f55760003560e01c8063571a26a0116100975780638ecb5b8e116100665780638ecb5b8e1461029e57806396b5a755146102ba578063e2411625146102ea578063fbfa77cf14610306576100f5565b8063571a26a0146101ea57806374bdda151461022057806377e97ad6146102505780637e48532c14610280576100f5565b80632e993611116100d35780632e99361114610162578063392e53cd146101925780634ca89c2c146101b057806350fa23ff146101ce576100f5565b8063048d79d5146100fa5780631ed55ecc1461011657806324f6c75614610146575b600080fd5b610114600480360381019061010f9190612961565b610324565b005b610130600480360381019061012b9190612a88565b6103ba565b60405161013d9190612b3d565b60405180910390f35b610160600480360381019061015b9190612b5f565b6104c2565b005b61017c60048036038101906101779190612bb2565b610594565b6040516101899190612b3d565b60405180910390f35b61019a610850565b6040516101a79190612bfa565b60405180910390f35b6101b8610863565b6040516101c59190612c24565b60405180910390f35b6101e860048036038101906101e39190612bb2565b610889565b005b61020460048036038101906101ff9190612bb2565b610907565b6040516102179796959493929190612d09565b60405180910390f35b61023a60048036038101906102359190612bb2565b6109ea565b6040516102479190612b3d565b60405180910390f35b61026a60048036038101906102659190612bb2565b610b78565b6040516102779190612c24565b60405180910390f35b610288610bb7565b6040516102959190612b3d565b60405180910390f35b6102b860048036038101906102b39190612da4565b610cb0565b005b6102d460048036038101906102cf9190612bb2565b610e33565b6040516102e19190612b3d565b60405180910390f35b61030460048036038101906102ff9190612e4f565b611029565b005b61030e611102565b60405161031b9190612c24565b60405180910390f35b60006003858154811061033a57610339612e8f565b5b9060005260206000209060050201905060028160000160006101000a81548160ff0219169083600281111561037257610371612c3f565b5b0217905550847f955fbdd42805cbcfdad865d06361ba0ae2c30719f6988e50e2ef44b993cc26fd8585856040516103ab93929190612f46565b60405180910390a25050505050565b60606104026103c7611126565b6040518060400160405280601081526020017f4e6f7420636f6e666964656e7469616c000000000000000000000000000000008152506111f0565b600061040c611236565b90506000816040516020016104219190612fd9565b6040516020818303038152906040528051906020012090506000339050638ecb5b8e60e01b85838360405160240161045b9392919061304c565b604051602081830303815290604052907bffffffffffffffffffffffffffffffffffffffffffffffffffffffff19166020820180517bffffffffffffffffffffffffffffffffffffffffffffffffffffffff83818316178352505050509350505050919050565b600383815481106104d6576104d5612e8f565b5b9060005260206000209060050201600001600181819054906101000a90046fffffffffffffffffffffffffffffffff1680929190610513906130b2565b91906101000a8154816fffffffffffffffffffffffffffffffff02191690836fffffffffffffffffffffffffffffffff160217905550508073ffffffffffffffffffffffffffffffffffffffff1682847fbfbf2db1f7880e9487cbceeb181c4dce363d0ad1b6e73f5aa494ffb5d919149660405160405180910390a4505050565b60606105dc6105a1611126565b6040518060400160405280601081526020017f4e6f7420636f6e666964656e7469616c000000000000000000000000000000008152506111f0565b6000600383815481106105f2576105f1612e8f565b5b906000526020600020906005020190506000600281111561061657610615612c3f565b5b8160000160009054906101000a900460ff16600281111561063a57610639612c3f565b5b1461067a576040517f08c379a000000000000000000000000000000000000000000000000000000000815260040161067190613136565b60405180910390fd5b8060030160009054906101000a900467ffffffffffffffff1667ffffffffffffffff164210156106df576040517f08c379a00000000000000000000000000000000000000000000000000000000081526004016106d6906131a2565b60405180910390fd5b60008160000160019054906101000a90046fffffffffffffffffffffffffffffffff166fffffffffffffffffffffffffffffffff1611610754576040517f08c379a000000000000000000000000000000000000000000000000000000000815260040161074b9061320e565b60405180910390fd5b6000806107608561130f565b91509150600060405180604001604052808560010160009054906101000a900473ffffffffffffffffffffffffffffffffffffffff1673ffffffffffffffffffffffffffffffffffffffff16815260200183815250905060006107c2826113ad565b905063048d79d560e01b87856000015184846040516024016107e7949392919061323d565b604051602081830303815290604052907bffffffffffffffffffffffffffffffffffffffffffffffffffffffff19166020820180517bffffffffffffffffffffffffffffffffffffffffffffffffffffffff838183161783525050505095505050505050919050565b600460009054906101000a900460ff1681565b600260009054906101000a900473ffffffffffffffffffffffffffffffffffffffff1681565b60016003828154811061089f5761089e612e8f565b5b906000526020600020906005020160000160006101000a81548160ff021916908360028111156108d2576108d1612c3f565b5b0217905550807f2809c7e17bf978fbc7194c0a694b638c4215e9140cacc6c38ca36010b45697df60405160405180910390a250565b6003818154811061091757600080fd5b90600052602060002090600502016000915090508060000160009054906101000a900460ff16908060000160019054906101000a90046fffffffffffffffffffffffffffffffff16908060010160009054906101000a900473ffffffffffffffffffffffffffffffffffffffff16908060020154908060030160009054906101000a900467ffffffffffffffff16908060030160089054906101000a900467ffffffffffffffff16908060040160009054906101000a900473ffffffffffffffffffffffffffffffffffffffff16905087565b6060610a326109f7611126565b6040518060400160405280601081526020017f4e6f7420636f6e666964656e7469616c000000000000000000000000000000008152506111f0565b6000610a3c611236565b806020019051810190610a4f919061329e565b90506000339050610a6184828461141a565b6000610aae8560038781548110610a7b57610a7a612e8f565b5b906000526020600020906005020160000160019054906101000a90046fffffffffffffffffffffffffffffffff166115fa565b9050600060405180606001604052808381526020018473ffffffffffffffffffffffffffffffffffffffff168152602001858152509050610aef818761162f565b6324f6c75660e01b86826000015185604051602401610b10939291906132cb565b604051602081830303815290604052907bffffffffffffffffffffffffffffffffffffffffffffffffffffffff19166020820180517bffffffffffffffffffffffffffffffffffffffffffffffffffffffff8381831617835250505050945050505050919050565b60008181548110610b8857600080fd5b906000526020600020016000915054906101000a900473ffffffffffffffffffffffffffffffffffffffff1681565b6060610c08600460009054906101000a900460ff16156040518060400160405280601381526020017f416c726561647920696e697469616c697a6564000000000000000000000000008152506111f0565b6000610c1460006118e7565b90506000610c21826119e0565b90506000610c2e83611a4c565b905063e241162560e01b8183604051602401610c4b929190613323565b604051602081830303815290604052907bffffffffffffffffffffffffffffffffffffffffffffffffffffffff19166020820180517bffffffffffffffffffffffffffffffffffffffffffffffffffffffff8381831617835250505050935050505090565b6000836000015142610cc2919061334c565b905060006003600181600181540180825580915050039060005260206000209060050201905060008160000160006101000a81548160ff02191690836002811115610d1057610d0f612c3f565b5b021790555084604001518160010160006101000a81548173ffffffffffffffffffffffffffffffffffffffff021916908373ffffffffffffffffffffffffffffffffffffffff160217905550838160020181905550818160030160006101000a81548167ffffffffffffffff021916908367ffffffffffffffff16021790555084602001518160030160086101000a81548167ffffffffffffffff021916908367ffffffffffffffff160217905550838373ffffffffffffffffffffffffffffffffffffffff166001600380549050610de9919061338a565b7f216b9e3e12e47255d565cd84569baa0c9998c971b9b8631c092eea22c8ed9e338860400151868a60200151604051610e24939291906133be565b60405180910390a45050505050565b6060610e7b610e40611126565b6040518060400160405280601081526020017f4e6f7420636f6e666964656e7469616c000000000000000000000000000000008152506111f0565b600060038381548110610e9157610e90612e8f565b5b906000526020600020906005020190503373ffffffffffffffffffffffffffffffffffffffff168160040160009054906101000a900473ffffffffffffffffffffffffffffffffffffffff1673ffffffffffffffffffffffffffffffffffffffff1614610f33576040517f08c379a0000000000000000000000000000000000000000000000000000000008152600401610f2a90613441565b60405180910390fd5b60006002811115610f4757610f46612c3f565b5b8160000160009054906101000a900460ff166002811115610f6b57610f6a612c3f565b5b14610fab576040517f08c379a0000000000000000000000000000000000000000000000000000000008152600401610fa290613136565b60405180910390fd5b6350fa23ff60e01b83604051602401610fc49190613461565b604051602081830303815290604052907bffffffffffffffffffffffffffffffffffffffffffffffffffffffff19166020820180517bffffffffffffffffffffffffffffffffffffffffffffffffffffffff8381831617835250505050915050919050565b611078600460009054906101000a900460ff16156040518060400160405280601381526020017f416c726561647920696e697469616c697a6564000000000000000000000000008152506111f0565b81600160006101000a8154816fffffffffffffffffffffffffffffffff021916908360801c021790555080600260006101000a81548173ffffffffffffffffffffffffffffffffffffffff021916908373ffffffffffffffffffffffffffffffffffffffff1602179055506001600460006101000a81548160ff0219169083151502179055505050565b7f000000000000000000000000000000000000000000000000000000000000000081565b6000806000634201000073ffffffffffffffffffffffffffffffffffffffff16604051611152906134ad565b6000604051808303816000865af19150503d806000811461118f576040519150601f19603f3d011682016040523d82523d6000602084013e611194565b606091505b5091509150816111e1576342010000816040517f75fff4670000000000000000000000000000000000000000000000000000000081526004016111d89291906134c2565b60405180910390fd5b80516020820151935050505090565b8161123257806040517f0c25cd980000000000000000000000000000000000000000000000000000000081526004016112299190612fd9565b60405180910390fd5b5050565b6060600080634201000173ffffffffffffffffffffffffffffffffffffffff166040516020016040516020818303038152906040526040516112789190613523565b6000604051808303816000865af19150503d80600081146112b5576040519150601f19603f3d011682016040523d82523d6000602084013e6112ba565b606091505b509150915081611307576342010001816040517f75fff4670000000000000000000000000000000000000000000000000000000081526004016112fe9291906134c2565b60405180910390fd5b809250505090565b611317612650565b60008061132384611d33565b905060005b815181101561139657600082828151811061134657611345612e8f565b5b6020026020010151905084604001518160400151111561136f5784604001519350809450611384565b838160400151111561138357806040015193505b5b508061138f9061353a565b9050611328565b50600082036113a757826040015191505b50915091565b606060006113b9611e88565b90506000836040516020016113ce9190613582565b604051602081830303815290604052805190602001209050611411816040516020016113fa91906135be565b604051602081830303815290604052600084611ee3565b92505050919050565b6000600384815481106114305761142f612e8f565b5b906000526020600020906005020190506000600281111561145457611453612c3f565b5b8160000160009054906101000a900460ff16600281111561147857611477612c3f565b5b146114b8576040517f08c379a00000000000000000000000000000000000000000000000000000000081526004016114af90613136565b60405180910390fd5b8060030160009054906101000a900467ffffffffffffffff1667ffffffffffffffff16421061151c576040517f08c379a000000000000000000000000000000000000000000000000000000000815260040161151390613625565b60405180910390fd5b6000821161155f576040517f08c379a0000000000000000000000000000000000000000000000000000000008152600401611556906136b7565b60405180910390fd5b60006115b184848460030160089054906101000a900467ffffffffffffffff168560030160009054906101000a900467ffffffffffffffff166115a2919061334c565b67ffffffffffffffff16611ff3565b9050806115f3576040517f08c379a00000000000000000000000000000000000000000000000000000000081526004016115ea90613723565b60405180910390fd5b5050505050565b6000816080846fffffffffffffffffffffffffffffffff16901b176fffffffffffffffffffffffffffffffff16905092915050565b6000816040516020016116429190613764565b60405160208183030381529060405290506000600367ffffffffffffffff8111156116705761166f612779565b5b60405190808252806020026020018201604052801561169e5781602001602082028036833780820191505090505b50905030816000815181106116b6576116b5612e8f565b5b602002602001019073ffffffffffffffffffffffffffffffffffffffff16908173ffffffffffffffffffffffffffffffffffffffff168152505063420300018160018151811061170957611708612e8f565b5b602002602001019073ffffffffffffffffffffffffffffffffffffffff16908173ffffffffffffffffffffffffffffffffffffffff168152505063420200018160028151811061175c5761175b612e8f565b5b602002602001019073ffffffffffffffffffffffffffffffffffffffff16908173ffffffffffffffffffffffffffffffffffffffff168152505060006118b060008080548060200260200160405190810160405280929190818152602001828054801561181e57602002820191906000526020600020905b8160009054906101000a900473ffffffffffffffffffffffffffffffffffffffff1673ffffffffffffffffffffffffffffffffffffffff16815260200190600101908083116117d4575b505050505060008054806020026020016040519081016040528092919081815260200182805480156118a557602002820191906000526020600020905b8160009054906101000a900473ffffffffffffffffffffffffffffffffffffffff1673ffffffffffffffffffffffffffffffffffffffff168152602001906001019080831161185b575b50505050508661218b565b90506118e0816000015184876040516020016118cc91906137d0565b604051602081830303815290604052612293565b5050505050565b6060600080635320000373ffffffffffffffffffffffffffffffffffffffff16846040516020016119189190613833565b6040516020818303038152906040526040516119349190613523565b6000604051808303816000865af19150503d8060008114611971576040519150601f19603f3d011682016040523d82523d6000602084013e611976565b606091505b5091509150816119c3576353200003816040517f75fff4670000000000000000000000000000000000000000000000000000000081526004016119ba9291906134c2565b60405180910390fd5b808060200190518101906119d791906138ef565b92505050919050565b6000806040516020016119f290613984565b6040516020818303038152906040528051906020012090506000611a3782604051602001611a2091906135be565b604051602081830303815290604052600086611ee3565b9050611a438282612378565b92505050919050565b600080600367ffffffffffffffff811115611a6a57611a69612779565b5b604051908082528060200260200182016040528015611a985781602001602082028036833780820191505090505b5090503081600081518110611ab057611aaf612e8f565b5b602002602001019073ffffffffffffffffffffffffffffffffffffffff16908173ffffffffffffffffffffffffffffffffffffffff1681525050634203000181600181518110611b0357611b02612e8f565b5b602002602001019073ffffffffffffffffffffffffffffffffffffffff16908173ffffffffffffffffffffffffffffffffffffffff1681525050634202000181600281518110611b5657611b55612e8f565b5b602002602001019073ffffffffffffffffffffffffffffffffffffffff16908173ffffffffffffffffffffffffffffffffffffffff16815250506000611cdf600080805480602002602001604051908101604052809291908181526020018280548015611c1857602002820191906000526020600020905b8160009054906101000a900473ffffffffffffffffffffffffffffffffffffffff1673ffffffffffffffffffffffffffffffffffffffff1681526020019060010190808311611bce575b50505050506000805480602002602001604051908101604052809291908181526020018280548015611c9f57602002820191906000526020600020905b8160009054906101000a900473ffffffffffffffffffffffffffffffffffffffff1673ffffffffffffffffffffffffffffffffffffffff1681526020019060010190808311611c55575b50505050506040518060400160405280601381526020017f61756374696f6e3a76303a706b7365637265740000000000000000000000000081525061218b565b9050611d2581600001516040518060400160405280601381526020017f61756374696f6e3a76303a706b7365637265740000000000000000000000000081525086612293565b806000015192505050919050565b606060006040518060400160405280600f81526020017f61756374696f6e3a76303a62696473000000000000000000000000000000000081525083604051602001611d7f9291906139e0565b60405160208183030381529060405290506000611d9d6000836123e7565b90506000815167ffffffffffffffff811115611dbc57611dbb612779565b5b604051908082528060200260200182016040528015611df557816020015b611de2612650565b815260200190600190039081611dda5790505b50905060005b8251811015611e7c576000611e2e848381518110611e1c57611e1b612e8f565b5b602002602001015160000151866124e3565b9050600081806020019051810190611e469190613a96565b905080848481518110611e5c57611e5b612e8f565b5b602002602001018190525050508080611e749061353a565b915050611dfb565b50809350505050919050565b60606000611eda600160009054906101000a900460801b6040518060400160405280601381526020017f61756374696f6e3a76303a706b736563726574000000000000000000000000008152506124e3565b90508091505090565b6060611eed611126565b611ef657600080fd5b600080634010000373ffffffffffffffffffffffffffffffffffffffff16868686604051602001611f2993929190613ac3565b604051602081830303815290604052604051611f459190613523565b6000604051808303816000865af19150503d8060008114611f82576040519150601f19603f3d011682016040523d82523d6000602084013e611f87565b606091505b509150915081611fd4576340100003816040517f75fff467000000000000000000000000000000000000000000000000000000008152600401611fcb9291906134c2565b60405180910390fd5b80806020019051810190611fe89190613b78565b925050509392505050565b600080600460019054906101000a900473ffffffffffffffffffffffffffffffffffffffff1673ffffffffffffffffffffffffffffffffffffffff16631b8b921d7f0000000000000000000000000000000000000000000000000000000000000000876040516024016120669190612c24565b6040516020818303038152906040527ff8b2cb4f000000000000000000000000000000000000000000000000000000007bffffffffffffffffffffffffffffffffffffffffffffffffffffffff19166020820180517bffffffffffffffffffffffffffffffffffffffffffffffffffffffff83818316178352505050506040518363ffffffff1660e01b81526004016121009291906134c2565b6000604051808303816000875af115801561211f573d6000803e3d6000fd5b505050506040513d6000823e3d601f19601f820116820180604052508101906121489190613b78565b9050600080828060200190518101906121619190613bd6565b9150915085821015801561217f5750848167ffffffffffffffff1611155b93505050509392505050565b612193612687565b600080634203000073ffffffffffffffffffffffffffffffffffffffff16878787876040516020016121c89493929190613cc5565b6040516020818303038152906040526040516121e49190613523565b6000604051808303816000865af19150503d8060008114612221576040519150601f19603f3d011682016040523d82523d6000602084013e612226565b606091505b509150915081612273576342030000816040517f75fff46700000000000000000000000000000000000000000000000000000000815260040161226a9291906134c2565b60405180910390fd5b808060200190518101906122879190613ef0565b92505050949350505050565b600080634202000073ffffffffffffffffffffffffffffffffffffffff168585856040516020016122c693929190613f39565b6040516020818303038152906040526040516122e29190613523565b6000604051808303816000865af19150503d806000811461231f576040519150601f19603f3d011682016040523d82523d6000602084013e612324565b606091505b509150915081612371576342020000816040517f75fff4670000000000000000000000000000000000000000000000000000000081526004016123689291906134c2565b60405180910390fd5b5050505050565b600080600080612387856125cc565b925092509250600186828585604051600081526020016040526040516123b09493929190613f9a565b6020604051602081039080840390855afa1580156123d2573d6000803e3d6000fd5b50505060206040510351935050505092915050565b6060600080634203000173ffffffffffffffffffffffffffffffffffffffff16858560405160200161241a929190613fdf565b6040516020818303038152906040526040516124369190613523565b6000604051808303816000865af19150503d8060008114612473576040519150601f19603f3d011682016040523d82523d6000602084013e612478565b606091505b5091509150816124c5576342030001816040517f75fff4670000000000000000000000000000000000000000000000000000000081526004016124bc9291906134c2565b60405180910390fd5b808060200190518101906124d991906140f0565b9250505092915050565b6060600080634202000173ffffffffffffffffffffffffffffffffffffffff168585604051602001612516929190614139565b6040516020818303038152906040526040516125329190613523565b6000604051808303816000865af19150503d806000811461256f576040519150601f19603f3d011682016040523d82523d6000602084013e612574565b606091505b5091509150816125c1576342020001816040517f75fff4670000000000000000000000000000000000000000000000000000000081526004016125b89291906134c2565b60405180910390fd5b809250505092915050565b60008060006041845114612615576040517f08c379a000000000000000000000000000000000000000000000000000000000815260040161260c906141b5565b60405180910390fd5b6020840151925060408401519150606084015160001a9050601b8160ff16101561264957601b8161264691906141d5565b90505b9193909250565b604051806060016040528060008152602001600073ffffffffffffffffffffffffffffffffffffffff168152602001600081525090565b6040518060c0016040528060006fffffffffffffffffffffffffffffffff1916815260200160006fffffffffffffffffffffffffffffffff19168152602001600067ffffffffffffffff1681526020016060815260200160608152602001606081525090565b6000604051905090565b600080fd5b600080fd5b6000819050919050565b61271481612701565b811461271f57600080fd5b50565b6000813590506127318161270b565b92915050565b61274081612701565b811461274b57600080fd5b50565b60008135905061275d81612737565b92915050565b600080fd5b6000601f19601f8301169050919050565b7f4e487b7100000000000000000000000000000000000000000000000000000000600052604160045260246000fd5b6127b182612768565b810181811067ffffffffffffffff821117156127d0576127cf612779565b5b80604052505050565b60006127e36126ed565b90506127ef82826127a8565b919050565b600080fd5b600073ffffffffffffffffffffffffffffffffffffffff82169050919050565b6000612824826127f9565b9050919050565b61283481612819565b811461283f57600080fd5b50565b6000813590506128518161282b565b92915050565b60006040828403121561286d5761286c612763565b5b61287760406127d9565b9050600061288784828501612842565b600083015250602061289b84828501612722565b60208301525092915050565b600080fd5b600080fd5b600067ffffffffffffffff8211156128cc576128cb612779565b5b6128d582612768565b9050602081019050919050565b82818337600083830152505050565b60006129046128ff846128b1565b6127d9565b9050828152602081018484840111156129205761291f6128ac565b5b61292b8482856128e2565b509392505050565b600082601f830112612948576129476128a7565b5b81356129588482602086016128f1565b91505092915050565b60008060008060a0858703121561297b5761297a6126f7565b5b600061298987828801612722565b945050602061299a8782880161274e565b93505060406129ab87828801612857565b925050608085013567ffffffffffffffff8111156129cc576129cb6126fc565b5b6129d887828801612933565b91505092959194509250565b600067ffffffffffffffff82169050919050565b612a01816129e4565b8114612a0c57600080fd5b50565b600081359050612a1e816129f8565b92915050565b600060608284031215612a3a57612a39612763565b5b612a4460606127d9565b90506000612a5484828501612a0f565b6000830152506020612a6884828501612a0f565b6020830152506040612a7c84828501612842565b60408301525092915050565b600060608284031215612a9e57612a9d6126f7565b5b6000612aac84828501612a24565b91505092915050565b600081519050919050565b600082825260208201905092915050565b60005b83811015612aef578082015181840152602081019050612ad4565b83811115612afe576000848401525b50505050565b6000612b0f82612ab5565b612b198185612ac0565b9350612b29818560208601612ad1565b612b3281612768565b840191505092915050565b60006020820190508181036000830152612b578184612b04565b905092915050565b600080600060608486031215612b7857612b776126f7565b5b6000612b8686828701612722565b9350506020612b978682870161274e565b9250506040612ba886828701612842565b9150509250925092565b600060208284031215612bc857612bc76126f7565b5b6000612bd684828501612722565b91505092915050565b60008115159050919050565b612bf481612bdf565b82525050565b6000602082019050612c0f6000830184612beb565b92915050565b612c1e81612819565b82525050565b6000602082019050612c396000830184612c15565b92915050565b7f4e487b7100000000000000000000000000000000000000000000000000000000600052602160045260246000fd5b60038110612c7f57612c7e612c3f565b5b50565b6000819050612c9082612c6e565b919050565b6000612ca082612c82565b9050919050565b612cb081612c95565b82525050565b60006fffffffffffffffffffffffffffffffff82169050919050565b612cdb81612cb6565b82525050565b6000819050919050565b612cf481612ce1565b82525050565b612d03816129e4565b82525050565b600060e082019050612d1e600083018a612ca7565b612d2b6020830189612cd2565b612d386040830188612c15565b612d456060830187612ceb565b612d526080830186612cfa565b612d5f60a0830185612cfa565b612d6c60c0830184612c15565b98975050505050505050565b612d8181612ce1565b8114612d8c57600080fd5b50565b600081359050612d9e81612d78565b92915050565b600080600060a08486031215612dbd57612dbc6126f7565b5b6000612dcb86828701612a24565b9350506060612ddc86828701612d8f565b9250506080612ded86828701612842565b9150509250925092565b60007fffffffffffffffffffffffffffffffff0000000000000000000000000000000082169050919050565b612e2c81612df7565b8114612e3757600080fd5b50565b600081359050612e4981612e23565b92915050565b60008060408385031215612e6657612e656126f7565b5b6000612e7485828601612e3a565b9250506020612e8585828601612842565b9150509250929050565b7f4e487b7100000000000000000000000000000000000000000000000000000000600052603260045260246000fd5b6000819050919050565b6000612ee3612ede612ed984612701565b612ebe565b612701565b9050919050565b612ef381612ec8565b82525050565b612f0281612819565b82525050565b612f1181612701565b82525050565b604082016000820151612f2d6000850182612ef9565b506020820151612f406020850182612f08565b50505050565b6000608082019050612f5b6000830186612eea565b612f686020830185612f17565b8181036060830152612f7a8184612b04565b9050949350505050565b600081519050919050565b600082825260208201905092915050565b6000612fab82612f84565b612fb58185612f8f565b9350612fc5818560208601612ad1565b612fce81612768565b840191505092915050565b60006020820190508181036000830152612ff38184612fa0565b905092915050565b613004816129e4565b82525050565b6060820160008201516130206000850182612ffb565b5060208201516130336020850182612ffb565b5060408201516130466040850182612ef9565b50505050565b600060a082019050613061600083018661300a565b61306e6060830185612ceb565b61307b6080830184612c15565b949350505050565b7f4e487b7100000000000000000000000000000000000000000000000000000000600052601160045260246000fd5b60006130bd82612cb6565b91506fffffffffffffffffffffffffffffffff82036130df576130de613083565b5b600182019050919050565b7f41756374696f6e206973206e6f74206c69766500000000000000000000000000600082015250565b6000613120601383612f8f565b915061312b826130ea565b602082019050919050565b6000602082019050818103600083015261314f81613113565b9050919050565b7f41756374696f6e20686173206e6f7420656e6465640000000000000000000000600082015250565b600061318c601583612f8f565b915061319782613156565b602082019050919050565b600060208201905081810360008301526131bb8161317f565b9050919050565b7f4e6f206269647300000000000000000000000000000000000000000000000000600082015250565b60006131f8600783612f8f565b9150613203826131c2565b602082019050919050565b60006020820190508181036000830152613227816131eb565b9050919050565b61323781612701565b82525050565b600060a082019050613252600083018761322e565b61325f6020830186612eea565b61326c6040830185612f17565b818103608083015261327e8184612b04565b905095945050505050565b6000815190506132988161270b565b92915050565b6000602082840312156132b4576132b36126f7565b5b60006132c284828501613289565b91505092915050565b60006060820190506132e0600083018661322e565b6132ed6020830185612eea565b6132fa6040830184612c15565b949350505050565b600061330d82612df7565b9050919050565b61331d81613302565b82525050565b60006040820190506133386000830185613314565b6133456020830184612c15565b9392505050565b6000613357826129e4565b9150613362836129e4565b92508267ffffffffffffffff0382111561337f5761337e613083565b5b828201905092915050565b600061339582612701565b91506133a083612701565b9250828210156133b3576133b2613083565b5b828203905092915050565b60006060820190506133d36000830186612c15565b6133e06020830185612cfa565b6133ed6040830184612cfa565b949350505050565b7f4f6e6c792061756374696f6e206d61737465722063616e2063616e63656c0000600082015250565b600061342b601e83612f8f565b9150613436826133f5565b602082019050919050565b6000602082019050818103600083015261345a8161341e565b9050919050565b6000602082019050613476600083018461322e565b92915050565b600081905092915050565b50565b600061349760008361347c565b91506134a282613487565b600082019050919050565b60006134b88261348a565b9150819050919050565b60006040820190506134d76000830185612c15565b81810360208301526134e98184612b04565b90509392505050565b60006134fd82612ab5565b613507818561347c565b9350613517818560208601612ad1565b80840191505092915050565b600061352f82846134f2565b915081905092915050565b600061354582612701565b91507fffffffffffffffffffffffffffffffffffffffffffffffffffffffffffffffff820361357757613576613083565b5b600182019050919050565b60006040820190506135976000830184612f17565b92915050565b6000819050919050565b6135b86135b382612ce1565b61359d565b82525050565b60006135ca82846135a7565b60208201915081905092915050565b7f41756374696f6e2068617320656e646564000000000000000000000000000000600082015250565b600061360f601183612f8f565b915061361a826135d9565b602082019050919050565b6000602082019050818103600083015261363e81613602565b9050919050565b7f42696420616d6f756e742073686f756c6420626520677265617465722074686160008201527f6e207a65726f0000000000000000000000000000000000000000000000000000602082015250565b60006136a1602683612f8f565b91506136ac82613645565b604082019050919050565b600060208201905081810360008301526136d081613694565b9050919050565b7f496e73756666696369656e742066756e64730000000000000000000000000000600082015250565b600061370d601283612f8f565b9150613718826136d7565b602082019050919050565b6000602082019050818103600083015261373c81613700565b9050919050565b6000819050919050565b61375e61375982612701565b613743565b82525050565b6000613770828461374d565b60208201915081905092915050565b61378881612ec8565b82525050565b6060820160008201516137a4600085018261377f565b5060208201516137b76020850182612ef9565b5060408201516137ca6040850182612f08565b50505050565b60006060820190506137e5600083018461378e565b92915050565b600281106137fc576137fb612c3f565b5b50565b600081905061380d826137eb565b919050565b600061381d826137ff565b9050919050565b61382d81613812565b82525050565b60006020820190506138486000830184613824565b92915050565b600067ffffffffffffffff82111561386957613868612779565b5b61387282612768565b9050602081019050919050565b600061389261388d8461384e565b6127d9565b9050828152602081018484840111156138ae576138ad6128ac565b5b6138b9848285612ad1565b509392505050565b600082601f8301126138d6576138d56128a7565b5b81516138e684826020860161387f565b91505092915050565b600060208284031215613905576139046126f7565b5b600082015167ffffffffffffffff811115613923576139226126fc565b5b61392f848285016138c1565b91505092915050565b7f796f000000000000000000000000000000000000000000000000000000000000600082015250565b600061396e600283612f8f565b915061397982613938565b602082019050919050565b6000602082019050818103600083015261399d81613961565b9050919050565b600081905092915050565b60006139ba82612f84565b6139c481856139a4565b93506139d4818560208601612ad1565b80840191505092915050565b60006139ec82856139af565b91506139f8828461374d565b6020820191508190509392505050565b600081519050613a1781612737565b92915050565b600081519050613a2c8161282b565b92915050565b600060608284031215613a4857613a47612763565b5b613a5260606127d9565b90506000613a6284828501613a08565b6000830152506020613a7684828501613a1d565b6020830152506040613a8a84828501613289565b60408301525092915050565b600060608284031215613aac57613aab6126f7565b5b6000613aba84828501613a32565b91505092915050565b60006060820190508181036000830152613add8186612b04565b9050613aec6020830185613824565b8181036040830152613afe8184612fa0565b9050949350505050565b6000613b1b613b16846128b1565b6127d9565b905082815260208101848484011115613b3757613b366128ac565b5b613b42848285612ad1565b509392505050565b600082601f830112613b5f57613b5e6128a7565b5b8151613b6f848260208601613b08565b91505092915050565b600060208284031215613b8e57613b8d6126f7565b5b600082015167ffffffffffffffff811115613bac57613bab6126fc565b5b613bb884828501613b4a565b91505092915050565b600081519050613bd0816129f8565b92915050565b60008060408385031215613bed57613bec6126f7565b5b6000613bfb85828601613289565b9250506020613c0c85828601613bc1565b9150509250929050565b600081519050919050565b600082825260208201905092915050565b6000819050602082019050919050565b6000613c4e8383612ef9565b60208301905092915050565b6000602082019050919050565b6000613c7282613c16565b613c7c8185613c21565b9350613c8783613c32565b8060005b83811015613cb8578151613c9f8882613c42565b9750613caa83613c5a565b925050600181019050613c8b565b5085935050505092915050565b6000608082019050613cda6000830187612cfa565b8181036020830152613cec8186613c67565b90508181036040830152613d008185613c67565b90508181036060830152613d148184612fa0565b905095945050505050565b600081519050613d2e81612e23565b92915050565b600067ffffffffffffffff821115613d4f57613d4e612779565b5b602082029050602081019050919050565b600080fd5b6000613d78613d7384613d34565b6127d9565b90508083825260208201905060208402830185811115613d9b57613d9a613d60565b5b835b81811015613dc45780613db08882613a1d565b845260208401935050602081019050613d9d565b5050509392505050565b600082601f830112613de357613de26128a7565b5b8151613df3848260208601613d65565b91505092915050565b600060c08284031215613e1257613e11612763565b5b613e1c60c06127d9565b90506000613e2c84828501613d1f565b6000830152506020613e4084828501613d1f565b6020830152506040613e5484828501613bc1565b604083015250606082015167ffffffffffffffff811115613e7857613e776127f4565b5b613e8484828501613dce565b606083015250608082015167ffffffffffffffff811115613ea857613ea76127f4565b5b613eb484828501613dce565b60808301525060a082015167ffffffffffffffff811115613ed857613ed76127f4565b5b613ee4848285016138c1565b60a08301525092915050565b600060208284031215613f0657613f056126f7565b5b600082015167ffffffffffffffff811115613f2457613f236126fc565b5b613f3084828501613dfc565b91505092915050565b6000606082019050613f4e6000830186613314565b8181036020830152613f608185612fa0565b90508181036040830152613f748184612b04565b9050949350505050565b600060ff82169050919050565b613f9481613f7e565b82525050565b6000608082019050613faf6000830187612ceb565b613fbc6020830186613f8b565b613fc96040830185612ceb565b613fd66060830184612ceb565b95945050505050565b6000604082019050613ff46000830185612cfa565b81810360208301526140068184612fa0565b90509392505050565b600067ffffffffffffffff82111561402a57614029612779565b5b602082029050602081019050919050565b600061404e6140498461400f565b6127d9565b9050808382526020820190506020840283018581111561407157614070613d60565b5b835b818110156140b857805167ffffffffffffffff811115614096576140956128a7565b5b8086016140a38982613dfc565b85526020850194505050602081019050614073565b5050509392505050565b600082601f8301126140d7576140d66128a7565b5b81516140e784826020860161403b565b91505092915050565b600060208284031215614106576141056126f7565b5b600082015167ffffffffffffffff811115614124576141236126fc565b5b614130848285016140c2565b91505092915050565b600060408201905061414e6000830185613314565b81810360208301526141608184612fa0565b90509392505050565b7f696e76616c6964207369676e6174757265206c656e6774680000000000000000600082015250565b600061419f601883612f8f565b91506141aa82614169565b602082019050919050565b600060208201905081810360008301526141ce81614192565b9050919050565b60006141e082613f7e565b91506141eb83613f7e565b92508260ff0382111561420157614200613083565b5b82820190509291505056fea2646970667358221220ebc5a9bc1d22a4dacda2651de04f0125fc531b3ba9a385f3ec5d00a34eac288764736f6c634300080d003360806040523480156200001157600080fd5b5060405162003459380380620034598339818101604052810190620000379190620002a4565b80600090805190602001906200004f92919062000057565b505062000359565b828054620000659062000324565b90600052602060002090601f016020900481019282620000895760008555620000d5565b82601f10620000a457805160ff1916838001178555620000d5565b82800160010185558215620000d5579182015b82811115620000d4578251825591602001919060010190620000b7565b5b509050620000e49190620000e8565b5090565b5b8082111562000103576000816000905550600101620000e9565b5090565b6000604051905090565b600080fd5b600080fd5b600080fd5b600080fd5b6000601f19601f8301169050919050565b7f4e487b7100000000000000000000000000000000000000000000000000000000600052604160045260246000fd5b620001708262000125565b810181811067ffffffffffffffff8211171562000192576200019162000136565b5b80604052505050565b6000620001a762000107565b9050620001b5828262000165565b919050565b600067ffffffffffffffff821115620001d857620001d762000136565b5b620001e38262000125565b9050602081019050919050565b60005b8381101562000210578082015181840152602081019050620001f3565b8381111562000220576000848401525b50505050565b60006200023d6200023784620001ba565b6200019b565b9050828152602081018484840111156200025c576200025b62000120565b5b62000269848285620001f0565b509392505050565b600082601f8301126200028957620002886200011b565b5b81516200029b84826020860162000226565b91505092915050565b600060208284031215620002bd57620002bc62000111565b5b600082015167ffffffffffffffff811115620002de57620002dd62000116565b5b620002ec8482850162000271565b91505092915050565b7f4e487b7100000000000000000000000000000000000000000000000000000000600052602260045260246000fd5b600060028204905060018216806200033d57607f821691505b602082108103620003535762000352620002f5565b5b50919050565b6130f080620003696000396000f3fe608060405234801561001057600080fd5b50600436106100575760003560e01c80631b8b921d1461005c57806370ae92d21461008c5780637c52407c146100bc578063c672f9d6146100ec578063e3d670d71461011c575b600080fd5b61007660048036038101906100719190611e68565b61014c565b6040516100839190611f4c565b60405180910390f35b6100a660048036038101906100a19190611f6e565b6101ba565b6040516100b39190611fb4565b60405180910390f35b6100d660048036038101906100d1919061212b565b61021c565b6040516100e39190611f4c565b60405180910390f35b61010660048036038101906101019190612257565b610377565b60405161011391906122cb565b60405180910390f35b61013660048036038101906101319190611f6e565b61061c565b6040516101439190611fb4565b60405180910390f35b606060006101598461067e565b610162846106f8565b604051602001610173929190612437565b6040516020818303038152906040529050600061018f82610377565b905060006101ac6101a76101a28461071e565b610740565b61084b565b905080935050505092915050565b6000806101c68361067e565b6040516020016101d6919061253a565b604051602081830303815290604052905060006101f282610377565b9050600061020f61020a6102058461071e565b6109cf565b610c01565b9050809350505050919050565b606060006102298561067e565b610232856106f8565b6040516020016102439291906125b3565b604051602081830303815290604052905060005b835181101561031d5781610288858381518110610277576102766125f8565b5b60200260200101516000015161067e565b6102af86848151811061029e5761029d6125f8565b5b6020026020010151602001516106f8565b6040516020016102c193929190612747565b6040516020818303038152906040529150600184516102e091906127c8565b81101561030a57816040516020016102f89190612848565b60405160208183030381529060405291505b80806103159061286a565b915050610257565b508060405160200161032f91906128fe565b6040516020818303038152906040529050600061034b82610377565b9050600061036861036361035e8461071e565b610740565b61084b565b90508093505050509392505050565b61037f611c5b565b610387611c6e565b6040518060400160405280600481526020017f504f5354000000000000000000000000000000000000000000000000000000008152508160200181905250600080546103d29061294f565b80601f01602080910402602001604051908101604052809291908181526020018280546103fe9061294f565b801561044b5780601f106104205761010080835404028352916020019161044b565b820191906000526020600020905b81548152906001019060200180831161042e57829003601f168201915b50505050508160000181905250600167ffffffffffffffff81111561047357610472611d3d565b5b6040519080825280602002602001820160405280156104a657816020015b60608152602001906001900390816104915790505b5081604001819052506040518060400160405280601e81526020017f436f6e74656e742d547970653a206170706c69636174696f6e2f6a736f6e000081525081604001516000815181106104fd576104fc6125f8565b5b6020026020010181905250828160600181905250600061051c82610c9e565b9050600061052982610d97565b905060006105756040518060400160405280600781526020017f226572726f72220000000000000000000000000000000000000000000000000081525083610dc390919063ffffffff16565b905061058081610e46565b6105c95761058d8161071e565b6040517f08c379a00000000000000000000000000000000000000000000000000000000081526004016105c091906129ca565b60405180910390fd5b6106116040518060400160405280600881526020017f22726573756c742200000000000000000000000000000000000000000000000081525083610dc390919063ffffffff16565b945050505050919050565b6000806106288361067e565b6040516020016106389190612a5e565b6040516020818303038152906040529050600061065482610377565b9050600061067161066c6106678461071e565b6109cf565b610c01565b9050809350505050919050565b606061068982610e5c565b905060ff6000190460061b60228201816022026028822016608860f01b60005b6001156106c85782811a820281820152600181019050601481036106a9575b50838351166000511660011c8351188352602083019250838351166020511660011c835118835250505050919050565b606061070382610e82565b90506002815101613078825260028203915080825250919050565b6060600061073561072e84610ef0565b6000610efa565b905080915050919050565b6060600082905060006004825161075791906127c8565b67ffffffffffffffff8111156107705761076f611d3d565b5b6040519080825280601f01601f1916602001820160405280156107a25781602001600182028036833780820191505090505b5090506000600390505b600183516107ba91906127c8565b811015610840578281815181106107d4576107d36125f8565b5b602001015160f81c60f81b826003836107ed91906127c8565b815181106107fe576107fd6125f8565b5b60200101907effffffffffffffffffffffffffffffffffffffffffffffffffffffffffffff1916908160001a90535080806108389061286a565b9150506107ac565b508092505050919050565b606060008290506000600282516108629190612aba565b1461086c57600080fd5b60006002825161087c9190612aeb565b67ffffffffffffffff81111561089557610894611d3d565b5b6040519080825280601f01601f1916602001820160405280156108c75781602001600182028036833780820191505090505b50905060005b600283516108db9190612aeb565b8110156109c4576109238360018360026108f59190612b1c565b6108ff9190612b76565b815181106109105761090f6125f8565b5b602001015160f81c60f81b60f81c6117be565b601061095a858460026109369190612b1c565b81518110610947576109466125f8565b5b602001015160f81c60f81b60f81c6117be565b6109649190612bd9565b61096e9190612c14565b60f81b828281518110610984576109836125f8565b5b60200101907effffffffffffffffffffffffffffffffffffffffffffffffffffffffffffff1916908160001a905350806109bd9061286a565b90506108cd565b508092505050919050565b606060008290506002815110158015610a4757507f220000000000000000000000000000000000000000000000000000000000000081600081518110610a1857610a176125f8565b5b602001015160f81c60f81b7effffffffffffffffffffffffffffffffffffffffffffffffffffffffffffff1916145b8015610abe57507f22000000000000000000000000000000000000000000000000000000000000008160018351610a7e91906127c8565b81518110610a8f57610a8e6125f8565b5b602001015160f81c60f81b7effffffffffffffffffffffffffffffffffffffffffffffffffffffffffffff1916145b610afd576040517f08c379a0000000000000000000000000000000000000000000000000000000008152600401610af490612c97565b60405180910390fd5b600060028251610b0d91906127c8565b67ffffffffffffffff811115610b2657610b25611d3d565b5b6040519080825280601f01601f191660200182016040528015610b585781602001600182028036833780820191505090505b5090506000600190505b60018351610b7091906127c8565b811015610bf657828181518110610b8a57610b896125f8565b5b602001015160f81c60f81b82600183610ba391906127c8565b81518110610bb457610bb36125f8565b5b60200101907effffffffffffffffffffffffffffffffffffffffffffffffffffffffffffff1916908160001a9053508080610bee9061286a565b915050610b62565b508092505050919050565b600081516001811160208085015160f01c17613078141660011b5b600115610c84576001810190507403010a071000000b0104040208000c05090d060e0f6d03e4088843e41bac00000000000060ff83870151161c601f161a8360fc1c8115171583029250600181038460041b019350828210610c7e5750610c84565b50610c1c565b81610c975763101827966000526004601cfd5b5050919050565b6060600080634320000273ffffffffffffffffffffffffffffffffffffffff1684604051602001610ccf9190612ee9565b604051602081830303815290604052604051610ceb9190612f0b565b6000604051808303816000865af19150503d8060008114610d28576040519150601f19603f3d011682016040523d82523d6000602084013e610d2d565b606091505b509150915081610d7a576343200002816040517f75fff467000000000000000000000000000000000000000000000000000000008152600401610d71929190612f31565b60405180910390fd5b80806020019051810190610d8e9190612fd1565b92505050919050565b610d9f611c5b565b806040526000610db8610db184611b63565b60ff610efa565b905080915050919050565b610dcb611c5b565b8060405260609050610ddc83611b6d565b15610e40576000828051906020012090506000610df885611b84565b9050600060058251901b90505b60008114610e3c5780820151955060208103905082610e2387611ba6565b8051906020012003610e3757859350610e3c565b610e05565b5050505b92915050565b60008060ff166007836000015116149050919050565b6060610e6782611bd8565b90506002815101613078825260028203915080825250919050565b60608151600260405101915080810182526f30313233343536373839616263646566600f52602082018184015b808514610edd57600185019450600f855116516001830153600f855160041c16518253600282019150610eaf565b6000825260208201604052505050919050565b6000819050919050565b6000611706565b63101827966000526004601cfd5b6000815160001a9050919050565b60008190505b600115610f4d576001640100002600610f3b83610f0f565b1c1615610f4e57600181019050610f23565b5b92915050565b600063ffffffff84113d3d3e83831b8263ffffffff851b19161790509392505050565b600081831c63ffffffff16905092915050565b60006040519050610faf8486036078610faa602086018803605888610f54565b610f54565b925085831781526020810160405295945050505050565b600080610fd7846018600051610f54565b610fe18787610f1d565b9150868210610ff05750611143565b610ff982610f0f565b600115611134576022810361102d578261101589858589611385565b935061102560048583868a610f8a565b945050611134565b605b810361104a576110418884848861114c565b93509350611134565b607b81036110675761105e88848488611224565b93509350611134565b6001611ff9602d1b821c161561108c5761108388848488611494565b93509350611134565b8760048401116110ef5782835160e01c637472756581036110c4576004850194506110bb60058684878b610f8a565b95505050611134565b636e756c6c81036110ec576004850194506110e360068684878b610f8a565b95505050611134565b50505b87600584011161112b5782835160d81c6466616c736581036111285760058501945061111f60058684878b610f8a565b95505050611134565b50505b611133610f01565b5b5061113f8783610f1d565b9150505b94509492505050565b60008060006001860191505b6001156111f65786821061116f5761116e610f01565b5b826111925761117e8783610f1d565b9150605d61118b83610f0f565b03156111f6575b61119e87838587610fc6565b9250925082156111e7576111b88160988551604017610f54565b83526001810190506111c982610f0f565b605d81036111d757506111f6565b602c81036111e557506111eb565b505b8691505b600182019150611158565b60018201915061120883603887610f54565b9450611218600183888888610f8a565b92505094509492505050565b6000806001850190505b6001156113175785811061124557611244610f01565b5b81611268576112548682610f1d565b9050607d61126182610f0f565b0315611317575b6112728682610f1d565b90508061128187838587611385565b61128b8882610f1d565b9250603a61129884610f0f565b03611306576112ac88600185018688610fc6565b935093508315611305576112d860208601830360986112d385850360b88951608017610f54565b610f54565b84526112e383610f0f565b607d81036112f357505050611317565b602c81036113035750505061130c565b505b5b87925050505b60018101905061122e565b60018101905061132982603886610f54565b9350611339600282878787610f8a565b915094509492505050565b6001667e0000007e03ff603061135b858501610f0f565b031c1661136b5761136a610f01565b5b60058214611381576113806001830182611344565b5b5050565b600084841061139757611396610f01565b5b6001840190505b600115611430576113ae81610f0f565b602281036113bc5750611430565b605c81146113d0576001820191505061142b565b6113dc60018301610f0f565b905060016a0510110400000000002001602283031c1615611403576002820191505061142b565b6075810361142257611416600283611344565b6006820191505061142b565b85915050611430565b61139e565b8481106114405761143f610f01565b5b600181019050949350505050565b60008190505b60011561147a57600a603061146883610f0f565b03101561147a57600181019050611454565b80821484161561148d5761148c610f01565b5b9392505050565b600080849050602d6114a582610f0f565b036114b1576001810190505b600a60306114be83610f0f565b03106114cd576114cc610f01565b5b6114d681610f0f565b600182019150603081146114f3576114f06000888461144e565b91505b602e6114fe83610f0f565b03611515576115126001886001850161144e565b91505b815160658160001a60201703611544576115416001896001860162010001600e8660011a031a0161144e565b92505b611552600384898989610f8a565b9350505094509492505050565b600060405190508282019150601f1980601f8601165b60011561158f578084015181840152818101905080611575575b50848252600085602084010152846040830101604052509392505050565b6000606090508151600281600716116116995782158115176116995760208116156115e4576115dd603882610f77565b9150611699565b6040519150602082016115f8603883610f77565b5b801561162d57808252805161160f601882610f77565b61161b87601884610f54565b835280925060208401935050506115f9565b50601f1983820381018060051c85528260405261164c85603886610f54565b93508360201786526040811061169557602085018186015b60011561169257815181518352808252848201915060208301925081831061168c5750611692565b50611664565b50505b5050505b50919050565b60006060905081518015831517156116b757506116fe565b6116c18482610f77565b91508086166116fc576116d560d882610f77565b6116e96116e28784610f77565b848361155f565b92506116f6838684610f54565b87178452505b505b949350505050565b816000811461177f576001811461179557600381146117ab5760208401845181018082146117645761173781610f0f565b6022825361174b8760d8602260f81b610f54565b60005261175b828460008a610fc6565b93509450808253505b8315818310171561177857611777610f01565b5b50506117b7565b61178e6010607860588761169f565b91506117b7565b6117a4600860b860988761169f565b91506117b7565b6117b4846115ad565b91505b5092915050565b60007f30000000000000000000000000000000000000000000000000000000000000007effffffffffffffffffffffffffffffffffffffffffffffffffffffffffffff19168260f81b7effffffffffffffffffffffffffffffffffffffffffffffffffffffffffffff19161015801561189e57507f39000000000000000000000000000000000000000000000000000000000000007effffffffffffffffffffffffffffffffffffffffffffffffffffffffffffff19168260f81b7effffffffffffffffffffffffffffffffffffffffffffffffffffffffffffff191611155b156118d9577f300000000000000000000000000000000000000000000000000000000000000060f81c826118d2919061301a565b9050611b5e565b7f61000000000000000000000000000000000000000000000000000000000000007effffffffffffffffffffffffffffffffffffffffffffffffffffffffffffff19168260f81b7effffffffffffffffffffffffffffffffffffffffffffffffffffffffffffff1916101580156119b757507f66000000000000000000000000000000000000000000000000000000000000007effffffffffffffffffffffffffffffffffffffffffffffffffffffffffffff19168260f81b7effffffffffffffffffffffffffffffffffffffffffffffffffffffffffffff191611155b156119fe577f610000000000000000000000000000000000000000000000000000000000000060f81c82600a6119ed9190612c14565b6119f7919061301a565b9050611b5e565b7f41000000000000000000000000000000000000000000000000000000000000007effffffffffffffffffffffffffffffffffffffffffffffffffffffffffffff19168260f81b7effffffffffffffffffffffffffffffffffffffffffffffffffffffffffffff191610158015611adc57507f46000000000000000000000000000000000000000000000000000000000000007effffffffffffffffffffffffffffffffffffffffffffffffffffffffffffff19168260f81b7effffffffffffffffffffffffffffffffffffffffffffffffffffffffffffff191611155b15611b23577f410000000000000000000000000000000000000000000000000000000000000060f81c82600a611b129190612c14565b611b1c919061301a565b9050611b5e565b6040517f08c379a0000000000000000000000000000000000000000000000000000000008152600401611b559061309a565b60405180910390fd5b919050565b6000819050919050565b6000600260ff166007836000015116149050919050565b60606000611b9b611b9484610ef0565b6003610efa565b905080915050919050565b60606000608083600001511614611bd3576000611bcc611bc584610ef0565b6001610efa565b9050809150505b919050565b60606040519050608081016040526f30313233343536373839616263646566600f526002810190506028815260208101600060288201528260601b925060005b600115611c5457808101820184821a600f81165160018301538060041c51825360018301925060148303611c4d575050611c54565b5050611c18565b5050919050565b6040518060200160405280600081525090565b6040518060c0016040528060608152602001606081526020016060815260200160608152602001600015158152602001600067ffffffffffffffff1681525090565b6000604051905090565b600080fd5b600080fd5b600073ffffffffffffffffffffffffffffffffffffffff82169050919050565b6000611cef82611cc4565b9050919050565b611cff81611ce4565b8114611d0a57600080fd5b50565b600081359050611d1c81611cf6565b92915050565b600080fd5b600080fd5b6000601f19601f8301169050919050565b7f4e487b7100000000000000000000000000000000000000000000000000000000600052604160045260246000fd5b611d7582611d2c565b810181811067ffffffffffffffff82111715611d9457611d93611d3d565b5b80604052505050565b6000611da7611cb0565b9050611db38282611d6c565b919050565b600067ffffffffffffffff821115611dd357611dd2611d3d565b5b611ddc82611d2c565b9050602081019050919050565b82818337600083830152505050565b6000611e0b611e0684611db8565b611d9d565b905082815260208101848484011115611e2757611e26611d27565b5b611e32848285611de9565b509392505050565b600082601f830112611e4f57611e4e611d22565b5b8135611e5f848260208601611df8565b91505092915050565b60008060408385031215611e7f57611e7e611cba565b5b6000611e8d85828601611d0d565b925050602083013567ffffffffffffffff811115611eae57611ead611cbf565b5b611eba85828601611e3a565b9150509250929050565b600081519050919050565b600082825260208201905092915050565b60005b83811015611efe578082015181840152602081019050611ee3565b83811115611f0d576000848401525b50505050565b6000611f1e82611ec4565b611f288185611ecf565b9350611f38818560208601611ee0565b611f4181611d2c565b840191505092915050565b60006020820190508181036000830152611f668184611f13565b905092915050565b600060208284031215611f8457611f83611cba565b5b6000611f9284828501611d0d565b91505092915050565b6000819050919050565b611fae81611f9b565b82525050565b6000602082019050611fc96000830184611fa5565b92915050565b600067ffffffffffffffff821115611fea57611fe9611d3d565b5b602082029050602081019050919050565b600080fd5b600080fd5b600080fd5b6000604082840312156120205761201f612000565b5b61202a6040611d9d565b9050600061203a84828501611d0d565b600083015250602082013567ffffffffffffffff81111561205e5761205d612005565b5b61206a84828501611e3a565b60208301525092915050565b600061208961208484611fcf565b611d9d565b905080838252602082019050602084028301858111156120ac576120ab611ffb565b5b835b818110156120f357803567ffffffffffffffff8111156120d1576120d0611d22565b5b8086016120de898261200a565b855260208501945050506020810190506120ae565b5050509392505050565b600082601f83011261211257612111611d22565b5b8135612122848260208601612076565b91505092915050565b60008060006060848603121561214457612143611cba565b5b600061215286828701611d0d565b935050602084013567ffffffffffffffff81111561217357612172611cbf565b5b61217f86828701611e3a565b925050604084013567ffffffffffffffff8111156121a05761219f611cbf565b5b6121ac868287016120fd565b9150509250925092565b600067ffffffffffffffff8211156121d1576121d0611d3d565b5b6121da82611d2c565b9050602081019050919050565b60006121fa6121f5846121b6565b611d9d565b90508281526020810184848401111561221657612215611d27565b5b612221848285611de9565b509392505050565b600082601f83011261223e5761223d611d22565b5b813561224e8482602086016121e7565b91505092915050565b60006020828403121561226d5761226c611cba565b5b600082013567ffffffffffffffff81111561228b5761228a611cbf565b5b61229784828501612229565b91505092915050565b6122a981611f9b565b82525050565b6020820160008201516122c560008501826122a0565b50505050565b60006020820190506122e060008301846122af565b92915050565b600081905092915050565b7f7b226a736f6e727063223a22322e30222c226d6574686f64223a226574685f6360008201527f616c6c222c22706172616d73223a5b7b22746f223a2200000000000000000000602082015250565b600061234d6036836122e6565b9150612358826122f1565b603682019050919050565b600081519050919050565b600061237982612363565b61238381856122e6565b9350612393818560208601611ee0565b80840191505092915050565b7f222c2264617461223a2200000000000000000000000000000000000000000000600082015250565b60006123d5600a836122e6565b91506123e08261239f565b600a82019050919050565b7f227d2c226c6174657374225d2c226964223a317d000000000000000000000000600082015250565b60006124216014836122e6565b915061242c826123eb565b601482019050919050565b600061244282612340565b915061244e828561236e565b9150612459826123c8565b9150612465828461236e565b915061247082612414565b91508190509392505050565b7f7b226a736f6e727063223a22322e30222c226d6574686f64223a226574685f6760008201527f65745472616e73616374696f6e436f756e74222c22706172616d73223a5b2200602082015250565b60006124d8603f836122e6565b91506124e38261247c565b603f82019050919050565b7f222c226c6174657374225d2c226964223a317d00000000000000000000000000600082015250565b60006125246013836122e6565b915061252f826124ee565b601382019050919050565b6000612545826124cb565b9150612551828461236e565b915061255c82612517565b915081905092915050565b7f227d2c226c6174657374222c7b00000000000000000000000000000000000000600082015250565b600061259d600d836122e6565b91506125a882612567565b600d82019050919050565b60006125be82612340565b91506125ca828561236e565b91506125d5826123c8565b91506125e1828461236e565b91506125ec82612590565b91508190509392505050565b7f4e487b7100000000000000000000000000000000000000000000000000000000600052603260045260246000fd5b600081905092915050565b600061263d82611ec4565b6126478185612627565b9350612657818560208601611ee0565b80840191505092915050565b7f2200000000000000000000000000000000000000000000000000000000000000600082015250565b60006126996001836122e6565b91506126a482612663565b600182019050919050565b7f223a207b22636f6465223a202200000000000000000000000000000000000000600082015250565b60006126e5600d836122e6565b91506126f0826126af565b600d82019050919050565b7f227d000000000000000000000000000000000000000000000000000000000000600082015250565b60006127316002836122e6565b915061273c826126fb565b600282019050919050565b60006127538286612632565b915061275e8261268c565b915061276a828561236e565b9150612775826126d8565b9150612781828461236e565b915061278c82612724565b9150819050949350505050565b7f4e487b7100000000000000000000000000000000000000000000000000000000600052601160045260246000fd5b60006127d382611f9b565b91506127de83611f9b565b9250828210156127f1576127f0612799565b5b828203905092915050565b7f2c00000000000000000000000000000000000000000000000000000000000000600082015250565b60006128326001836122e6565b915061283d826127fc565b600182019050919050565b60006128548284612632565b915061285f82612825565b915081905092915050565b600061287582611f9b565b91507fffffffffffffffffffffffffffffffffffffffffffffffffffffffffffffffff82036128a7576128a6612799565b5b600182019050919050565b7f7d5d2c226964223a317d00000000000000000000000000000000000000000000600082015250565b60006128e8600a836122e6565b91506128f3826128b2565b600a82019050919050565b600061290a8284612632565b9150612915826128db565b915081905092915050565b7f4e487b7100000000000000000000000000000000000000000000000000000000600052602260045260246000fd5b6000600282049050600182168061296757607f821691505b60208210810361297a57612979612920565b5b50919050565b600082825260208201905092915050565b600061299c82612363565b6129a68185612980565b93506129b6818560208601611ee0565b6129bf81611d2c565b840191505092915050565b600060208201905081810360008301526129e48184612991565b905092915050565b7f7b226a736f6e727063223a22322e30222c226d6574686f64223a226574685f6760008201527f657442616c616e6365222c22706172616d73223a5b2200000000000000000000602082015250565b6000612a486036836122e6565b9150612a53826129ec565b603682019050919050565b6000612a6982612a3b565b9150612a75828461236e565b9150612a8082612517565b915081905092915050565b7f4e487b7100000000000000000000000000000000000000000000000000000000600052601260045260246000fd5b6000612ac582611f9b565b9150612ad083611f9b565b925082612ae057612adf612a8b565b5b828206905092915050565b6000612af682611f9b565b9150612b0183611f9b565b925082612b1157612b10612a8b565b5b828204905092915050565b6000612b2782611f9b565b9150612b3283611f9b565b9250817fffffffffffffffffffffffffffffffffffffffffffffffffffffffffffffffff0483118215151615612b6b57612b6a612799565b5b828202905092915050565b6000612b8182611f9b565b9150612b8c83611f9b565b9250827fffffffffffffffffffffffffffffffffffffffffffffffffffffffffffffffff03821115612bc157612bc0612799565b5b828201905092915050565b600060ff82169050919050565b6000612be482612bcc565b9150612bef83612bcc565b92508160ff0483118215151615612c0957612c08612799565b5b828202905092915050565b6000612c1f82612bcc565b9150612c2a83612bcc565b92508260ff03821115612c4057612c3f612799565b5b828201905092915050565b7f496e76616c696420696e70757400000000000000000000000000000000000000600082015250565b6000612c81600d83612980565b9150612c8c82612c4b565b602082019050919050565b60006020820190508181036000830152612cb081612c74565b9050919050565b600082825260208201905092915050565b6000612cd382612363565b612cdd8185612cb7565b9350612ced818560208601611ee0565b612cf681611d2c565b840191505092915050565b600081519050919050565b600082825260208201905092915050565b6000819050602082019050919050565b6000612d398383612cc8565b905092915050565b6000602082019050919050565b6000612d5982612d01565b612d638185612d0c565b935083602082028501612d7585612d1d565b8060005b85811015612db15784840389528151612d928582612d2d565b9450612d9d83612d41565b925060208a01995050600181019050612d79565b50829750879550505050505092915050565b600082825260208201905092915050565b6000612ddf82611ec4565b612de98185612dc3565b9350612df9818560208601611ee0565b612e0281611d2c565b840191505092915050565b60008115159050919050565b612e2281612e0d565b82525050565b600067ffffffffffffffff82169050919050565b612e4581612e28565b82525050565b600060c0830160008301518482036000860152612e688282612cc8565b91505060208301518482036020860152612e828282612cc8565b91505060408301518482036040860152612e9c8282612d4e565b91505060608301518482036060860152612eb68282612dd4565b9150506080830151612ecb6080860182612e19565b5060a0830151612ede60a0860182612e3c565b508091505092915050565b60006020820190508181036000830152612f038184612e4b565b905092915050565b6000612f178284612632565b915081905092915050565b612f2b81611ce4565b82525050565b6000604082019050612f466000830185612f22565b8181036020830152612f588184611f13565b90509392505050565b6000612f74612f6f84611db8565b611d9d565b905082815260208101848484011115612f9057612f8f611d27565b5b612f9b848285611ee0565b509392505050565b600082601f830112612fb857612fb7611d22565b5b8151612fc8848260208601612f61565b91505092915050565b600060208284031215612fe757612fe6611cba565b5b600082015167ffffffffffffffff81111561300557613004611cbf565b5b61301184828501612fa3565b91505092915050565b600061302582612bcc565b915061303083612bcc565b92508282101561304357613042612799565b5b828203905092915050565b7f6661696c00000000000000000000000000000000000000000000000000000000600082015250565b6000613084600483612980565b915061308f8261304e565b602082019050919050565b600060208201905081810360008301526130b381613077565b905091905056fea2646970667358221220047d3cc7e96fae9687c856b22d158ed3dcd47479f7a7da1c249c0c342a8fcd0864736f6c634300080d0033",
  "devdoc": {
    "kind": "dev",
    "methods": {},
    "version": 1
  },
  "userdoc": {
    "kind": "user",
    "methods": {},
    "version": 1
  },
  "storageLayout": {
    "storage": [
      {
        "astId": 61,
        "contract": "contracts/Auction.sol:TokenAuction",
        "label": "genericPeekers",
        "offset": 0,
        "slot": "0",
        "type": "t_array(t_address)dyn_storage"
      },
      {
        "astId": 66,
        "contract": "contracts/Auction.sol:TokenAuction",
        "label": "pkDataId",
        "offset": 0,
        "slot": "1",
        "type": "t_userDefinedValueType(DataId)10331"
      },
      {
        "astId": 68,
        "contract": "contracts/Auction.sol:TokenAuction",
        "label": "auctionMaster",
        "offset": 0,
        "slot": "2",
        "type": "t_address"
      },
      {
        "astId": 72,
        "contract": "contracts/Auction.sol:TokenAuction",
        "label": "auctions",
        "offset": 0,
        "slot": "3",
        "type": "t_array(t_struct(Auction)1402_storage)dyn_storage"
      },
      {
        "astId": 74,
        "contract": "contracts/Auction.sol:TokenAuction",
        "label": "isInitialized",
        "offset": 0,
        "slot": "4",
        "type": "t_bool"
      },
      {
        "astId": 77,
        "contract": "contracts/Auction.sol:TokenAuction",
        "label": "settlementRpc",
        "offset": 1,
        "slot": "4",
        "type": "t_contract(EthJsonRPC)10317"
      }
    ],
    "types": {
      "t_address": {
        "encoding": "inplace",
        "label": "address",
        "numberOfBytes": "20"
      },
      "t_array(t_address)dyn_storage": {
        "base": "t_address",
        "encoding": "dynamic_array",
        "label": "address[]",
        "numberOfBytes": "32"
      },
      "t_array(t_struct(Auction)1402_storage)dyn_storage": {
        "base": "t_struct(Auction)1402_storage",
        "encoding": "dynamic_array",
        "label": "struct Auction[]",
        "numberOfBytes": "32"
      },
      "t_bool": {
        "encoding": "inplace",
        "label": "bool",
        "numberOfBytes": "1"
      },
      "t_bytes32": {
        "encoding": "inplace",
        "label": "bytes32",
        "numberOfBytes": "32"
      },
      "t_contract(EthJsonRPC)10317": {
        "encoding": "inplace",
        "label": "contract EthJsonRPC",
        "numberOfBytes": "20"
      },
      "t_enum(AuctionStatus)1386": {
        "encoding": "inplace",
        "label": "enum AuctionStatus",
        "numberOfBytes": "1"
      },
      "t_struct(Auction)1402_storage": {
        "encoding": "inplace",
        "label": "struct Auction",
        "members": [
          {
            "astId": 1389,
            "contract": "contracts/Auction.sol:TokenAuction",
            "label": "status",
            "offset": 0,
            "slot": "0",
            "type": "t_enum(AuctionStatus)1386"
          },
          {
            "astId": 1391,
            "contract": "contracts/Auction.sol:TokenAuction",
            "label": "bids",
            "offset": 1,
            "slot": "0",
            "type": "t_uint128"
          },
          {
            "astId": 1393,
            "contract": "contracts/Auction.sol:TokenAuction",
            "label": "payoutAddress",
            "offset": 0,
            "slot": "1",
            "type": "t_address"
          },
          {
            "astId": 1395,
            "contract": "contracts/Auction.sol:TokenAuction",
            "label": "hashedToken",
            "offset": 0,
            "slot": "2",
            "type": "t_bytes32"
          },
          {
            "astId": 1397,
            "contract": "contracts/Auction.sol:TokenAuction",
            "label": "until",
            "offset": 0,
            "slot": "3",
            "type": "t_uint64"
          },
          {
            "astId": 1399,
            "contract": "contracts/Auction.sol:TokenAuction",
            "label": "payoutCollectionDuration",
            "offset": 8,
            "slot": "3",
            "type": "t_uint64"
          },
          {
            "astId": 1401,
            "contract": "contracts/Auction.sol:TokenAuction",
            "label": "auctioneer",
            "offset": 0,
            "slot": "4",
            "type": "t_address"
          }
        ],
        "numberOfBytes": "160"
      },
      "t_uint128": {
        "encoding": "inplace",
        "label": "uint128",
        "numberOfBytes": "16"
      },
      "t_uint64": {
        "encoding": "inplace",
        "label": "uint64",
        "numberOfBytes": "8"
      },
      "t_userDefinedValueType(DataId)10331": {
        "encoding": "inplace",
        "label": "Suave.DataId",
        "numberOfBytes": "16"
      }
    }
  }
}