{
  "address": "0x4550de58A9a83c99EA5229585682547f68628A92",
  "abi": [
    {
      "inputs": [
        {
          "internalType": "address",
          "name": "_vault",
          "type": "address"
        },
        {
          "internalType": "string",
          "name": "_settlementChainRpc",
          "type": "string"
        }
      ],
      "stateMutability": "nonpayable",
      "type": "constructor"
    },
    {
      "inputs": [
        {
          "internalType": "address",
          "name": "",
          "type": "address"
        },
        {
          "internalType": "bytes",
          "name": "",
          "type": "bytes"
        }
      ],
      "name": "PeekerReverted",
      "type": "error"
    },
    {
      "inputs": [
        {
          "internalType": "string",
          "name": "message",
          "type": "string"
        }
      ],
      "name": "SuaveError",
      "type": "error"
    },
    {
      "inputs": [
        {
          "internalType": "string",
          "name": "message",
          "type": "string"
        },
        {
          "internalType": "bytes",
          "name": "data",
          "type": "bytes"
        }
      ],
      "name": "SuaveErrorWithData",
      "type": "error"
    },
    {
      "anonymous": false,
      "inputs": [
        {
          "indexed": true,
          "internalType": "uint256",
          "name": "auctionId",
          "type": "uint256"
        }
      ],
      "name": "AuctionCancelled",
      "type": "event"
    },
    {
      "anonymous": false,
      "inputs": [
        {
          "indexed": true,
          "internalType": "uint256",
          "name": "auctionId",
          "type": "uint256"
        },
        {
          "indexed": true,
          "internalType": "address",
          "name": "auctioneer",
          "type": "address"
        },
        {
          "indexed": true,
          "internalType": "bytes32",
          "name": "hashedToken",
          "type": "bytes32"
        },
        {
          "indexed": false,
          "internalType": "address",
          "name": "payoutAddress",
          "type": "address"
        },
        {
          "indexed": false,
          "internalType": "uint64",
          "name": "until",
          "type": "uint64"
        },
        {
          "indexed": false,
          "internalType": "uint64",
          "name": "payoutCollectionDuration",
          "type": "uint64"
        }
      ],
      "name": "AuctionCreated",
      "type": "event"
    },
    {
      "anonymous": false,
      "inputs": [
        {
          "indexed": true,
          "internalType": "uint16",
          "name": "auctionId",
          "type": "uint16"
        },
        {
          "indexed": false,
          "internalType": "uint32",
          "name": "winningBidId",
          "type": "uint32"
        },
        {
          "components": [
            {
              "internalType": "address",
              "name": "vault",
              "type": "address"
            },
            {
              "internalType": "address",
              "name": "taker",
              "type": "address"
            },
            {
              "internalType": "uint16",
              "name": "paymentNonce",
              "type": "uint16"
            },
            {
              "internalType": "address",
              "name": "account",
              "type": "address"
            },
            {
              "internalType": "uint256",
              "name": "amount",
              "type": "uint256"
            }
          ],
          "indexed": false,
          "internalType": "struct AuctionPayout",
          "name": "payout",
          "type": "tuple"
        },
        {
          "indexed": false,
          "internalType": "bytes",
          "name": "payoutSig",
          "type": "bytes"
        }
      ],
      "name": "AuctionSettled",
      "type": "event"
    },
    {
      "anonymous": false,
      "inputs": [
        {
          "indexed": true,
          "internalType": "uint16",
          "name": "auctionId",
          "type": "uint16"
        },
        {
          "indexed": true,
          "internalType": "uint32",
          "name": "bidId",
          "type": "uint32"
        },
        {
          "indexed": true,
          "internalType": "address",
          "name": "bidder",
          "type": "address"
        }
      ],
      "name": "BidPlaced",
      "type": "event"
    },
    {
      "stateMutability": "nonpayable",
      "type": "fallback"
    },
    {
      "inputs": [],
      "name": "auctionMaster",
      "outputs": [
        {
          "internalType": "address",
          "name": "",
          "type": "address"
        }
      ],
      "stateMutability": "view",
      "type": "function"
    },
    {
      "inputs": [
        {
          "internalType": "uint256",
          "name": "",
          "type": "uint256"
        }
      ],
      "name": "auctions",
      "outputs": [
        {
          "internalType": "address",
          "name": "payoutAddress",
          "type": "address"
        },
        {
          "internalType": "enum AuctionStatus",
          "name": "status",
          "type": "uint8"
        },
        {
          "internalType": "Suave.DataId",
          "name": "tokenDataId",
          "type": "bytes16"
        },
        {
          "internalType": "bytes32",
          "name": "hashedToken",
          "type": "bytes32"
        },
        {
          "internalType": "uint32",
          "name": "bids",
          "type": "uint32"
        },
        {
          "internalType": "uint64",
          "name": "until",
          "type": "uint64"
        },
        {
          "internalType": "uint64",
          "name": "payoutCollectionDuration",
          "type": "uint64"
        },
        {
          "internalType": "address",
          "name": "auctioneer",
          "type": "address"
        },
        {
          "internalType": "address",
          "name": "winner",
          "type": "address"
        }
      ],
      "stateMutability": "view",
      "type": "function"
    },
    {
      "inputs": [
        {
          "internalType": "uint256",
          "name": "auctionId",
          "type": "uint256"
        }
      ],
      "name": "cancelAuction",
      "outputs": [],
      "stateMutability": "nonpayable",
      "type": "function"
    },
    {
      "inputs": [
        {
          "internalType": "uint16",
          "name": "auctionId",
          "type": "uint16"
        },
        {
          "internalType": "address",
          "name": "bidder",
          "type": "address"
        },
        {
          "internalType": "uint256",
          "name": "bidAmount",
          "type": "uint256"
        }
      ],
      "name": "checkBidValidity",
      "outputs": [],
      "stateMutability": "nonpayable",
      "type": "function"
    },
    {
      "inputs": [
        {
          "internalType": "uint16",
          "name": "auctionId",
          "type": "uint16"
        }
      ],
      "name": "claimToken",
      "outputs": [],
      "stateMutability": "nonpayable",
      "type": "function"
    },
    {
      "inputs": [],
      "name": "confidentialConstructor",
      "outputs": [
        {
          "internalType": "bytes",
          "name": "",
          "type": "bytes"
        }
      ],
      "stateMutability": "nonpayable",
      "type": "function"
    },
    {
      "inputs": [
        {
          "internalType": "Suave.DataId",
          "name": "_pkDataId",
          "type": "bytes16"
        },
        {
          "internalType": "Suave.DataId",
          "name": "_bidCountDataId",
          "type": "bytes16"
        },
        {
          "internalType": "address",
          "name": "pkAddress",
          "type": "address"
        }
      ],
      "name": "confidentialConstructorCallback",
      "outputs": [],
      "stateMutability": "nonpayable",
      "type": "function"
    },
    {
      "inputs": [
        {
          "components": [
            {
              "internalType": "uint64",
              "name": "auctionDuration",
              "type": "uint64"
            },
            {
              "internalType": "uint64",
              "name": "payoutCollectionDuration",
              "type": "uint64"
            },
            {
              "internalType": "address",
              "name": "payoutAddress",
              "type": "address"
            }
          ],
          "internalType": "struct NewAuctionArgs",
          "name": "auctionArgs",
          "type": "tuple"
        }
      ],
      "name": "createAuction",
      "outputs": [
        {
          "internalType": "bytes",
          "name": "",
          "type": "bytes"
        }
      ],
      "stateMutability": "nonpayable",
      "type": "function"
    },
    {
      "inputs": [
        {
          "components": [
            {
              "internalType": "uint64",
              "name": "auctionDuration",
              "type": "uint64"
            },
            {
              "internalType": "uint64",
              "name": "payoutCollectionDuration",
              "type": "uint64"
            },
            {
              "internalType": "address",
              "name": "payoutAddress",
              "type": "address"
            }
          ],
          "internalType": "struct NewAuctionArgs",
          "name": "auctionArgs",
          "type": "tuple"
        },
        {
          "internalType": "bytes32",
          "name": "tokenHash",
          "type": "bytes32"
        },
        {
          "internalType": "address",
          "name": "auctioneer",
          "type": "address"
        },
        {
          "internalType": "Suave.DataId",
          "name": "tokenDataId",
          "type": "bytes16"
        }
      ],
      "name": "createAuctionCallback",
      "outputs": [],
      "stateMutability": "nonpayable",
      "type": "function"
    },
    {
      "inputs": [
        {
          "internalType": "address",
          "name": "user",
          "type": "address"
        },
        {
          "internalType": "uint256",
          "name": "amount",
          "type": "uint256"
        },
        {
          "internalType": "uint256",
          "name": "auctionEndPlusClaimTime",
          "type": "uint256"
        }
      ],
      "name": "hasUserSufficientFunds",
      "outputs": [
        {
          "internalType": "bool",
          "name": "",
          "type": "bool"
        }
      ],
      "stateMutability": "nonpayable",
      "type": "function"
    },
    {
      "inputs": [],
      "name": "isInitialized",
      "outputs": [
        {
          "internalType": "bool",
          "name": "",
          "type": "bool"
        }
      ],
      "stateMutability": "view",
      "type": "function"
    },
    {
      "inputs": [
        {
          "internalType": "uint16",
          "name": "auctionId",
          "type": "uint16"
        }
      ],
      "name": "settleAuction",
      "outputs": [
        {
          "internalType": "bytes",
          "name": "",
          "type": "bytes"
        }
      ],
      "stateMutability": "nonpayable",
      "type": "function"
    },
    {
      "inputs": [
        {
          "internalType": "uint16",
          "name": "auctionId",
          "type": "uint16"
        },
        {
          "internalType": "uint32",
          "name": "winningBidId",
          "type": "uint32"
        },
        {
          "internalType": "address",
          "name": "winningBidder",
          "type": "address"
        },
        {
          "components": [
            {
              "internalType": "address",
              "name": "vault",
              "type": "address"
            },
            {
              "internalType": "address",
              "name": "taker",
              "type": "address"
            },
            {
              "internalType": "uint16",
              "name": "paymentNonce",
              "type": "uint16"
            },
            {
              "internalType": "address",
              "name": "account",
              "type": "address"
            },
            {
              "internalType": "uint256",
              "name": "amount",
              "type": "uint256"
            }
          ],
          "internalType": "struct AuctionPayout",
          "name": "payout",
          "type": "tuple"
        },
        {
          "internalType": "bytes",
          "name": "payoutSig",
          "type": "bytes"
        }
      ],
      "name": "settleAuctionCallback",
      "outputs": [],
      "stateMutability": "nonpayable",
      "type": "function"
    },
    {
      "inputs": [
        {
          "internalType": "uint16",
          "name": "auctionId",
          "type": "uint16"
        }
      ],
      "name": "submitBid",
      "outputs": [
        {
          "internalType": "bytes",
          "name": "",
          "type": "bytes"
        }
      ],
      "stateMutability": "nonpayable",
      "type": "function"
    },
    {
      "inputs": [
        {
          "internalType": "uint16",
          "name": "auctionId",
          "type": "uint16"
        },
        {
          "internalType": "uint32",
          "name": "bidId",
          "type": "uint32"
        },
        {
          "internalType": "address",
          "name": "bidder",
          "type": "address"
        }
      ],
      "name": "submitBidCallback",
      "outputs": [],
      "stateMutability": "nonpayable",
      "type": "function"
    },
    {
      "inputs": [],
      "name": "vault",
      "outputs": [
        {
          "internalType": "address",
          "name": "",
          "type": "address"
        }
      ],
      "stateMutability": "view",
      "type": "function"
    }
  ],
  "transactionHash": "0xf2da1f990cc1587ecbc1b5d35287d9753f91cedd3c661b87fccfd03a7f5d6306",
  "args": [
    "0x5fef7F0009a0c518183BA6858f10A4982da12a23",
    "https://ethereum-holesky-rpc.publicnode.com"
  ],
  "numDeployments": 2,
  "solcInputHash": "38b5f2d82b52c6e2c6fb5f07fe81ad8a",
  "bytecode": "0x60a0604052604051620000129062000162565b604051809103906000f0801580156200002f573d6000803e3d6000fd5b5073ffffffffffffffffffffffffffffffffffffffff1660809073ffffffffffffffffffffffffffffffffffffffff168152503480156200006f57600080fd5b506040516200a7063803806200a706833981810160405281019062000095919062000380565b8181816000806101000a81548173ffffffffffffffffffffffffffffffffffffffff021916908373ffffffffffffffffffffffffffffffffffffffff16021790555060008183604051620000e99062000170565b620000f692919062000454565b604051809103906000f08015801562000113573d6000803e3d6000fd5b50905080600360016101000a81548173ffffffffffffffffffffffffffffffffffffffff021916908373ffffffffffffffffffffffffffffffffffffffff160217905550505050505062000488565b61266280620044ea83390190565b613bba8062006b4c83390190565b6000604051905090565b600080fd5b600080fd5b600073ffffffffffffffffffffffffffffffffffffffff82169050919050565b6000620001bf8262000192565b9050919050565b620001d181620001b2565b8114620001dd57600080fd5b50565b600081519050620001f181620001c6565b92915050565b600080fd5b600080fd5b6000601f19601f8301169050919050565b7f4e487b7100000000000000000000000000000000000000000000000000000000600052604160045260246000fd5b6200024c8262000201565b810181811067ffffffffffffffff821117156200026e576200026d62000212565b5b80604052505050565b6000620002836200017e565b905062000291828262000241565b919050565b600067ffffffffffffffff821115620002b457620002b362000212565b5b620002bf8262000201565b9050602081019050919050565b60005b83811015620002ec578082015181840152602081019050620002cf565b83811115620002fc576000848401525b50505050565b600062000319620003138462000296565b62000277565b905082815260208101848484011115620003385762000337620001fc565b5b62000345848285620002cc565b509392505050565b600082601f830112620003655762000364620001f7565b5b81516200037784826020860162000302565b91505092915050565b600080604083850312156200039a576200039962000188565b5b6000620003aa85828601620001e0565b925050602083015167ffffffffffffffff811115620003ce57620003cd6200018d565b5b620003dc858286016200034d565b9150509250929050565b600081519050919050565b600082825260208201905092915050565b60006200040f82620003e6565b6200041b8185620003f1565b93506200042d818560208601620002cc565b620004388162000201565b840191505092915050565b6200044e81620001b2565b82525050565b6000604082019050818103600083015262000470818562000402565b905062000481602083018462000443565b9392505050565b60805161400e620004dc6000396000818161077f015281816111d4015281816115b301528181611722015281816117c201528181611c1701528181611cd501528181611de80152611e95015261400e6000f3fe608060405234801561001057600080fd5b50600436106101035760003560e01c80634ca89c2c11610097578063617e3cb711610066578063617e3cb7146102c65780637e48532c146102e257806396b5a75514610300578063fbfa77cf1461031c57610104565b80634ca89c2c14610224578063571a26a0146102425780635bbdb7561461027a5780635e171559146102aa57610104565b80632d144f90116100d35780632d144f901461019e5780632f125731146101ba57806337e6d8f6146101ea578063392e53cd1461020657610104565b8062d23ce81461010657806309f73940146101365780630f3d2a70146101525780631ed55ecc1461016e57610104565b5b005b610120600480360381019061011b9190612531565b61033a565b60405161012d919061259f565b60405180910390f35b610150600480360381019061014b91906125f4565b610405565b005b61016c6004803603810190610167919061285a565b6105ea565b005b61018860048036038101906101839190612997565b6106cc565b6040516101959190612a4c565b60405180910390f35b6101b860048036038101906101b39190612a6e565b6108a1565b005b6101d460048036038101906101cf9190612ac1565b61095d565b6040516101e19190612a4c565b60405180910390f35b61020460048036038101906101ff9190612b7c565b610d80565b005b61020e610f73565b60405161021b919061259f565b60405180910390f35b61022c610f86565b6040516102399190612bf2565b60405180910390f35b61025c60048036038101906102579190612c0d565b610fac565b60405161027199989796959493929190612cff565b60405180910390f35b610294600480360381019061028f9190612ac1565b6110bc565b6040516102a19190612a4c565b60405180910390f35b6102c460048036038101906102bf9190612d8c565b6112e4565b005b6102e060048036038101906102db9190612ac1565b6113e9565b005b6102ea6116b2565b6040516102f79190612a4c565b60405180910390f35b61031a60048036038101906103159190612c0d565b6118e2565b005b610324611a91565b6040516103319190612bf2565b60405180910390f35b6000806000600360019054906101000a900473ffffffffffffffffffffffffffffffffffffffff1673ffffffffffffffffffffffffffffffffffffffff1663f8b2cb4f876040518263ffffffff1660e01b815260040161039a9190612bf2565b60408051808303816000875af11580156103b8573d6000803e3d6000fd5b505050506040513d601f19601f820116820180604052508101906103dc9190612e09565b915091508482101580156103fa5750838167ffffffffffffffff1610155b925050509392505050565b600060028461ffff168154811061041f5761041e612e49565b5b906000526020600020906006020190506000600281111561044357610442612c3a565b5b8160000160149054906101000a900460ff16600281111561046757610466612c3a565b5b146104a7576040517f08c379a000000000000000000000000000000000000000000000000000000000815260040161049e90612ed5565b60405180910390fd5b8060030160049054906101000a900467ffffffffffffffff1667ffffffffffffffff1642111561050c576040517f08c379a000000000000000000000000000000000000000000000000000000000815260040161050390612f41565b60405180910390fd5b6000821161054f576040517f08c379a000000000000000000000000000000000000000000000000000000000815260040161054690612fd3565b60405180910390fd5b60006105a1848484600301600c9054906101000a900467ffffffffffffffff168560030160049054906101000a900467ffffffffffffffff166105929190613022565b67ffffffffffffffff1661033a565b9050806105e3576040517f08c379a00000000000000000000000000000000000000000000000000000000081526004016105da906130ac565b60405180910390fd5b5050505050565b600060028661ffff168154811061060457610603612e49565b5b9060005260206000209060060201905060028160000160146101000a81548160ff0219169083600281111561063c5761063b612c3a565b5b0217905550838160050160006101000a81548173ffffffffffffffffffffffffffffffffffffffff021916908373ffffffffffffffffffffffffffffffffffffffff1602179055508561ffff167f911af55ab638b0215837b0ab0ab963a9b439db2c329ebbf57e981edb1ee8cd4d8685856040516106bc93929190613161565b60405180910390a2505050505050565b60606107146106d9611ab5565b6040518060400160405280601081526020017f4e6f7420636f6e666964656e7469616c00000000000000000000000000000000815250611b7f565b600360009054906101000a900460ff16610763576040517f08c379a000000000000000000000000000000000000000000000000000000000815260040161075a906131eb565b60405180910390fd5b600061076d611bc5565b905060008180519060200120905060007f000000000000000000000000000000000000000000000000000000000000000073ffffffffffffffffffffffffffffffffffffffff1663b8106b56846040518263ffffffff1660e01b81526004016107d69190612a4c565b6020604051808303816000875af11580156107f5573d6000803e3d6000fd5b505050506040513d601f19601f820116820180604052508101906108199190613220565b90506337e6d8f660e01b8583338460405160240161083a949392919061329e565b604051602081830303815290604052907bffffffffffffffffffffffffffffffffffffffffffffffffffffffff19166020820180517bffffffffffffffffffffffffffffffffffffffffffffffffffffffff83818316178352505050509350505050919050565b60028361ffff16815481106108b9576108b8612e49565b5b9060005260206000209060060201600301600081819054906101000a900463ffffffff16809291906108ea906132e3565b91906101000a81548163ffffffff021916908363ffffffff160217905550508073ffffffffffffffffffffffffffffffffffffffff168263ffffffff168461ffff167f5fcb419af364578136edb4adbd64aff3d15c2301b8a8a7af01d49f82f82dfcb860405160405180910390a4505050565b60606109a561096a611ab5565b6040518060400160405280601081526020017f4e6f7420636f6e666964656e7469616c00000000000000000000000000000000815250611b7f565b600360009054906101000a900460ff166109f4576040517f08c379a00000000000000000000000000000000000000000000000000000000081526004016109eb906131eb565b60405180910390fd5b600060028361ffff1681548110610a0e57610a0d612e49565b5b9060005260206000209060060201905060006002811115610a3257610a31612c3a565b5b8160000160149054906101000a900460ff166002811115610a5657610a55612c3a565b5b14610a96576040517f08c379a0000000000000000000000000000000000000000000000000000000008152600401610a8d90612ed5565b60405180910390fd5b8060030160049054906101000a900467ffffffffffffffff1667ffffffffffffffff164211610afa576040517f08c379a0000000000000000000000000000000000000000000000000000000008152600401610af19061335b565b60405180910390fd5b60008160030160009054906101000a900463ffffffff1663ffffffff1611610b57576040517f08c379a0000000000000000000000000000000000000000000000000000000008152600401610b4e906133c7565b60405180910390fd5b600080610b6385611c0a565b9150915060006040518060a0016040528060008054906101000a900473ffffffffffffffffffffffffffffffffffffffff1673ffffffffffffffffffffffffffffffffffffffff1681526020018560000160009054906101000a900473ffffffffffffffffffffffffffffffffffffffff1673ffffffffffffffffffffffffffffffffffffffff168152602001600360019054906101000a900473ffffffffffffffffffffffffffffffffffffffff1673ffffffffffffffffffffffffffffffffffffffff1663aa43ef568760000160009054906101000a900473ffffffffffffffffffffffffffffffffffffffff166040518263ffffffff1660e01b8152600401610c6f9190612bf2565b6020604051808303816000875af1158015610c8e573d6000803e3d6000fd5b505050506040513d601f19601f82011682018060405250810190610cb291906133fc565b61ffff168152602001846020015173ffffffffffffffffffffffffffffffffffffffff1681526020018381525090506000610cec82611ccf565b9050630f3d2a7060e01b87856000015186602001518585604051602401610d17959493929190613438565b604051602081830303815290604052907bffffffffffffffffffffffffffffffffffffffffffffffffffffffff19166020820180517bffffffffffffffffffffffffffffffffffffffffffffffffffffffff838183161783525050505095505050505050919050565b6000846000015142610d929190613022565b905060006002600181600181540180825580915050039060005260206000209060060201905060008160000160146101000a81548160ff02191690836002811115610de057610ddf612c3a565b5b021790555085604001518160000160006101000a81548173ffffffffffffffffffffffffffffffffffffffff021916908373ffffffffffffffffffffffffffffffffffffffff160217905550848160020181905550818160030160046101000a81548167ffffffffffffffff021916908367ffffffffffffffff160217905550856020015181600301600c6101000a81548167ffffffffffffffff021916908367ffffffffffffffff160217905550838160040160006101000a81548173ffffffffffffffffffffffffffffffffffffffff021916908373ffffffffffffffffffffffffffffffffffffffff160217905550828160010160006101000a8154816fffffffffffffffffffffffffffffffff021916908360801c0217905550848473ffffffffffffffffffffffffffffffffffffffff166001600280549050610f289190613494565b7f216b9e3e12e47255d565cd84569baa0c9998c971b9b8631c092eea22c8ed9e338960400151868b60200151604051610f63939291906134c8565b60405180910390a4505050505050565b600360009054906101000a900460ff1681565b600160009054906101000a900473ffffffffffffffffffffffffffffffffffffffff1681565b60028181548110610fbc57600080fd5b90600052602060002090600602016000915090508060000160009054906101000a900473ffffffffffffffffffffffffffffffffffffffff16908060000160149054906101000a900460ff16908060010160009054906101000a900460801b908060020154908060030160009054906101000a900463ffffffff16908060030160049054906101000a900467ffffffffffffffff169080600301600c9054906101000a900467ffffffffffffffff16908060040160009054906101000a900473ffffffffffffffffffffffffffffffffffffffff16908060050160009054906101000a900473ffffffffffffffffffffffffffffffffffffffff16905089565b60606111046110c9611ab5565b6040518060400160405280601081526020017f4e6f7420636f6e666964656e7469616c00000000000000000000000000000000815250611b7f565b600360009054906101000a900460ff16611153576040517f08c379a000000000000000000000000000000000000000000000000000000000815260040161114a906131eb565b60405180910390fd5b600061115d611bc5565b80602001905181019061117091906134ff565b90506000339050611182848284610405565b600061119585611190611de4565b611f3e565b9050600060405180606001604052808363ffffffff1681526020018473ffffffffffffffffffffffffffffffffffffffff1681526020018581525090507f000000000000000000000000000000000000000000000000000000000000000073ffffffffffffffffffffffffffffffffffffffff166342bef59b82886040518363ffffffff1660e01b815260040161122d92919061357d565b600060405180830381600087803b15801561124757600080fd5b505af115801561125b573d6000803e3d6000fd5b50505050632d144f9060e01b86838560405160240161127c939291906135a6565b604051602081830303815290604052907bffffffffffffffffffffffffffffffffffffffffffffffffffffffff19166020820180517bffffffffffffffffffffffffffffffffffffffffffffffffffffffff8381831617835250505050945050505050919050565b600360009054906101000a900460ff1615611334576040517f08c379a000000000000000000000000000000000000000000000000000000000815260040161132b90613629565b60405180910390fd5b81600460106101000a8154816fffffffffffffffffffffffffffffffff021916908360801c021790555082600460006101000a8154816fffffffffffffffffffffffffffffffff021916908360801c021790555080600160006101000a81548173ffffffffffffffffffffffffffffffffffffffff021916908373ffffffffffffffffffffffffffffffffffffffff1602179055506001600360006101000a81548160ff021916908315150217905550505050565b61142f6113f4611ab5565b6040518060400160405280601081526020017f4e6f7420636f6e666964656e7469616c00000000000000000000000000000000815250611b7f565b600360009054906101000a900460ff1661147e576040517f08c379a0000000000000000000000000000000000000000000000000000000008152600401611475906131eb565b60405180910390fd5b600060028261ffff168154811061149857611497612e49565b5b906000526020600020906006020190506002808111156114bb576114ba612c3a565b5b8160000160149054906101000a900460ff1660028111156114df576114de612c3a565b5b1461151f576040517f08c379a000000000000000000000000000000000000000000000000000000000815260040161151690613695565b60405180910390fd5b3373ffffffffffffffffffffffffffffffffffffffff168160050160009054906101000a900473ffffffffffffffffffffffffffffffffffffffff1673ffffffffffffffffffffffffffffffffffffffff16146115b1576040517f08c379a00000000000000000000000000000000000000000000000000000000081526004016115a890613701565b60405180910390fd5b7f000000000000000000000000000000000000000000000000000000000000000073ffffffffffffffffffffffffffffffffffffffff1663986d666f8260010160009054906101000a900460801b6040518263ffffffff1660e01b815260040161161b9190613721565b6000604051808303816000875af115801561163a573d6000803e3d6000fd5b505050506040513d6000823e3d601f19601f8201168201806040525081019061166391906137ac565b8060200190518101906116769190613896565b6040517f08c379a00000000000000000000000000000000000000000000000000000000081526004016116a99190613923565b60405180910390fd5b6060611703600360009054906101000a900460ff16156040518060400160405280601381526020017f416c726561647920696e697469616c697a656400000000000000000000000000815250611b7f565b600061170f6000611f57565b9050600061171c82612050565b905060007f000000000000000000000000000000000000000000000000000000000000000073ffffffffffffffffffffffffffffffffffffffff16634faac5af846040518263ffffffff1660e01b81526004016117799190612a4c565b6020604051808303816000875af1158015611798573d6000803e3d6000fd5b505050506040513d601f19601f820116820180604052508101906117bc9190613220565b905060007f000000000000000000000000000000000000000000000000000000000000000073ffffffffffffffffffffffffffffffffffffffff16634fb6aefa60006040518263ffffffff1660e01b815260040161181a919061398a565b6020604051808303816000875af1158015611839573d6000803e3d6000fd5b505050506040513d601f19601f8201168201806040525081019061185d9190613220565b9050635e17155960e01b82828560405160240161187c939291906139a5565b604051602081830303815290604052907bffffffffffffffffffffffffffffffffffffffffffffffffffffffff19166020820180517bffffffffffffffffffffffffffffffffffffffffffffffffffffffff838183161783525050505094505050505090565b6000600282815481106118f8576118f7612e49565b5b906000526020600020906006020190503373ffffffffffffffffffffffffffffffffffffffff168160040160009054906101000a900473ffffffffffffffffffffffffffffffffffffffff1673ffffffffffffffffffffffffffffffffffffffff161461199a576040517f08c379a000000000000000000000000000000000000000000000000000000000815260040161199190613a28565b60405180910390fd5b600060028111156119ae576119ad612c3a565b5b8160000160149054906101000a900460ff1660028111156119d2576119d1612c3a565b5b14611a12576040517f08c379a0000000000000000000000000000000000000000000000000000000008152600401611a0990612ed5565b60405180910390fd5b600160028381548110611a2857611a27612e49565b5b906000526020600020906006020160000160146101000a81548160ff02191690836002811115611a5b57611a5a612c3a565b5b0217905550817f2809c7e17bf978fbc7194c0a694b638c4215e9140cacc6c38ca36010b45697df60405160405180910390a25050565b60008054906101000a900473ffffffffffffffffffffffffffffffffffffffff1681565b6000806000634201000073ffffffffffffffffffffffffffffffffffffffff16604051611ae190613a79565b6000604051808303816000865af19150503d8060008114611b1e576040519150601f19603f3d011682016040523d82523d6000602084013e611b23565b606091505b509150915081611b70576342010000816040517f75fff467000000000000000000000000000000000000000000000000000000008152600401611b67929190613a8e565b60405180910390fd5b80516020820151935050505090565b81611bc157806040517f0c25cd98000000000000000000000000000000000000000000000000000000008152600401611bb89190613923565b60405180910390fd5b5050565b6060611c056040518060400160405280601281526020017f636f6e666964656e7469616c496e7075747300000000000000000000000000008152506120bc565b905090565b611c1261244c565b6000807f000000000000000000000000000000000000000000000000000000000000000073ffffffffffffffffffffffffffffffffffffffff1663f06d3450856040518263ffffffff1660e01b8152600401611c6e9190613abe565b6000604051808303816000875af1158015611c8d573d6000803e3d6000fd5b505050506040513d6000823e3d601f19601f82011682018060405250810190611cb69190613c2f565b9050611cc1816121b5565b809350819450505050915091565b606060007f000000000000000000000000000000000000000000000000000000000000000073ffffffffffffffffffffffffffffffffffffffff16637891d72f600460009054906101000a900460801b6040518263ffffffff1660e01b8152600401611d3b9190613721565b6000604051808303816000875af1158015611d5a573d6000803e3d6000fd5b505050506040513d6000823e3d601f19601f82011682018060405250810190611d839190613896565b9050600083604051602001611d989190613c78565b604051602081830303815290604052805190602001209050611ddb81604051602001611dc49190613cb4565b604051602081830303815290604052600084612249565b92505050919050565b60007f000000000000000000000000000000000000000000000000000000000000000073ffffffffffffffffffffffffffffffffffffffff1663e596febd600460109054906101000a900460801b6040518263ffffffff1660e01b8152600401611e4e9190613721565b6020604051808303816000875af1158015611e6d573d6000803e3d6000fd5b505050506040513d601f19601f82011682018060405250810190611e9191906133fc565b90507f000000000000000000000000000000000000000000000000000000000000000073ffffffffffffffffffffffffffffffffffffffff16631b5095ef600460109054906101000a900460801b600184611eec9190613ccf565b6040518363ffffffff1660e01b8152600401611f09929190613d07565b600060405180830381600087803b158015611f2357600080fd5b505af1158015611f37573d6000803e3d6000fd5b5050505090565b60008160108461ffff16901b1761ffff16905092915050565b6060600080635320000373ffffffffffffffffffffffffffffffffffffffff1684604051602001611f889190613d78565b604051602081830303815290604052604051611fa49190613dc4565b6000604051808303816000865af19150503d8060008114611fe1576040519150601f19603f3d011682016040523d82523d6000602084013e611fe6565b606091505b509150915081612033576353200003816040517f75fff46700000000000000000000000000000000000000000000000000000000815260040161202a929190613a8e565b60405180910390fd5b808060200190518101906120479190613896565b92505050919050565b60008060405160200161206290613e27565b60405160208183030381529060405280519060200120905060006120a7826040516020016120909190613cb4565b604051602081830303815290604052600086612249565b90506120b38282612359565b92505050919050565b6060600080635330000373ffffffffffffffffffffffffffffffffffffffff16846040516020016120ed9190613923565b6040516020818303038152906040526040516121099190613dc4565b6000604051808303816000865af19150503d8060008114612146576040519150601f19603f3d011682016040523d82523d6000602084013e61214b565b606091505b509150915081612198576353300003816040517f75fff46700000000000000000000000000000000000000000000000000000000815260040161218f929190613a8e565b60405180910390fd5b808060200190518101906121ac91906137ac565b92505050919050565b6121bd61244c565b600080600090505b83518110156122335760008482815181106121e3576121e2612e49565b5b6020026020010151905083604001518160400151111561220c5783604001519250809350612221565b828160400151111561222057806040015192505b5b508061222c90613e47565b90506121c5565b506000810361224457816040015190505b915091565b6060612253611ab5565b61225c57600080fd5b600080634010000373ffffffffffffffffffffffffffffffffffffffff1686868660405160200161228f93929190613e8f565b6040516020818303038152906040526040516122ab9190613dc4565b6000604051808303816000865af19150503d80600081146122e8576040519150601f19603f3d011682016040523d82523d6000602084013e6122ed565b606091505b50915091508161233a576340100003816040517f75fff467000000000000000000000000000000000000000000000000000000008152600401612331929190613a8e565b60405180910390fd5b8080602001905181019061234e91906137ac565b925050509392505050565b600080600080612368856123c8565b925092509250600186828585604051600081526020016040526040516123919493929190613ef0565b6020604051602081039080840390855afa1580156123b3573d6000803e3d6000fd5b50505060206040510351935050505092915050565b60008060006041845114612411576040517f08c379a000000000000000000000000000000000000000000000000000000000815260040161240890613f81565b60405180910390fd5b6020840151925060408401519150606084015160001a9050601b8160ff16101561244557601b816124429190613fa1565b90505b9193909250565b6040518060600160405280600063ffffffff168152602001600073ffffffffffffffffffffffffffffffffffffffff168152602001600081525090565b6000604051905090565b600080fd5b600080fd5b600073ffffffffffffffffffffffffffffffffffffffff82169050919050565b60006124c88261249d565b9050919050565b6124d8816124bd565b81146124e357600080fd5b50565b6000813590506124f5816124cf565b92915050565b6000819050919050565b61250e816124fb565b811461251957600080fd5b50565b60008135905061252b81612505565b92915050565b60008060006060848603121561254a57612549612493565b5b6000612558868287016124e6565b93505060206125698682870161251c565b925050604061257a8682870161251c565b9150509250925092565b60008115159050919050565b61259981612584565b82525050565b60006020820190506125b46000830184612590565b92915050565b600061ffff82169050919050565b6125d1816125ba565b81146125dc57600080fd5b50565b6000813590506125ee816125c8565b92915050565b60008060006060848603121561260d5761260c612493565b5b600061261b868287016125df565b935050602061262c868287016124e6565b925050604061263d8682870161251c565b9150509250925092565b600063ffffffff82169050919050565b61266081612647565b811461266b57600080fd5b50565b60008135905061267d81612657565b92915050565b600080fd5b6000601f19601f8301169050919050565b7f4e487b7100000000000000000000000000000000000000000000000000000000600052604160045260246000fd5b6126d182612688565b810181811067ffffffffffffffff821117156126f0576126ef612699565b5b80604052505050565b6000612703612489565b905061270f82826126c8565b919050565b600060a0828403121561272a57612729612683565b5b61273460a06126f9565b90506000612744848285016124e6565b6000830152506020612758848285016124e6565b602083015250604061276c848285016125df565b6040830152506060612780848285016124e6565b60608301525060806127948482850161251c565b60808301525092915050565b600080fd5b600080fd5b600067ffffffffffffffff8211156127c5576127c4612699565b5b6127ce82612688565b9050602081019050919050565b82818337600083830152505050565b60006127fd6127f8846127aa565b6126f9565b905082815260208101848484011115612819576128186127a5565b5b6128248482856127db565b509392505050565b600082601f830112612841576128406127a0565b5b81356128518482602086016127ea565b91505092915050565b6000806000806000610120868803121561287757612876612493565b5b6000612885888289016125df565b95505060206128968882890161266e565b94505060406128a7888289016124e6565b93505060606128b888828901612714565b92505061010086013567ffffffffffffffff8111156128da576128d9612498565b5b6128e68882890161282c565b9150509295509295909350565b600067ffffffffffffffff82169050919050565b612910816128f3565b811461291b57600080fd5b50565b60008135905061292d81612907565b92915050565b60006060828403121561294957612948612683565b5b61295360606126f9565b905060006129638482850161291e565b60008301525060206129778482850161291e565b602083015250604061298b848285016124e6565b60408301525092915050565b6000606082840312156129ad576129ac612493565b5b60006129bb84828501612933565b91505092915050565b600081519050919050565b600082825260208201905092915050565b60005b838110156129fe5780820151818401526020810190506129e3565b83811115612a0d576000848401525b50505050565b6000612a1e826129c4565b612a2881856129cf565b9350612a388185602086016129e0565b612a4181612688565b840191505092915050565b60006020820190508181036000830152612a668184612a13565b905092915050565b600080600060608486031215612a8757612a86612493565b5b6000612a95868287016125df565b9350506020612aa68682870161266e565b9250506040612ab7868287016124e6565b9150509250925092565b600060208284031215612ad757612ad6612493565b5b6000612ae5848285016125df565b91505092915050565b6000819050919050565b612b0181612aee565b8114612b0c57600080fd5b50565b600081359050612b1e81612af8565b92915050565b60007fffffffffffffffffffffffffffffffff0000000000000000000000000000000082169050919050565b612b5981612b24565b8114612b6457600080fd5b50565b600081359050612b7681612b50565b92915050565b60008060008060c08587031215612b9657612b95612493565b5b6000612ba487828801612933565b9450506060612bb587828801612b0f565b9350506080612bc6878288016124e6565b92505060a0612bd787828801612b67565b91505092959194509250565b612bec816124bd565b82525050565b6000602082019050612c076000830184612be3565b92915050565b600060208284031215612c2357612c22612493565b5b6000612c318482850161251c565b91505092915050565b7f4e487b7100000000000000000000000000000000000000000000000000000000600052602160045260246000fd5b60038110612c7a57612c79612c3a565b5b50565b6000819050612c8b82612c69565b919050565b6000612c9b82612c7d565b9050919050565b612cab81612c90565b82525050565b6000612cbc82612b24565b9050919050565b612ccc81612cb1565b82525050565b612cdb81612aee565b82525050565b612cea81612647565b82525050565b612cf9816128f3565b82525050565b600061012082019050612d15600083018c612be3565b612d22602083018b612ca2565b612d2f604083018a612cc3565b612d3c6060830189612cd2565b612d496080830188612ce1565b612d5660a0830187612cf0565b612d6360c0830186612cf0565b612d7060e0830185612be3565b612d7e610100830184612be3565b9a9950505050505050505050565b600080600060608486031215612da557612da4612493565b5b6000612db386828701612b67565b9350506020612dc486828701612b67565b9250506040612dd5868287016124e6565b9150509250925092565b600081519050612dee81612505565b92915050565b600081519050612e0381612907565b92915050565b60008060408385031215612e2057612e1f612493565b5b6000612e2e85828601612ddf565b9250506020612e3f85828601612df4565b9150509250929050565b7f4e487b7100000000000000000000000000000000000000000000000000000000600052603260045260246000fd5b600082825260208201905092915050565b7f41756374696f6e206973206e6f74206c69766500000000000000000000000000600082015250565b6000612ebf601383612e78565b9150612eca82612e89565b602082019050919050565b60006020820190508181036000830152612eee81612eb2565b9050919050565b7f41756374696f6e2068617320656e646564000000000000000000000000000000600082015250565b6000612f2b601183612e78565b9150612f3682612ef5565b602082019050919050565b60006020820190508181036000830152612f5a81612f1e565b9050919050565b7f42696420616d6f756e742073686f756c6420626520677265617465722074686160008201527f6e207a65726f0000000000000000000000000000000000000000000000000000602082015250565b6000612fbd602683612e78565b9150612fc882612f61565b604082019050919050565b60006020820190508181036000830152612fec81612fb0565b9050919050565b7f4e487b7100000000000000000000000000000000000000000000000000000000600052601160045260246000fd5b600061302d826128f3565b9150613038836128f3565b92508267ffffffffffffffff0382111561305557613054612ff3565b5b828201905092915050565b7f496e73756666696369656e742066756e64730000000000000000000000000000600082015250565b6000613096601283612e78565b91506130a182613060565b602082019050919050565b600060208201905081810360008301526130c581613089565b9050919050565b6130d5816124bd565b82525050565b6130e4816125ba565b82525050565b6130f3816124fb565b82525050565b60a08201600082015161310f60008501826130cc565b50602082015161312260208501826130cc565b50604082015161313560408501826130db565b50606082015161314860608501826130cc565b50608082015161315b60808501826130ea565b50505050565b600060e0820190506131766000830186612ce1565b61318360208301856130f9565b81810360c08301526131958184612a13565b9050949350505050565b7f4e6f7420696e697469616c697a65640000000000000000000000000000000000600082015250565b60006131d5600f83612e78565b91506131e08261319f565b602082019050919050565b60006020820190508181036000830152613204816131c8565b9050919050565b60008151905061321a81612b50565b92915050565b60006020828403121561323657613235612493565b5b60006132448482850161320b565b91505092915050565b613256816128f3565b82525050565b606082016000820151613272600085018261324d565b506020820151613285602085018261324d565b50604082015161329860408501826130cc565b50505050565b600060c0820190506132b3600083018761325c565b6132c06060830186612cd2565b6132cd6080830185612be3565b6132da60a0830184612cc3565b95945050505050565b60006132ee82612647565b915063ffffffff820361330457613303612ff3565b5b600182019050919050565b7f41756374696f6e20686173206e6f7420656e6465640000000000000000000000600082015250565b6000613345601583612e78565b91506133508261330f565b602082019050919050565b6000602082019050818103600083015261337481613338565b9050919050565b7f4e6f206269647300000000000000000000000000000000000000000000000000600082015250565b60006133b1600783612e78565b91506133bc8261337b565b602082019050919050565b600060208201905081810360008301526133e0816133a4565b9050919050565b6000815190506133f6816125c8565b92915050565b60006020828403121561341257613411612493565b5b6000613420848285016133e7565b91505092915050565b613432816125ba565b82525050565b60006101208201905061344e6000830188613429565b61345b6020830187612ce1565b6134686040830186612be3565b61347560608301856130f9565b8181036101008301526134888184612a13565b90509695505050505050565b600061349f826124fb565b91506134aa836124fb565b9250828210156134bd576134bc612ff3565b5b828203905092915050565b60006060820190506134dd6000830186612be3565b6134ea6020830185612cf0565b6134f76040830184612cf0565b949350505050565b60006020828403121561351557613514612493565b5b600061352384828501612ddf565b91505092915050565b61353581612647565b82525050565b606082016000820151613551600085018261352c565b50602082015161356460208501826130cc565b50604082015161357760408501826130ea565b50505050565b6000608082019050613592600083018561353b565b61359f6060830184613429565b9392505050565b60006060820190506135bb6000830186613429565b6135c86020830185612ce1565b6135d56040830184612be3565b949350505050565b7f416c726561647920696e697469616c697a656400000000000000000000000000600082015250565b6000613613601383612e78565b915061361e826135dd565b602082019050919050565b6000602082019050818103600083015261364281613606565b9050919050565b7f41756374696f6e206973206e6f7420736574746c656400000000000000000000600082015250565b600061367f601683612e78565b915061368a82613649565b602082019050919050565b600060208201905081810360008301526136ae81613672565b9050919050565b7f4f6e6c792077696e6e65722063616e20636c61696d20746f6b656e0000000000600082015250565b60006136eb601b83612e78565b91506136f6826136b5565b602082019050919050565b6000602082019050818103600083015261371a816136de565b9050919050565b60006020820190506137366000830184612cc3565b92915050565b600061374f61374a846127aa565b6126f9565b90508281526020810184848401111561376b5761376a6127a5565b5b6137768482856129e0565b509392505050565b600082601f830112613793576137926127a0565b5b81516137a384826020860161373c565b91505092915050565b6000602082840312156137c2576137c1612493565b5b600082015167ffffffffffffffff8111156137e0576137df612498565b5b6137ec8482850161377e565b91505092915050565b600067ffffffffffffffff8211156138105761380f612699565b5b61381982612688565b9050602081019050919050565b6000613839613834846137f5565b6126f9565b905082815260208101848484011115613855576138546127a5565b5b6138608482856129e0565b509392505050565b600082601f83011261387d5761387c6127a0565b5b815161388d848260208601613826565b91505092915050565b6000602082840312156138ac576138ab612493565b5b600082015167ffffffffffffffff8111156138ca576138c9612498565b5b6138d684828501613868565b91505092915050565b600081519050919050565b60006138f5826138df565b6138ff8185612e78565b935061390f8185602086016129e0565b61391881612688565b840191505092915050565b6000602082019050818103600083015261393d81846138ea565b905092915050565b6000819050919050565b6000819050919050565b600061397461396f61396a84613945565b61394f565b6125ba565b9050919050565b61398481613959565b82525050565b600060208201905061399f600083018461397b565b92915050565b60006060820190506139ba6000830186612cc3565b6139c76020830185612cc3565b6139d46040830184612be3565b949350505050565b7f4f6e6c792061756374696f6e206d61737465722063616e2063616e63656c0000600082015250565b6000613a12601e83612e78565b9150613a1d826139dc565b602082019050919050565b60006020820190508181036000830152613a4181613a05565b9050919050565b600081905092915050565b50565b6000613a63600083613a48565b9150613a6e82613a53565b600082019050919050565b6000613a8482613a56565b9150819050919050565b6000604082019050613aa36000830185612be3565b8181036020830152613ab58184612a13565b90509392505050565b6000602082019050613ad36000830184613429565b92915050565b600067ffffffffffffffff821115613af457613af3612699565b5b602082029050602081019050919050565b600080fd5b600081519050613b1981612657565b92915050565b600081519050613b2e816124cf565b92915050565b600060608284031215613b4a57613b49612683565b5b613b5460606126f9565b90506000613b6484828501613b0a565b6000830152506020613b7884828501613b1f565b6020830152506040613b8c84828501612ddf565b60408301525092915050565b6000613bab613ba684613ad9565b6126f9565b90508083825260208201905060608402830185811115613bce57613bcd613b05565b5b835b81811015613bf75780613be38882613b34565b845260208401935050606081019050613bd0565b5050509392505050565b600082601f830112613c1657613c156127a0565b5b8151613c26848260208601613b98565b91505092915050565b600060208284031215613c4557613c44612493565b5b600082015167ffffffffffffffff811115613c6357613c62612498565b5b613c6f84828501613c01565b91505092915050565b600060a082019050613c8d60008301846130f9565b92915050565b6000819050919050565b613cae613ca982612aee565b613c93565b82525050565b6000613cc08284613c9d565b60208201915081905092915050565b6000613cda826125ba565b9150613ce5836125ba565b92508261ffff03821115613cfc57613cfb612ff3565b5b828201905092915050565b6000604082019050613d1c6000830185612cc3565b613d296020830184613429565b9392505050565b60028110613d4157613d40612c3a565b5b50565b6000819050613d5282613d30565b919050565b6000613d6282613d44565b9050919050565b613d7281613d57565b82525050565b6000602082019050613d8d6000830184613d69565b92915050565b6000613d9e826129c4565b613da88185613a48565b9350613db88185602086016129e0565b80840191505092915050565b6000613dd08284613d93565b915081905092915050565b7f796f000000000000000000000000000000000000000000000000000000000000600082015250565b6000613e11600283612e78565b9150613e1c82613ddb565b602082019050919050565b60006020820190508181036000830152613e4081613e04565b9050919050565b6000613e52826124fb565b91507fffffffffffffffffffffffffffffffffffffffffffffffffffffffffffffffff8203613e8457613e83612ff3565b5b600182019050919050565b60006060820190508181036000830152613ea98186612a13565b9050613eb86020830185613d69565b8181036040830152613eca81846138ea565b9050949350505050565b600060ff82169050919050565b613eea81613ed4565b82525050565b6000608082019050613f056000830187612cd2565b613f126020830186613ee1565b613f1f6040830185612cd2565b613f2c6060830184612cd2565b95945050505050565b7f696e76616c6964207369676e6174757265206c656e6774680000000000000000600082015250565b6000613f6b601883612e78565b9150613f7682613f35565b602082019050919050565b60006020820190508181036000830152613f9a81613f5e565b9050919050565b6000613fac82613ed4565b9150613fb783613ed4565b92508260ff03821115613fcd57613fcc612ff3565b5b82820190509291505056fea2646970667358221220ccb0ee910f025670defc8de5abcc868e509439a4613c6623d339ee605c380d8964736f6c634300080d00336080604052604051806020016040528073c8df3686b4afb2bb53e60eae97ef043fe03fb82973ffffffffffffffffffffffffffffffffffffffff1673ffffffffffffffffffffffffffffffffffffffff168152506000906001620000659291906200007a565b503480156200007357600080fd5b5062000128565b828054828255906000526020600020908101928215620000f6579160200282015b82811115620000f55782518260006101000a81548173ffffffffffffffffffffffffffffffffffffffff021916908373ffffffffffffffffffffffffffffffffffffffff160217905550916020019190600101906200009b565b5b50905062000105919062000109565b5090565b5b80821115620001245760008160009055506001016200010a565b5090565b61252a80620001386000396000f3fe608060405234801561001057600080fd5b506004361061009e5760003560e01c80637891d72f116100665780637891d72f1461016b578063986d666f1461019b578063b8106b56146101cb578063e596febd146101fb578063f06d34501461022b5761009e565b80631b5095ef146100a357806342bef59b146100bf5780634faac5af146100db5780634fb6aefa1461010b57806377e97ad61461013b575b600080fd5b6100bd60048036038101906100b8919061151b565b61025b565b005b6100d960048036038101906100d49190611725565b6102be565b005b6100f560048036038101906100f0919061181f565b6105ad565b6040516101029190611889565b60405180910390f35b610125600480360381019061012091906118a4565b610894565b6040516101329190611889565b60405180910390f35b610155600480360381019061015091906118d1565b610a8f565b604051610162919061190d565b60405180910390f35b61018560048036038101906101809190611928565b610ace565b60405161019291906119dd565b60405180910390f35b6101b560048036038101906101b09190611928565b610b1c565b6040516101c29190611a54565b60405180910390f35b6101e560048036038101906101e0919061181f565b610b64565b6040516101f29190611889565b60405180910390f35b61021560048036038101906102109190611928565b610e4b565b6040516102229190611a85565b60405180910390f35b610245600480360381019061024091906118a4565b610eab565b6040516102529190611bbe565b60405180910390f35b6102ba826040518060400160405280601381526020017f61756374696f6e3a76303a626964636f756e7400000000000000000000000000815250836040516020016102a69190611a85565b604051602081830303815290604052611000565b5050565b60006040518060400160405280600f81526020017f61756374696f6e3a76303a62696473000000000000000000000000000000000081525082604051602001610308929190611c52565b60405160208183030381529060405290506000600367ffffffffffffffff81111561033657610335611571565b5b6040519080825280602002602001820160405280156103645781602001602082028036833780820191505090505b509050308160008151811061037c5761037b611c7a565b5b602002602001019073ffffffffffffffffffffffffffffffffffffffff16908173ffffffffffffffffffffffffffffffffffffffff16815250506342030001816001815181106103cf576103ce611c7a565b5b602002602001019073ffffffffffffffffffffffffffffffffffffffff16908173ffffffffffffffffffffffffffffffffffffffff168152505063420200018160028151811061042257610421611c7a565b5b602002602001019073ffffffffffffffffffffffffffffffffffffffff16908173ffffffffffffffffffffffffffffffffffffffff168152505060006105766000808054806020026020016040519081016040528092919081815260200182805480156104e457602002820191906000526020600020905b8160009054906101000a900473ffffffffffffffffffffffffffffffffffffffff1673ffffffffffffffffffffffffffffffffffffffff168152602001906001019080831161049a575b5050505050600080548060200260200160405190810160405280929190818152602001828054801561056b57602002820191906000526020600020905b8160009054906101000a900473ffffffffffffffffffffffffffffffffffffffff1673ffffffffffffffffffffffffffffffffffffffff1681526020019060010190808311610521575b5050505050866110e5565b90506105a6816000015184876040516020016105929190611ceb565b604051602081830303815290604052611000565b5050505050565b600080600367ffffffffffffffff8111156105cb576105ca611571565b5b6040519080825280602002602001820160405280156105f95781602001602082028036833780820191505090505b509050308160008151811061061157610610611c7a565b5b602002602001019073ffffffffffffffffffffffffffffffffffffffff16908173ffffffffffffffffffffffffffffffffffffffff168152505063420300018160018151811061066457610663611c7a565b5b602002602001019073ffffffffffffffffffffffffffffffffffffffff16908173ffffffffffffffffffffffffffffffffffffffff16815250506342020001816002815181106106b7576106b6611c7a565b5b602002602001019073ffffffffffffffffffffffffffffffffffffffff16908173ffffffffffffffffffffffffffffffffffffffff1681525050600061084060008080548060200260200160405190810160405280929190818152602001828054801561077957602002820191906000526020600020905b8160009054906101000a900473ffffffffffffffffffffffffffffffffffffffff1673ffffffffffffffffffffffffffffffffffffffff168152602001906001019080831161072f575b5050505050600080548060200260200160405190810160405280929190818152602001828054801561080057602002820191906000526020600020905b8160009054906101000a900473ffffffffffffffffffffffffffffffffffffffff1673ffffffffffffffffffffffffffffffffffffffff16815260200190600101908083116107b6575b50505050506040518060400160405280601381526020017f61756374696f6e3a76303a706b736563726574000000000000000000000000008152506110e5565b905061088681600001516040518060400160405280601381526020017f61756374696f6e3a76303a706b7365637265740000000000000000000000000081525086611000565b806000015192505050919050565b600080600367ffffffffffffffff8111156108b2576108b1611571565b5b6040519080825280602002602001820160405280156108e05781602001602082028036833780820191505090505b50905030816000815181106108f8576108f7611c7a565b5b602002602001019073ffffffffffffffffffffffffffffffffffffffff16908173ffffffffffffffffffffffffffffffffffffffff168152505063420300018160018151811061094b5761094a611c7a565b5b602002602001019073ffffffffffffffffffffffffffffffffffffffff16908173ffffffffffffffffffffffffffffffffffffffff168152505063420200018160028151811061099e5761099d611c7a565b5b602002602001019073ffffffffffffffffffffffffffffffffffffffff16908173ffffffffffffffffffffffffffffffffffffffff16815250506000610a1c600083846040518060400160405280601381526020017f61756374696f6e3a76303a626964636f756e74000000000000000000000000008152506110e5565b9050610a8181600001516040518060400160405280601381526020017f61756374696f6e3a76303a626964636f756e740000000000000000000000000081525086604051602001610a6d9190611a85565b604051602081830303815290604052611000565b806000015192505050919050565b60008181548110610a9f57600080fd5b906000526020600020016000915054906101000a900473ffffffffffffffffffffffffffffffffffffffff1681565b60606000610b11836040518060400160405280601381526020017f61756374696f6e3a76303a706b736563726574000000000000000000000000008152506111ed565b905080915050919050565b6060610b5d826040518060400160405280601081526020017f61756374696f6e3a76303a746f6b656e000000000000000000000000000000008152506111ed565b9050919050565b600080600367ffffffffffffffff811115610b8257610b81611571565b5b604051908082528060200260200182016040528015610bb05781602001602082028036833780820191505090505b5090503081600081518110610bc857610bc7611c7a565b5b602002602001019073ffffffffffffffffffffffffffffffffffffffff16908173ffffffffffffffffffffffffffffffffffffffff1681525050634203000181600181518110610c1b57610c1a611c7a565b5b602002602001019073ffffffffffffffffffffffffffffffffffffffff16908173ffffffffffffffffffffffffffffffffffffffff1681525050634202000181600281518110610c6e57610c6d611c7a565b5b602002602001019073ffffffffffffffffffffffffffffffffffffffff16908173ffffffffffffffffffffffffffffffffffffffff16815250506000610df7600080805480602002602001604051908101604052809291908181526020018280548015610d3057602002820191906000526020600020905b8160009054906101000a900473ffffffffffffffffffffffffffffffffffffffff1673ffffffffffffffffffffffffffffffffffffffff1681526020019060010190808311610ce6575b50505050506000805480602002602001604051908101604052809291908181526020018280548015610db757602002820191906000526020600020905b8160009054906101000a900473ffffffffffffffffffffffffffffffffffffffff1673ffffffffffffffffffffffffffffffffffffffff1681526020019060010190808311610d6d575b50505050506040518060400160405280601081526020017f61756374696f6e3a76303a746f6b656e000000000000000000000000000000008152506110e5565b9050610e3d81600001516040518060400160405280601081526020017f61756374696f6e3a76303a746f6b656e0000000000000000000000000000000081525086611000565b806000015192505050919050565b600080610e8d836040518060400160405280601381526020017f61756374696f6e3a76303a626964636f756e74000000000000000000000000008152506111ed565b905080806020019051810190610ea39190611d1b565b915050919050565b606060006040518060400160405280600f81526020017f61756374696f6e3a76303a62696473000000000000000000000000000000000081525083604051602001610ef7929190611c52565b60405160208183030381529060405290506000610f156000836112d6565b90506000815167ffffffffffffffff811115610f3457610f33611571565b5b604051908082528060200260200182016040528015610f6d57816020015b610f5a6113d2565b815260200190600190039081610f525790505b50905060005b8251811015610ff4576000610fa6848381518110610f9457610f93611c7a565b5b602002602001015160000151866111ed565b9050600081806020019051810190610fbe9190611deb565b905080848481518110610fd457610fd3611c7a565b5b602002602001018190525050508080610fec90611e47565b915050610f73565b50809350505050919050565b600080634202000073ffffffffffffffffffffffffffffffffffffffff1685858560405160200161103393929190611e8f565b60405160208183030381529060405260405161104f9190611f10565b6000604051808303816000865af19150503d806000811461108c576040519150601f19603f3d011682016040523d82523d6000602084013e611091565b606091505b5091509150816110de576342020000816040517f75fff4670000000000000000000000000000000000000000000000000000000081526004016110d5929190611f27565b60405180910390fd5b5050505050565b6110ed61140f565b600080634203000073ffffffffffffffffffffffffffffffffffffffff16878787876040516020016111229493929190612029565b60405160208183030381529060405260405161113e9190611f10565b6000604051808303816000865af19150503d806000811461117b576040519150601f19603f3d011682016040523d82523d6000602084013e611180565b606091505b5091509150816111cd576342030000816040517f75fff4670000000000000000000000000000000000000000000000000000000081526004016111c4929190611f27565b60405180910390fd5b808060200190518101906111e19190612321565b92505050949350505050565b6060600080634202000173ffffffffffffffffffffffffffffffffffffffff16858560405160200161122092919061236a565b60405160208183030381529060405260405161123c9190611f10565b6000604051808303816000865af19150503d8060008114611279576040519150601f19603f3d011682016040523d82523d6000602084013e61127e565b606091505b5091509150816112cb576342020001816040517f75fff4670000000000000000000000000000000000000000000000000000000081526004016112c2929190611f27565b60405180910390fd5b809250505092915050565b6060600080634203000173ffffffffffffffffffffffffffffffffffffffff16858560405160200161130992919061239a565b6040516020818303038152906040526040516113259190611f10565b6000604051808303816000865af19150503d8060008114611362576040519150601f19603f3d011682016040523d82523d6000602084013e611367565b606091505b5091509150816113b4576342030001816040517f75fff4670000000000000000000000000000000000000000000000000000000081526004016113ab929190611f27565b60405180910390fd5b808060200190518101906113c891906124ab565b9250505092915050565b6040518060600160405280600063ffffffff168152602001600073ffffffffffffffffffffffffffffffffffffffff168152602001600081525090565b6040518060c0016040528060006fffffffffffffffffffffffffffffffff1916815260200160006fffffffffffffffffffffffffffffffff19168152602001600067ffffffffffffffff1681526020016060815260200160608152602001606081525090565b6000604051905090565b600080fd5b600080fd5b60007fffffffffffffffffffffffffffffffff0000000000000000000000000000000082169050919050565b6114be81611489565b81146114c957600080fd5b50565b6000813590506114db816114b5565b92915050565b600061ffff82169050919050565b6114f8816114e1565b811461150357600080fd5b50565b600081359050611515816114ef565b92915050565b600080604083850312156115325761153161147f565b5b6000611540858286016114cc565b925050602061155185828601611506565b9150509250929050565b600080fd5b6000601f19601f8301169050919050565b7f4e487b7100000000000000000000000000000000000000000000000000000000600052604160045260246000fd5b6115a982611560565b810181811067ffffffffffffffff821117156115c8576115c7611571565b5b80604052505050565b60006115db611475565b90506115e782826115a0565b919050565b600080fd5b600063ffffffff82169050919050565b61160a816115f1565b811461161557600080fd5b50565b60008135905061162781611601565b92915050565b600073ffffffffffffffffffffffffffffffffffffffff82169050919050565b60006116588261162d565b9050919050565b6116688161164d565b811461167357600080fd5b50565b6000813590506116858161165f565b92915050565b6000819050919050565b61169e8161168b565b81146116a957600080fd5b50565b6000813590506116bb81611695565b92915050565b6000606082840312156116d7576116d661155b565b5b6116e160606115d1565b905060006116f184828501611618565b600083015250602061170584828501611676565b6020830152506040611719848285016116ac565b60408301525092915050565b6000806080838503121561173c5761173b61147f565b5b600061174a858286016116c1565b925050606061175b85828601611506565b9150509250929050565b600080fd5b600080fd5b600067ffffffffffffffff82111561178a57611789611571565b5b61179382611560565b9050602081019050919050565b82818337600083830152505050565b60006117c26117bd8461176f565b6115d1565b9050828152602081018484840111156117de576117dd61176a565b5b6117e98482856117a0565b509392505050565b600082601f83011261180657611805611765565b5b81356118168482602086016117af565b91505092915050565b6000602082840312156118355761183461147f565b5b600082013567ffffffffffffffff81111561185357611852611484565b5b61185f848285016117f1565b91505092915050565b600061187382611489565b9050919050565b61188381611868565b82525050565b600060208201905061189e600083018461187a565b92915050565b6000602082840312156118ba576118b961147f565b5b60006118c884828501611506565b91505092915050565b6000602082840312156118e7576118e661147f565b5b60006118f5848285016116ac565b91505092915050565b6119078161164d565b82525050565b600060208201905061192260008301846118fe565b92915050565b60006020828403121561193e5761193d61147f565b5b600061194c848285016114cc565b91505092915050565b600081519050919050565b600082825260208201905092915050565b60005b8381101561198f578082015181840152602081019050611974565b8381111561199e576000848401525b50505050565b60006119af82611955565b6119b98185611960565b93506119c9818560208601611971565b6119d281611560565b840191505092915050565b600060208201905081810360008301526119f781846119a4565b905092915050565b600081519050919050565b600082825260208201905092915050565b6000611a26826119ff565b611a308185611a0a565b9350611a40818560208601611971565b611a4981611560565b840191505092915050565b60006020820190508181036000830152611a6e8184611a1b565b905092915050565b611a7f816114e1565b82525050565b6000602082019050611a9a6000830184611a76565b92915050565b600081519050919050565b600082825260208201905092915050565b6000819050602082019050919050565b611ad5816115f1565b82525050565b611ae48161164d565b82525050565b611af38161168b565b82525050565b606082016000820151611b0f6000850182611acc565b506020820151611b226020850182611adb565b506040820151611b356040850182611aea565b50505050565b6000611b478383611af9565b60608301905092915050565b6000602082019050919050565b6000611b6b82611aa0565b611b758185611aab565b9350611b8083611abc565b8060005b83811015611bb1578151611b988882611b3b565b9750611ba383611b53565b925050600181019050611b84565b5085935050505092915050565b60006020820190508181036000830152611bd88184611b60565b905092915050565b600081905092915050565b6000611bf682611955565b611c008185611be0565b9350611c10818560208601611971565b80840191505092915050565b60008160f01b9050919050565b6000611c3482611c1c565b9050919050565b611c4c611c47826114e1565b611c29565b82525050565b6000611c5e8285611beb565b9150611c6a8284611c3b565b6002820191508190509392505050565b7f4e487b7100000000000000000000000000000000000000000000000000000000600052603260045260246000fd5b606082016000820151611cbf6000850182611acc565b506020820151611cd26020850182611adb565b506040820151611ce56040850182611aea565b50505050565b6000606082019050611d006000830184611ca9565b92915050565b600081519050611d15816114ef565b92915050565b600060208284031215611d3157611d3061147f565b5b6000611d3f84828501611d06565b91505092915050565b600081519050611d5781611601565b92915050565b600081519050611d6c8161165f565b92915050565b600081519050611d8181611695565b92915050565b600060608284031215611d9d57611d9c61155b565b5b611da760606115d1565b90506000611db784828501611d48565b6000830152506020611dcb84828501611d5d565b6020830152506040611ddf84828501611d72565b60408301525092915050565b600060608284031215611e0157611e0061147f565b5b6000611e0f84828501611d87565b91505092915050565b7f4e487b7100000000000000000000000000000000000000000000000000000000600052601160045260246000fd5b6000611e528261168b565b91507fffffffffffffffffffffffffffffffffffffffffffffffffffffffffffffffff8203611e8457611e83611e18565b5b600182019050919050565b6000606082019050611ea4600083018661187a565b8181036020830152611eb681856119a4565b90508181036040830152611eca8184611a1b565b9050949350505050565b600081905092915050565b6000611eea826119ff565b611ef48185611ed4565b9350611f04818560208601611971565b80840191505092915050565b6000611f1c8284611edf565b915081905092915050565b6000604082019050611f3c60008301856118fe565b8181036020830152611f4e8184611a1b565b90509392505050565b600067ffffffffffffffff82169050919050565b611f7481611f57565b82525050565b600081519050919050565b600082825260208201905092915050565b6000819050602082019050919050565b6000611fb28383611adb565b60208301905092915050565b6000602082019050919050565b6000611fd682611f7a565b611fe08185611f85565b9350611feb83611f96565b8060005b8381101561201c5781516120038882611fa6565b975061200e83611fbe565b925050600181019050611fef565b5085935050505092915050565b600060808201905061203e6000830187611f6b565b81810360208301526120508186611fcb565b905081810360408301526120648185611fcb565b9050818103606083015261207881846119a4565b905095945050505050565b600081519050612092816114b5565b92915050565b6120a181611f57565b81146120ac57600080fd5b50565b6000815190506120be81612098565b92915050565b600067ffffffffffffffff8211156120df576120de611571565b5b602082029050602081019050919050565b600080fd5b6000612108612103846120c4565b6115d1565b9050808382526020820190506020840283018581111561212b5761212a6120f0565b5b835b8181101561215457806121408882611d5d565b84526020840193505060208101905061212d565b5050509392505050565b600082601f83011261217357612172611765565b5b81516121838482602086016120f5565b91505092915050565b600067ffffffffffffffff8211156121a7576121a6611571565b5b6121b082611560565b9050602081019050919050565b60006121d06121cb8461218c565b6115d1565b9050828152602081018484840111156121ec576121eb61176a565b5b6121f7848285611971565b509392505050565b600082601f83011261221457612213611765565b5b81516122248482602086016121bd565b91505092915050565b600060c082840312156122435761224261155b565b5b61224d60c06115d1565b9050600061225d84828501612083565b600083015250602061227184828501612083565b6020830152506040612285848285016120af565b604083015250606082015167ffffffffffffffff8111156122a9576122a86115ec565b5b6122b58482850161215e565b606083015250608082015167ffffffffffffffff8111156122d9576122d86115ec565b5b6122e58482850161215e565b60808301525060a082015167ffffffffffffffff811115612309576123086115ec565b5b612315848285016121ff565b60a08301525092915050565b6000602082840312156123375761233661147f565b5b600082015167ffffffffffffffff81111561235557612354611484565b5b6123618482850161222d565b91505092915050565b600060408201905061237f600083018561187a565b818103602083015261239181846119a4565b90509392505050565b60006040820190506123af6000830185611f6b565b81810360208301526123c181846119a4565b90509392505050565b600067ffffffffffffffff8211156123e5576123e4611571565b5b602082029050602081019050919050565b6000612409612404846123ca565b6115d1565b9050808382526020820190506020840283018581111561242c5761242b6120f0565b5b835b8181101561247357805167ffffffffffffffff81111561245157612450611765565b5b80860161245e898261222d565b8552602085019450505060208101905061242e565b5050509392505050565b600082601f83011261249257612491611765565b5b81516124a28482602086016123f6565b91505092915050565b6000602082840312156124c1576124c061147f565b5b600082015167ffffffffffffffff8111156124df576124de611484565b5b6124eb8482850161247d565b9150509291505056fea264697066735822122021cf68339ebef5f0762bb9ee536450f9782ec783cff48edb827bc768c61d93b064736f6c634300080d0033608060405234801561001057600080fd5b5060405162003bba38038062003bba833981810160405281019061003491906102d9565b81604051610041906100ef565b61004b919061038a565b604051809103906000f080158015610067573d6000803e3d6000fd5b506000806101000a81548173ffffffffffffffffffffffffffffffffffffffff021916908373ffffffffffffffffffffffffffffffffffffffff16021790555080600160006101000a81548173ffffffffffffffffffffffffffffffffffffffff021916908373ffffffffffffffffffffffffffffffffffffffff16021790555050506103ac565b613459806200076183390190565b6000604051905090565b600080fd5b600080fd5b600080fd5b600080fd5b6000601f19601f8301169050919050565b7f4e487b7100000000000000000000000000000000000000000000000000000000600052604160045260246000fd5b6101648261011b565b810181811067ffffffffffffffff821117156101835761018261012c565b5b80604052505050565b60006101966100fd565b90506101a2828261015b565b919050565b600067ffffffffffffffff8211156101c2576101c161012c565b5b6101cb8261011b565b9050602081019050919050565b60005b838110156101f65780820151818401526020810190506101db565b83811115610205576000848401525b50505050565b600061021e610219846101a7565b61018c565b90508281526020810184848401111561023a57610239610116565b5b6102458482856101d8565b509392505050565b600082601f83011261026257610261610111565b5b815161027284826020860161020b565b91505092915050565b600073ffffffffffffffffffffffffffffffffffffffff82169050919050565b60006102a68261027b565b9050919050565b6102b68161029b565b81146102c157600080fd5b50565b6000815190506102d3816102ad565b92915050565b600080604083850312156102f0576102ef610107565b5b600083015167ffffffffffffffff81111561030e5761030d61010c565b5b61031a8582860161024d565b925050602061032b858286016102c4565b9150509250929050565b600081519050919050565b600082825260208201905092915050565b600061035c82610335565b6103668185610340565b93506103768185602086016101d8565b61037f8161011b565b840191505092915050565b600060208201905081810360008301526103a48184610351565b905092915050565b6103a580620003bc6000396000f3fe608060405234801561001057600080fd5b5060008060009054906101000a900473ffffffffffffffffffffffffffffffffffffffff1673ffffffffffffffffffffffffffffffffffffffff16631b8b921d600160009054906101000a900473ffffffffffffffffffffffffffffffffffffffff166000366040518463ffffffff1660e01b815260040161009493929190610187565b6000604051808303816000875af11580156100b3573d6000803e3d6000fd5b505050506040513d6000823e3d601f19601f820116820180604052508101906100dc9190610326565b90508081518060208301f35b600073ffffffffffffffffffffffffffffffffffffffff82169050919050565b6000610113826100e8565b9050919050565b61012381610108565b82525050565b600082825260208201905092915050565b82818337600083830152505050565b6000601f19601f8301169050919050565b60006101668385610129565b935061017383858461013a565b61017c83610149565b840190509392505050565b600060408201905061019c600083018661011a565b81810360208301526101af81848661015a565b9050949350505050565b6000604051905090565b600080fd5b600080fd5b600080fd5b600080fd5b7f4e487b7100000000000000000000000000000000000000000000000000000000600052604160045260246000fd5b61020f82610149565b810181811067ffffffffffffffff8211171561022e5761022d6101d7565b5b80604052505050565b60006102416101b9565b905061024d8282610206565b919050565b600067ffffffffffffffff82111561026d5761026c6101d7565b5b61027682610149565b9050602081019050919050565b60005b838110156102a1578082015181840152602081019050610286565b838111156102b0576000848401525b50505050565b60006102c96102c484610252565b610237565b9050828152602081018484840111156102e5576102e46101d2565b5b6102f0848285610283565b509392505050565b600082601f83011261030d5761030c6101cd565b5b815161031d8482602086016102b6565b91505092915050565b60006020828403121561033c5761033b6101c3565b5b600082015167ffffffffffffffff81111561035a576103596101c8565b5b610366848285016102f8565b9150509291505056fea2646970667358221220ab9ca5c3cd5eaebca5d07af81685b3b73f2fefbfb3f2461a31f9e5f3a74fde9264736f6c634300080d003360806040523480156200001157600080fd5b5060405162003459380380620034598339818101604052810190620000379190620002a4565b80600090805190602001906200004f92919062000057565b505062000359565b828054620000659062000324565b90600052602060002090601f016020900481019282620000895760008555620000d5565b82601f10620000a457805160ff1916838001178555620000d5565b82800160010185558215620000d5579182015b82811115620000d4578251825591602001919060010190620000b7565b5b509050620000e49190620000e8565b5090565b5b8082111562000103576000816000905550600101620000e9565b5090565b6000604051905090565b600080fd5b600080fd5b600080fd5b600080fd5b6000601f19601f8301169050919050565b7f4e487b7100000000000000000000000000000000000000000000000000000000600052604160045260246000fd5b620001708262000125565b810181811067ffffffffffffffff8211171562000192576200019162000136565b5b80604052505050565b6000620001a762000107565b9050620001b5828262000165565b919050565b600067ffffffffffffffff821115620001d857620001d762000136565b5b620001e38262000125565b9050602081019050919050565b60005b8381101562000210578082015181840152602081019050620001f3565b8381111562000220576000848401525b50505050565b60006200023d6200023784620001ba565b6200019b565b9050828152602081018484840111156200025c576200025b62000120565b5b62000269848285620001f0565b509392505050565b600082601f8301126200028957620002886200011b565b5b81516200029b84826020860162000226565b91505092915050565b600060208284031215620002bd57620002bc62000111565b5b600082015167ffffffffffffffff811115620002de57620002dd62000116565b5b620002ec8482850162000271565b91505092915050565b7f4e487b7100000000000000000000000000000000000000000000000000000000600052602260045260246000fd5b600060028204905060018216806200033d57607f821691505b602082108103620003535762000352620002f5565b5b50919050565b6130f080620003696000396000f3fe608060405234801561001057600080fd5b50600436106100575760003560e01c80631b8b921d1461005c57806370ae92d21461008c5780637c52407c146100bc578063c672f9d6146100ec578063e3d670d71461011c575b600080fd5b61007660048036038101906100719190611e68565b61014c565b6040516100839190611f4c565b60405180910390f35b6100a660048036038101906100a19190611f6e565b6101ba565b6040516100b39190611fb4565b60405180910390f35b6100d660048036038101906100d1919061212b565b61021c565b6040516100e39190611f4c565b60405180910390f35b61010660048036038101906101019190612257565b610377565b60405161011391906122cb565b60405180910390f35b61013660048036038101906101319190611f6e565b61061c565b6040516101439190611fb4565b60405180910390f35b606060006101598461067e565b610162846106f8565b604051602001610173929190612437565b6040516020818303038152906040529050600061018f82610377565b905060006101ac6101a76101a28461071e565b610740565b61084b565b905080935050505092915050565b6000806101c68361067e565b6040516020016101d6919061253a565b604051602081830303815290604052905060006101f282610377565b9050600061020f61020a6102058461071e565b6109cf565b610c01565b9050809350505050919050565b606060006102298561067e565b610232856106f8565b6040516020016102439291906125b3565b604051602081830303815290604052905060005b835181101561031d5781610288858381518110610277576102766125f8565b5b60200260200101516000015161067e565b6102af86848151811061029e5761029d6125f8565b5b6020026020010151602001516106f8565b6040516020016102c193929190612747565b6040516020818303038152906040529150600184516102e091906127c8565b81101561030a57816040516020016102f89190612848565b60405160208183030381529060405291505b80806103159061286a565b915050610257565b508060405160200161032f91906128fe565b6040516020818303038152906040529050600061034b82610377565b9050600061036861036361035e8461071e565b610740565b61084b565b90508093505050509392505050565b61037f611c5b565b610387611c6e565b6040518060400160405280600481526020017f504f5354000000000000000000000000000000000000000000000000000000008152508160200181905250600080546103d29061294f565b80601f01602080910402602001604051908101604052809291908181526020018280546103fe9061294f565b801561044b5780601f106104205761010080835404028352916020019161044b565b820191906000526020600020905b81548152906001019060200180831161042e57829003601f168201915b50505050508160000181905250600167ffffffffffffffff81111561047357610472611d3d565b5b6040519080825280602002602001820160405280156104a657816020015b60608152602001906001900390816104915790505b5081604001819052506040518060400160405280601e81526020017f436f6e74656e742d547970653a206170706c69636174696f6e2f6a736f6e000081525081604001516000815181106104fd576104fc6125f8565b5b6020026020010181905250828160600181905250600061051c82610c9e565b9050600061052982610d97565b905060006105756040518060400160405280600781526020017f226572726f72220000000000000000000000000000000000000000000000000081525083610dc390919063ffffffff16565b905061058081610e46565b6105c95761058d8161071e565b6040517f08c379a00000000000000000000000000000000000000000000000000000000081526004016105c091906129ca565b60405180910390fd5b6106116040518060400160405280600881526020017f22726573756c742200000000000000000000000000000000000000000000000081525083610dc390919063ffffffff16565b945050505050919050565b6000806106288361067e565b6040516020016106389190612a5e565b6040516020818303038152906040529050600061065482610377565b9050600061067161066c6106678461071e565b6109cf565b610c01565b9050809350505050919050565b606061068982610e5c565b905060ff6000190460061b60228201816022026028822016608860f01b60005b6001156106c85782811a820281820152600181019050601481036106a9575b50838351166000511660011c8351188352602083019250838351166020511660011c835118835250505050919050565b606061070382610e82565b90506002815101613078825260028203915080825250919050565b6060600061073561072e84610ef0565b6000610efa565b905080915050919050565b6060600082905060006004825161075791906127c8565b67ffffffffffffffff8111156107705761076f611d3d565b5b6040519080825280601f01601f1916602001820160405280156107a25781602001600182028036833780820191505090505b5090506000600390505b600183516107ba91906127c8565b811015610840578281815181106107d4576107d36125f8565b5b602001015160f81c60f81b826003836107ed91906127c8565b815181106107fe576107fd6125f8565b5b60200101907effffffffffffffffffffffffffffffffffffffffffffffffffffffffffffff1916908160001a90535080806108389061286a565b9150506107ac565b508092505050919050565b606060008290506000600282516108629190612aba565b1461086c57600080fd5b60006002825161087c9190612aeb565b67ffffffffffffffff81111561089557610894611d3d565b5b6040519080825280601f01601f1916602001820160405280156108c75781602001600182028036833780820191505090505b50905060005b600283516108db9190612aeb565b8110156109c4576109238360018360026108f59190612b1c565b6108ff9190612b76565b815181106109105761090f6125f8565b5b602001015160f81c60f81b60f81c6117be565b601061095a858460026109369190612b1c565b81518110610947576109466125f8565b5b602001015160f81c60f81b60f81c6117be565b6109649190612bd9565b61096e9190612c14565b60f81b828281518110610984576109836125f8565b5b60200101907effffffffffffffffffffffffffffffffffffffffffffffffffffffffffffff1916908160001a905350806109bd9061286a565b90506108cd565b508092505050919050565b606060008290506002815110158015610a4757507f220000000000000000000000000000000000000000000000000000000000000081600081518110610a1857610a176125f8565b5b602001015160f81c60f81b7effffffffffffffffffffffffffffffffffffffffffffffffffffffffffffff1916145b8015610abe57507f22000000000000000000000000000000000000000000000000000000000000008160018351610a7e91906127c8565b81518110610a8f57610a8e6125f8565b5b602001015160f81c60f81b7effffffffffffffffffffffffffffffffffffffffffffffffffffffffffffff1916145b610afd576040517f08c379a0000000000000000000000000000000000000000000000000000000008152600401610af490612c97565b60405180910390fd5b600060028251610b0d91906127c8565b67ffffffffffffffff811115610b2657610b25611d3d565b5b6040519080825280601f01601f191660200182016040528015610b585781602001600182028036833780820191505090505b5090506000600190505b60018351610b7091906127c8565b811015610bf657828181518110610b8a57610b896125f8565b5b602001015160f81c60f81b82600183610ba391906127c8565b81518110610bb457610bb36125f8565b5b60200101907effffffffffffffffffffffffffffffffffffffffffffffffffffffffffffff1916908160001a9053508080610bee9061286a565b915050610b62565b508092505050919050565b600081516001811160208085015160f01c17613078141660011b5b600115610c84576001810190507403010a071000000b0104040208000c05090d060e0f6d03e4088843e41bac00000000000060ff83870151161c601f161a8360fc1c8115171583029250600181038460041b019350828210610c7e5750610c84565b50610c1c565b81610c975763101827966000526004601cfd5b5050919050565b6060600080634320000273ffffffffffffffffffffffffffffffffffffffff1684604051602001610ccf9190612ee9565b604051602081830303815290604052604051610ceb9190612f0b565b6000604051808303816000865af19150503d8060008114610d28576040519150601f19603f3d011682016040523d82523d6000602084013e610d2d565b606091505b509150915081610d7a576343200002816040517f75fff467000000000000000000000000000000000000000000000000000000008152600401610d71929190612f31565b60405180910390fd5b80806020019051810190610d8e9190612fd1565b92505050919050565b610d9f611c5b565b806040526000610db8610db184611b63565b60ff610efa565b905080915050919050565b610dcb611c5b565b8060405260609050610ddc83611b6d565b15610e40576000828051906020012090506000610df885611b84565b9050600060058251901b90505b60008114610e3c5780820151955060208103905082610e2387611ba6565b8051906020012003610e3757859350610e3c565b610e05565b5050505b92915050565b60008060ff166007836000015116149050919050565b6060610e6782611bd8565b90506002815101613078825260028203915080825250919050565b60608151600260405101915080810182526f30313233343536373839616263646566600f52602082018184015b808514610edd57600185019450600f855116516001830153600f855160041c16518253600282019150610eaf565b6000825260208201604052505050919050565b6000819050919050565b6000611706565b63101827966000526004601cfd5b6000815160001a9050919050565b60008190505b600115610f4d576001640100002600610f3b83610f0f565b1c1615610f4e57600181019050610f23565b5b92915050565b600063ffffffff84113d3d3e83831b8263ffffffff851b19161790509392505050565b600081831c63ffffffff16905092915050565b60006040519050610faf8486036078610faa602086018803605888610f54565b610f54565b925085831781526020810160405295945050505050565b600080610fd7846018600051610f54565b610fe18787610f1d565b9150868210610ff05750611143565b610ff982610f0f565b600115611134576022810361102d578261101589858589611385565b935061102560048583868a610f8a565b945050611134565b605b810361104a576110418884848861114c565b93509350611134565b607b81036110675761105e88848488611224565b93509350611134565b6001611ff9602d1b821c161561108c5761108388848488611494565b93509350611134565b8760048401116110ef5782835160e01c637472756581036110c4576004850194506110bb60058684878b610f8a565b95505050611134565b636e756c6c81036110ec576004850194506110e360068684878b610f8a565b95505050611134565b50505b87600584011161112b5782835160d81c6466616c736581036111285760058501945061111f60058684878b610f8a565b95505050611134565b50505b611133610f01565b5b5061113f8783610f1d565b9150505b94509492505050565b60008060006001860191505b6001156111f65786821061116f5761116e610f01565b5b826111925761117e8783610f1d565b9150605d61118b83610f0f565b03156111f6575b61119e87838587610fc6565b9250925082156111e7576111b88160988551604017610f54565b83526001810190506111c982610f0f565b605d81036111d757506111f6565b602c81036111e557506111eb565b505b8691505b600182019150611158565b60018201915061120883603887610f54565b9450611218600183888888610f8a565b92505094509492505050565b6000806001850190505b6001156113175785811061124557611244610f01565b5b81611268576112548682610f1d565b9050607d61126182610f0f565b0315611317575b6112728682610f1d565b90508061128187838587611385565b61128b8882610f1d565b9250603a61129884610f0f565b03611306576112ac88600185018688610fc6565b935093508315611305576112d860208601830360986112d385850360b88951608017610f54565b610f54565b84526112e383610f0f565b607d81036112f357505050611317565b602c81036113035750505061130c565b505b5b87925050505b60018101905061122e565b60018101905061132982603886610f54565b9350611339600282878787610f8a565b915094509492505050565b6001667e0000007e03ff603061135b858501610f0f565b031c1661136b5761136a610f01565b5b60058214611381576113806001830182611344565b5b5050565b600084841061139757611396610f01565b5b6001840190505b600115611430576113ae81610f0f565b602281036113bc5750611430565b605c81146113d0576001820191505061142b565b6113dc60018301610f0f565b905060016a0510110400000000002001602283031c1615611403576002820191505061142b565b6075810361142257611416600283611344565b6006820191505061142b565b85915050611430565b61139e565b8481106114405761143f610f01565b5b600181019050949350505050565b60008190505b60011561147a57600a603061146883610f0f565b03101561147a57600181019050611454565b80821484161561148d5761148c610f01565b5b9392505050565b600080849050602d6114a582610f0f565b036114b1576001810190505b600a60306114be83610f0f565b03106114cd576114cc610f01565b5b6114d681610f0f565b600182019150603081146114f3576114f06000888461144e565b91505b602e6114fe83610f0f565b03611515576115126001886001850161144e565b91505b815160658160001a60201703611544576115416001896001860162010001600e8660011a031a0161144e565b92505b611552600384898989610f8a565b9350505094509492505050565b600060405190508282019150601f1980601f8601165b60011561158f578084015181840152818101905080611575575b50848252600085602084010152846040830101604052509392505050565b6000606090508151600281600716116116995782158115176116995760208116156115e4576115dd603882610f77565b9150611699565b6040519150602082016115f8603883610f77565b5b801561162d57808252805161160f601882610f77565b61161b87601884610f54565b835280925060208401935050506115f9565b50601f1983820381018060051c85528260405261164c85603886610f54565b93508360201786526040811061169557602085018186015b60011561169257815181518352808252848201915060208301925081831061168c5750611692565b50611664565b50505b5050505b50919050565b60006060905081518015831517156116b757506116fe565b6116c18482610f77565b91508086166116fc576116d560d882610f77565b6116e96116e28784610f77565b848361155f565b92506116f6838684610f54565b87178452505b505b949350505050565b816000811461177f576001811461179557600381146117ab5760208401845181018082146117645761173781610f0f565b6022825361174b8760d8602260f81b610f54565b60005261175b828460008a610fc6565b93509450808253505b8315818310171561177857611777610f01565b5b50506117b7565b61178e6010607860588761169f565b91506117b7565b6117a4600860b860988761169f565b91506117b7565b6117b4846115ad565b91505b5092915050565b60007f30000000000000000000000000000000000000000000000000000000000000007effffffffffffffffffffffffffffffffffffffffffffffffffffffffffffff19168260f81b7effffffffffffffffffffffffffffffffffffffffffffffffffffffffffffff19161015801561189e57507f39000000000000000000000000000000000000000000000000000000000000007effffffffffffffffffffffffffffffffffffffffffffffffffffffffffffff19168260f81b7effffffffffffffffffffffffffffffffffffffffffffffffffffffffffffff191611155b156118d9577f300000000000000000000000000000000000000000000000000000000000000060f81c826118d2919061301a565b9050611b5e565b7f61000000000000000000000000000000000000000000000000000000000000007effffffffffffffffffffffffffffffffffffffffffffffffffffffffffffff19168260f81b7effffffffffffffffffffffffffffffffffffffffffffffffffffffffffffff1916101580156119b757507f66000000000000000000000000000000000000000000000000000000000000007effffffffffffffffffffffffffffffffffffffffffffffffffffffffffffff19168260f81b7effffffffffffffffffffffffffffffffffffffffffffffffffffffffffffff191611155b156119fe577f610000000000000000000000000000000000000000000000000000000000000060f81c82600a6119ed9190612c14565b6119f7919061301a565b9050611b5e565b7f41000000000000000000000000000000000000000000000000000000000000007effffffffffffffffffffffffffffffffffffffffffffffffffffffffffffff19168260f81b7effffffffffffffffffffffffffffffffffffffffffffffffffffffffffffff191610158015611adc57507f46000000000000000000000000000000000000000000000000000000000000007effffffffffffffffffffffffffffffffffffffffffffffffffffffffffffff19168260f81b7effffffffffffffffffffffffffffffffffffffffffffffffffffffffffffff191611155b15611b23577f410000000000000000000000000000000000000000000000000000000000000060f81c82600a611b129190612c14565b611b1c919061301a565b9050611b5e565b6040517f08c379a0000000000000000000000000000000000000000000000000000000008152600401611b559061309a565b60405180910390fd5b919050565b6000819050919050565b6000600260ff166007836000015116149050919050565b60606000611b9b611b9484610ef0565b6003610efa565b905080915050919050565b60606000608083600001511614611bd3576000611bcc611bc584610ef0565b6001610efa565b9050809150505b919050565b60606040519050608081016040526f30313233343536373839616263646566600f526002810190506028815260208101600060288201528260601b925060005b600115611c5457808101820184821a600f81165160018301538060041c51825360018301925060148303611c4d575050611c54565b5050611c18565b5050919050565b6040518060200160405280600081525090565b6040518060c0016040528060608152602001606081526020016060815260200160608152602001600015158152602001600067ffffffffffffffff1681525090565b6000604051905090565b600080fd5b600080fd5b600073ffffffffffffffffffffffffffffffffffffffff82169050919050565b6000611cef82611cc4565b9050919050565b611cff81611ce4565b8114611d0a57600080fd5b50565b600081359050611d1c81611cf6565b92915050565b600080fd5b600080fd5b6000601f19601f8301169050919050565b7f4e487b7100000000000000000000000000000000000000000000000000000000600052604160045260246000fd5b611d7582611d2c565b810181811067ffffffffffffffff82111715611d9457611d93611d3d565b5b80604052505050565b6000611da7611cb0565b9050611db38282611d6c565b919050565b600067ffffffffffffffff821115611dd357611dd2611d3d565b5b611ddc82611d2c565b9050602081019050919050565b82818337600083830152505050565b6000611e0b611e0684611db8565b611d9d565b905082815260208101848484011115611e2757611e26611d27565b5b611e32848285611de9565b509392505050565b600082601f830112611e4f57611e4e611d22565b5b8135611e5f848260208601611df8565b91505092915050565b60008060408385031215611e7f57611e7e611cba565b5b6000611e8d85828601611d0d565b925050602083013567ffffffffffffffff811115611eae57611ead611cbf565b5b611eba85828601611e3a565b9150509250929050565b600081519050919050565b600082825260208201905092915050565b60005b83811015611efe578082015181840152602081019050611ee3565b83811115611f0d576000848401525b50505050565b6000611f1e82611ec4565b611f288185611ecf565b9350611f38818560208601611ee0565b611f4181611d2c565b840191505092915050565b60006020820190508181036000830152611f668184611f13565b905092915050565b600060208284031215611f8457611f83611cba565b5b6000611f9284828501611d0d565b91505092915050565b6000819050919050565b611fae81611f9b565b82525050565b6000602082019050611fc96000830184611fa5565b92915050565b600067ffffffffffffffff821115611fea57611fe9611d3d565b5b602082029050602081019050919050565b600080fd5b600080fd5b600080fd5b6000604082840312156120205761201f612000565b5b61202a6040611d9d565b9050600061203a84828501611d0d565b600083015250602082013567ffffffffffffffff81111561205e5761205d612005565b5b61206a84828501611e3a565b60208301525092915050565b600061208961208484611fcf565b611d9d565b905080838252602082019050602084028301858111156120ac576120ab611ffb565b5b835b818110156120f357803567ffffffffffffffff8111156120d1576120d0611d22565b5b8086016120de898261200a565b855260208501945050506020810190506120ae565b5050509392505050565b600082601f83011261211257612111611d22565b5b8135612122848260208601612076565b91505092915050565b60008060006060848603121561214457612143611cba565b5b600061215286828701611d0d565b935050602084013567ffffffffffffffff81111561217357612172611cbf565b5b61217f86828701611e3a565b925050604084013567ffffffffffffffff8111156121a05761219f611cbf565b5b6121ac868287016120fd565b9150509250925092565b600067ffffffffffffffff8211156121d1576121d0611d3d565b5b6121da82611d2c565b9050602081019050919050565b60006121fa6121f5846121b6565b611d9d565b90508281526020810184848401111561221657612215611d27565b5b612221848285611de9565b509392505050565b600082601f83011261223e5761223d611d22565b5b813561224e8482602086016121e7565b91505092915050565b60006020828403121561226d5761226c611cba565b5b600082013567ffffffffffffffff81111561228b5761228a611cbf565b5b61229784828501612229565b91505092915050565b6122a981611f9b565b82525050565b6020820160008201516122c560008501826122a0565b50505050565b60006020820190506122e060008301846122af565b92915050565b600081905092915050565b7f7b226a736f6e727063223a22322e30222c226d6574686f64223a226574685f6360008201527f616c6c222c22706172616d73223a5b7b22746f223a2200000000000000000000602082015250565b600061234d6036836122e6565b9150612358826122f1565b603682019050919050565b600081519050919050565b600061237982612363565b61238381856122e6565b9350612393818560208601611ee0565b80840191505092915050565b7f222c2264617461223a2200000000000000000000000000000000000000000000600082015250565b60006123d5600a836122e6565b91506123e08261239f565b600a82019050919050565b7f227d2c226c6174657374225d2c226964223a317d000000000000000000000000600082015250565b60006124216014836122e6565b915061242c826123eb565b601482019050919050565b600061244282612340565b915061244e828561236e565b9150612459826123c8565b9150612465828461236e565b915061247082612414565b91508190509392505050565b7f7b226a736f6e727063223a22322e30222c226d6574686f64223a226574685f6760008201527f65745472616e73616374696f6e436f756e74222c22706172616d73223a5b2200602082015250565b60006124d8603f836122e6565b91506124e38261247c565b603f82019050919050565b7f222c226c6174657374225d2c226964223a317d00000000000000000000000000600082015250565b60006125246013836122e6565b915061252f826124ee565b601382019050919050565b6000612545826124cb565b9150612551828461236e565b915061255c82612517565b915081905092915050565b7f227d2c226c6174657374222c7b00000000000000000000000000000000000000600082015250565b600061259d600d836122e6565b91506125a882612567565b600d82019050919050565b60006125be82612340565b91506125ca828561236e565b91506125d5826123c8565b91506125e1828461236e565b91506125ec82612590565b91508190509392505050565b7f4e487b7100000000000000000000000000000000000000000000000000000000600052603260045260246000fd5b600081905092915050565b600061263d82611ec4565b6126478185612627565b9350612657818560208601611ee0565b80840191505092915050565b7f2200000000000000000000000000000000000000000000000000000000000000600082015250565b60006126996001836122e6565b91506126a482612663565b600182019050919050565b7f223a207b22636f6465223a202200000000000000000000000000000000000000600082015250565b60006126e5600d836122e6565b91506126f0826126af565b600d82019050919050565b7f227d000000000000000000000000000000000000000000000000000000000000600082015250565b60006127316002836122e6565b915061273c826126fb565b600282019050919050565b60006127538286612632565b915061275e8261268c565b915061276a828561236e565b9150612775826126d8565b9150612781828461236e565b915061278c82612724565b9150819050949350505050565b7f4e487b7100000000000000000000000000000000000000000000000000000000600052601160045260246000fd5b60006127d382611f9b565b91506127de83611f9b565b9250828210156127f1576127f0612799565b5b828203905092915050565b7f2c00000000000000000000000000000000000000000000000000000000000000600082015250565b60006128326001836122e6565b915061283d826127fc565b600182019050919050565b60006128548284612632565b915061285f82612825565b915081905092915050565b600061287582611f9b565b91507fffffffffffffffffffffffffffffffffffffffffffffffffffffffffffffffff82036128a7576128a6612799565b5b600182019050919050565b7f7d5d2c226964223a317d00000000000000000000000000000000000000000000600082015250565b60006128e8600a836122e6565b91506128f3826128b2565b600a82019050919050565b600061290a8284612632565b9150612915826128db565b915081905092915050565b7f4e487b7100000000000000000000000000000000000000000000000000000000600052602260045260246000fd5b6000600282049050600182168061296757607f821691505b60208210810361297a57612979612920565b5b50919050565b600082825260208201905092915050565b600061299c82612363565b6129a68185612980565b93506129b6818560208601611ee0565b6129bf81611d2c565b840191505092915050565b600060208201905081810360008301526129e48184612991565b905092915050565b7f7b226a736f6e727063223a22322e30222c226d6574686f64223a226574685f6760008201527f657442616c616e6365222c22706172616d73223a5b2200000000000000000000602082015250565b6000612a486036836122e6565b9150612a53826129ec565b603682019050919050565b6000612a6982612a3b565b9150612a75828461236e565b9150612a8082612517565b915081905092915050565b7f4e487b7100000000000000000000000000000000000000000000000000000000600052601260045260246000fd5b6000612ac582611f9b565b9150612ad083611f9b565b925082612ae057612adf612a8b565b5b828206905092915050565b6000612af682611f9b565b9150612b0183611f9b565b925082612b1157612b10612a8b565b5b828204905092915050565b6000612b2782611f9b565b9150612b3283611f9b565b9250817fffffffffffffffffffffffffffffffffffffffffffffffffffffffffffffffff0483118215151615612b6b57612b6a612799565b5b828202905092915050565b6000612b8182611f9b565b9150612b8c83611f9b565b9250827fffffffffffffffffffffffffffffffffffffffffffffffffffffffffffffffff03821115612bc157612bc0612799565b5b828201905092915050565b600060ff82169050919050565b6000612be482612bcc565b9150612bef83612bcc565b92508160ff0483118215151615612c0957612c08612799565b5b828202905092915050565b6000612c1f82612bcc565b9150612c2a83612bcc565b92508260ff03821115612c4057612c3f612799565b5b828201905092915050565b7f496e76616c696420696e70757400000000000000000000000000000000000000600082015250565b6000612c81600d83612980565b9150612c8c82612c4b565b602082019050919050565b60006020820190508181036000830152612cb081612c74565b9050919050565b600082825260208201905092915050565b6000612cd382612363565b612cdd8185612cb7565b9350612ced818560208601611ee0565b612cf681611d2c565b840191505092915050565b600081519050919050565b600082825260208201905092915050565b6000819050602082019050919050565b6000612d398383612cc8565b905092915050565b6000602082019050919050565b6000612d5982612d01565b612d638185612d0c565b935083602082028501612d7585612d1d565b8060005b85811015612db15784840389528151612d928582612d2d565b9450612d9d83612d41565b925060208a01995050600181019050612d79565b50829750879550505050505092915050565b600082825260208201905092915050565b6000612ddf82611ec4565b612de98185612dc3565b9350612df9818560208601611ee0565b612e0281611d2c565b840191505092915050565b60008115159050919050565b612e2281612e0d565b82525050565b600067ffffffffffffffff82169050919050565b612e4581612e28565b82525050565b600060c0830160008301518482036000860152612e688282612cc8565b91505060208301518482036020860152612e828282612cc8565b91505060408301518482036040860152612e9c8282612d4e565b91505060608301518482036060860152612eb68282612dd4565b9150506080830151612ecb6080860182612e19565b5060a0830151612ede60a0860182612e3c565b508091505092915050565b60006020820190508181036000830152612f038184612e4b565b905092915050565b6000612f178284612632565b915081905092915050565b612f2b81611ce4565b82525050565b6000604082019050612f466000830185612f22565b8181036020830152612f588184611f13565b90509392505050565b6000612f74612f6f84611db8565b611d9d565b905082815260208101848484011115612f9057612f8f611d27565b5b612f9b848285611ee0565b509392505050565b600082601f830112612fb857612fb7611d22565b5b8151612fc8848260208601612f61565b91505092915050565b600060208284031215612fe757612fe6611cba565b5b600082015167ffffffffffffffff81111561300557613004611cbf565b5b61301184828501612fa3565b91505092915050565b600061302582612bcc565b915061303083612bcc565b92508282101561304357613042612799565b5b828203905092915050565b7f6661696c00000000000000000000000000000000000000000000000000000000600082015250565b6000613084600483612980565b915061308f8261304e565b602082019050919050565b600060208201905081810360008301526130b381613077565b905091905056fea26469706673582212204dadfc3dd7b06dfdfe2b4f230bd018ff4a7ae14b939f862a6b425e706648651f64736f6c634300080d0033",
  "devdoc": {
    "kind": "dev",
    "methods": {},
    "version": 1
  },
  "userdoc": {
    "kind": "user",
    "methods": {},
    "version": 1
  },
  "storageLayout": {
    "storage": [
      {
        "astId": 26,
        "contract": "contracts/Auction.sol:TokenAuction",
        "label": "vault",
        "offset": 0,
        "slot": "0",
        "type": "t_address"
      },
      {
        "astId": 28,
        "contract": "contracts/Auction.sol:TokenAuction",
        "label": "auctionMaster",
        "offset": 0,
        "slot": "1",
        "type": "t_address"
      },
      {
        "astId": 32,
        "contract": "contracts/Auction.sol:TokenAuction",
        "label": "auctions",
        "offset": 0,
        "slot": "2",
        "type": "t_array(t_struct(Auction)1766_storage)dyn_storage"
      },
      {
        "astId": 34,
        "contract": "contracts/Auction.sol:TokenAuction",
        "label": "isInitialized",
        "offset": 0,
        "slot": "3",
        "type": "t_bool"
      },
      {
        "astId": 37,
        "contract": "contracts/Auction.sol:TokenAuction",
        "label": "vaultRemote",
        "offset": 1,
        "slot": "3",
        "type": "t_contract(ISettlementVault)1737"
      },
      {
        "astId": 40,
        "contract": "contracts/Auction.sol:TokenAuction",
        "label": "pkDataId",
        "offset": 0,
        "slot": "4",
        "type": "t_userDefinedValueType(DataId)10789"
      },
      {
        "astId": 43,
        "contract": "contracts/Auction.sol:TokenAuction",
        "label": "bidCountDataId",
        "offset": 16,
        "slot": "4",
        "type": "t_userDefinedValueType(DataId)10789"
      }
    ],
    "types": {
      "t_address": {
        "encoding": "inplace",
        "label": "address",
        "numberOfBytes": "20"
      },
      "t_array(t_struct(Auction)1766_storage)dyn_storage": {
        "base": "t_struct(Auction)1766_storage",
        "encoding": "dynamic_array",
        "label": "struct Auction[]",
        "numberOfBytes": "32"
      },
      "t_bool": {
        "encoding": "inplace",
        "label": "bool",
        "numberOfBytes": "1"
      },
      "t_bytes32": {
        "encoding": "inplace",
        "label": "bytes32",
        "numberOfBytes": "32"
      },
      "t_contract(ISettlementVault)1737": {
        "encoding": "inplace",
        "label": "contract ISettlementVault",
        "numberOfBytes": "20"
      },
      "t_enum(AuctionStatus)1745": {
        "encoding": "inplace",
        "label": "enum AuctionStatus",
        "numberOfBytes": "1"
      },
      "t_struct(Auction)1766_storage": {
        "encoding": "inplace",
        "label": "struct Auction",
        "members": [
          {
            "astId": 1747,
            "contract": "contracts/Auction.sol:TokenAuction",
            "label": "payoutAddress",
            "offset": 0,
            "slot": "0",
            "type": "t_address"
          },
          {
            "astId": 1750,
            "contract": "contracts/Auction.sol:TokenAuction",
            "label": "status",
            "offset": 20,
            "slot": "0",
            "type": "t_enum(AuctionStatus)1745"
          },
          {
            "astId": 1753,
            "contract": "contracts/Auction.sol:TokenAuction",
            "label": "tokenDataId",
            "offset": 0,
            "slot": "1",
            "type": "t_userDefinedValueType(DataId)10789"
          },
          {
            "astId": 1755,
            "contract": "contracts/Auction.sol:TokenAuction",
            "label": "hashedToken",
            "offset": 0,
            "slot": "2",
            "type": "t_bytes32"
          },
          {
            "astId": 1757,
            "contract": "contracts/Auction.sol:TokenAuction",
            "label": "bids",
            "offset": 0,
            "slot": "3",
            "type": "t_uint32"
          },
          {
            "astId": 1759,
            "contract": "contracts/Auction.sol:TokenAuction",
            "label": "until",
            "offset": 4,
            "slot": "3",
            "type": "t_uint64"
          },
          {
            "astId": 1761,
            "contract": "contracts/Auction.sol:TokenAuction",
            "label": "payoutCollectionDuration",
            "offset": 12,
            "slot": "3",
            "type": "t_uint64"
          },
          {
            "astId": 1763,
            "contract": "contracts/Auction.sol:TokenAuction",
            "label": "auctioneer",
            "offset": 0,
            "slot": "4",
            "type": "t_address"
          },
          {
            "astId": 1765,
            "contract": "contracts/Auction.sol:TokenAuction",
            "label": "winner",
            "offset": 0,
            "slot": "5",
            "type": "t_address"
          }
        ],
        "numberOfBytes": "192"
      },
      "t_uint32": {
        "encoding": "inplace",
        "label": "uint32",
        "numberOfBytes": "4"
      },
      "t_uint64": {
        "encoding": "inplace",
        "label": "uint64",
        "numberOfBytes": "8"
      },
      "t_userDefinedValueType(DataId)10789": {
        "encoding": "inplace",
        "label": "Suave.DataId",
        "numberOfBytes": "16"
      }
    }
  }
}