{
  "address": "0x1865e4Fab145875b6AFf513AF496340a9a2Abb52",
  "abi": [
    {
      "anonymous": false,
      "inputs": [
        {
          "indexed": true,
          "internalType": "address",
          "name": "account",
          "type": "address"
        },
        {
          "indexed": false,
          "internalType": "uint192",
          "name": "amount",
          "type": "uint192"
        },
        {
          "indexed": true,
          "internalType": "address",
          "name": "to",
          "type": "address"
        }
      ],
      "name": "FundsTaken",
      "type": "event"
    },
    {
      "anonymous": false,
      "inputs": [
        {
          "indexed": true,
          "internalType": "address",
          "name": "account",
          "type": "address"
        },
        {
          "indexed": false,
          "internalType": "uint192",
          "name": "amount",
          "type": "uint192"
        },
        {
          "indexed": false,
          "internalType": "uint64",
          "name": "unlockTimestamp",
          "type": "uint64"
        }
      ],
      "name": "Locked",
      "type": "event"
    },
    {
      "anonymous": false,
      "inputs": [
        {
          "indexed": true,
          "internalType": "address",
          "name": "account",
          "type": "address"
        },
        {
          "indexed": false,
          "internalType": "uint64",
          "name": "unlockTimestamp",
          "type": "uint64"
        }
      ],
      "name": "ScheduledUnlock",
      "type": "event"
    },
    {
      "anonymous": false,
      "inputs": [
        {
          "indexed": true,
          "internalType": "address",
          "name": "account",
          "type": "address"
        },
        {
          "indexed": false,
          "internalType": "uint192",
          "name": "amount",
          "type": "uint192"
        }
      ],
      "name": "Withdrawn",
      "type": "event"
    },
    {
      "inputs": [],
      "name": "TAKER_ROLE",
      "outputs": [
        {
          "internalType": "bytes32",
          "name": "",
          "type": "bytes32"
        }
      ],
      "stateMutability": "view",
      "type": "function"
    },
    {
      "inputs": [],
      "name": "auctionMaster",
      "outputs": [
        {
          "internalType": "address",
          "name": "",
          "type": "address"
        }
      ],
      "stateMutability": "view",
      "type": "function"
    },
    {
      "inputs": [
        {
          "internalType": "address",
          "name": "account",
          "type": "address"
        }
      ],
      "name": "getBalance",
      "outputs": [
        {
          "internalType": "uint256",
          "name": "",
          "type": "uint256"
        },
        {
          "internalType": "uint64",
          "name": "",
          "type": "uint64"
        }
      ],
      "stateMutability": "view",
      "type": "function"
    },
    {
      "inputs": [],
      "name": "lock",
      "outputs": [],
      "stateMutability": "payable",
      "type": "function"
    },
    {
      "inputs": [
        {
          "internalType": "address",
          "name": "_auctionMaster",
          "type": "address"
        }
      ],
      "name": "registerAuctionMaster",
      "outputs": [],
      "stateMutability": "nonpayable",
      "type": "function"
    },
    {
      "inputs": [],
      "name": "scheduleUnlock",
      "outputs": [],
      "stateMutability": "nonpayable",
      "type": "function"
    },
    {
      "inputs": [
        {
          "internalType": "address",
          "name": "account",
          "type": "address"
        },
        {
          "internalType": "uint192",
          "name": "amount",
          "type": "uint192"
        },
        {
          "internalType": "address",
          "name": "to",
          "type": "address"
        },
        {
          "internalType": "bytes",
          "name": "payoutSignature",
          "type": "bytes"
        }
      ],
      "name": "takeFunds",
      "outputs": [],
      "stateMutability": "nonpayable",
      "type": "function"
    },
    {
      "inputs": [],
      "name": "withdraw",
      "outputs": [],
      "stateMutability": "nonpayable",
      "type": "function"
    }
  ],
  "transactionHash": "0x31bc00714a920edfb861fb4cc6592c538fd76b39b769be156b9c4fd54cc4b571",
  "args": [],
  "numDeployments": 1,
  "solcInputHash": "ee0e0decc05bd47b4f2e676d95c15fff",
  "bytecode": "0x60c06040526201518067ffffffffffffffff1660809067ffffffffffffffff168152503373ffffffffffffffffffffffffffffffffffffffff1660a09073ffffffffffffffffffffffffffffffffffffffff1681525034801561006157600080fd5b5060805160a05161186d61008760003960006104e8015260006108ae015261186d6000f3fe60806040526004361061007b5760003560e01c8063ea477dc81161004e578063ea477dc814610114578063f65de94a1461012b578063f83d08ba14610156578063f8b2cb4f146101605761007b565b80633ccfd60b146100805780634ca89c2c14610097578063ae5cf1d5146100c2578063e0b0020f146100eb575b600080fd5b34801561008c57600080fd5b5061009561019e565b005b3480156100a357600080fd5b506100ac61042f565b6040516100b99190610eff565b60405180910390f35b3480156100ce57600080fd5b506100e960048036038101906100e49190610f5a565b610455565b005b3480156100f757600080fd5b50610112600480360381019061010d919061111d565b6105b8565b005b34801561012057600080fd5b50610129610808565b005b34801561013757600080fd5b50610140610993565b60405161014d91906111b9565b60405180910390f35b61015e6109b7565b005b34801561016c57600080fd5b5061018760048036038101906101829190610f5a565b610b4c565b604051610195929190611210565b60405180910390f35b60008060003373ffffffffffffffffffffffffffffffffffffffff1673ffffffffffffffffffffffffffffffffffffffff1681526020019081526020016000206040518060400160405290816000820160009054906101000a900467ffffffffffffffff1667ffffffffffffffff1667ffffffffffffffff1681526020016000820160089054906101000a900477ffffffffffffffffffffffffffffffffffffffffffffffff1677ffffffffffffffffffffffffffffffffffffffffffffffff1677ffffffffffffffffffffffffffffffffffffffffffffffff1681525050905042816000015167ffffffffffffffff1611156102d0576040517f08c379a00000000000000000000000000000000000000000000000000000000081526004016102c790611296565b60405180910390fd5b6040518060400160405280600067ffffffffffffffff168152602001600077ffffffffffffffffffffffffffffffffffffffffffffffff168152506000803373ffffffffffffffffffffffffffffffffffffffff1673ffffffffffffffffffffffffffffffffffffffff16815260200190815260200160002060008201518160000160006101000a81548167ffffffffffffffff021916908367ffffffffffffffff16021790555060208201518160000160086101000a81548177ffffffffffffffffffffffffffffffffffffffffffffffff021916908377ffffffffffffffffffffffffffffffffffffffffffffffff1602179055509050506000816020015190506103dd3382610c31565b3373ffffffffffffffffffffffffffffffffffffffff167f47cf194f5e559cca0413017d38814a7843cc6f3052bc43c8085938774ae581518260405161042391906112c5565b60405180910390a25050565b600160009054906101000a900473ffffffffffffffffffffffffffffffffffffffff1681565b600073ffffffffffffffffffffffffffffffffffffffff16600160009054906101000a900473ffffffffffffffffffffffffffffffffffffffff1673ffffffffffffffffffffffffffffffffffffffff16146104e6576040517f08c379a00000000000000000000000000000000000000000000000000000000081526004016104dd9061132c565b60405180910390fd5b7f000000000000000000000000000000000000000000000000000000000000000073ffffffffffffffffffffffffffffffffffffffff163373ffffffffffffffffffffffffffffffffffffffff1614610574576040517f08c379a000000000000000000000000000000000000000000000000000000000815260040161056b90611398565b60405180910390fd5b80600160006101000a81548173ffffffffffffffffffffffffffffffffffffffff021916908373ffffffffffffffffffffffffffffffffffffffff16021790555050565b61060660405180604001604052808673ffffffffffffffffffffffffffffffffffffffff1681526020018577ffffffffffffffffffffffffffffffffffffffffffffffff1681525082610cfc565b8277ffffffffffffffffffffffffffffffffffffffffffffffff166000808673ffffffffffffffffffffffffffffffffffffffff1673ffffffffffffffffffffffffffffffffffffffff16815260200190815260200160002060000160089054906101000a900477ffffffffffffffffffffffffffffffffffffffffffffffff1677ffffffffffffffffffffffffffffffffffffffffffffffff1610156106e2576040517f08c379a00000000000000000000000000000000000000000000000000000000081526004016106d990611404565b60405180910390fd5b826000808673ffffffffffffffffffffffffffffffffffffffff1673ffffffffffffffffffffffffffffffffffffffff16815260200190815260200160002060000160088282829054906101000a900477ffffffffffffffffffffffffffffffffffffffffffffffff160392506101000a81548177ffffffffffffffffffffffffffffffffffffffffffffffff021916908377ffffffffffffffffffffffffffffffffffffffffffffffff16021790555061079d3384610c31565b8173ffffffffffffffffffffffffffffffffffffffff168473ffffffffffffffffffffffffffffffffffffffff167fc180277adfd769578ae3840b13fbf8e72d19aea1d030435da520e3f2285e527e856040516107fa91906112c5565b60405180910390a350505050565b60008060003373ffffffffffffffffffffffffffffffffffffffff1673ffffffffffffffffffffffffffffffffffffffff16815260200190815260200160002060000160009054906101000a900467ffffffffffffffff1667ffffffffffffffff16116108aa576040517f08c379a00000000000000000000000000000000000000000000000000000000081526004016108a190611470565b60405180910390fd5b60007f0000000000000000000000000000000000000000000000000000000000000000426108d891906114bf565b9050806000803373ffffffffffffffffffffffffffffffffffffffff1673ffffffffffffffffffffffffffffffffffffffff16815260200190815260200160002060000160006101000a81548167ffffffffffffffff021916908367ffffffffffffffff1602179055503373ffffffffffffffffffffffffffffffffffffffff167f1e4d7daa55eb36e3f003920d231b23fe4fa76d7d5e83328d8b5a13217f7486278260405161098891906114fd565b60405180910390a250565b7f508ee82d0bdf04e000303ab4f02b172e60c5f2d35b2e559b05bed2cf403bb58b81565b600034116109fa576040517f08c379a00000000000000000000000000000000000000000000000000000000081526004016109f190611564565b60405180910390fd5b604051806040016040528067ffffffffffffffff801681526020013477ffffffffffffffffffffffffffffffffffffffffffffffff168152506000803373ffffffffffffffffffffffffffffffffffffffff1673ffffffffffffffffffffffffffffffffffffffff16815260200190815260200160002060008201518160000160006101000a81548167ffffffffffffffff021916908367ffffffffffffffff16021790555060208201518160000160086101000a81548177ffffffffffffffffffffffffffffffffffffffffffffffff021916908377ffffffffffffffffffffffffffffffffffffffffffffffff1602179055509050503373ffffffffffffffffffffffffffffffffffffffff167f46e0212fcc31845d59d15ee73a636453da2ae166a6fa17347997e4e9c580c3163467ffffffffffffffff604051610b42929190611584565b60405180910390a2565b6000806000808473ffffffffffffffffffffffffffffffffffffffff1673ffffffffffffffffffffffffffffffffffffffff16815260200190815260200160002060000160089054906101000a900477ffffffffffffffffffffffffffffffffffffffffffffffff166000808573ffffffffffffffffffffffffffffffffffffffff1673ffffffffffffffffffffffffffffffffffffffff16815260200190815260200160002060000160009054906101000a900467ffffffffffffffff168177ffffffffffffffffffffffffffffffffffffffffffffffff16915091509150915091565b60008273ffffffffffffffffffffffffffffffffffffffff168277ffffffffffffffffffffffffffffffffffffffffffffffff16604051610c71906115de565b60006040518083038185875af1925050503d8060008114610cae576040519150601f19603f3d011682016040523d82523d6000602084013e610cb3565b606091505b5050905080610cf7576040517f08c379a0000000000000000000000000000000000000000000000000000000008152600401610cee9061163f565b60405180910390fd5b505050565b600082604051602001610d0f91906116ac565b6040516020818303038152906040528051906020012090506000610d338284610dcb565b9050600160009054906101000a900473ffffffffffffffffffffffffffffffffffffffff1673ffffffffffffffffffffffffffffffffffffffff168173ffffffffffffffffffffffffffffffffffffffff1614610dc5576040517f08c379a0000000000000000000000000000000000000000000000000000000008152600401610dbc90611713565b60405180910390fd5b50505050565b600080600080610dda85610e3a565b92509250925060018682858560405160008152602001604052604051610e03949392919061174f565b6020604051602081039080840390855afa158015610e25573d6000803e3d6000fd5b50505060206040510351935050505092915050565b60008060006041845114610e83576040517f08c379a0000000000000000000000000000000000000000000000000000000008152600401610e7a906117e0565b60405180910390fd5b6020840151925060408401519150606084015160001a9050601b8160ff161015610eb757601b81610eb49190611800565b90505b9193909250565b600073ffffffffffffffffffffffffffffffffffffffff82169050919050565b6000610ee982610ebe565b9050919050565b610ef981610ede565b82525050565b6000602082019050610f146000830184610ef0565b92915050565b6000604051905090565b600080fd5b600080fd5b610f3781610ede565b8114610f4257600080fd5b50565b600081359050610f5481610f2e565b92915050565b600060208284031215610f7057610f6f610f24565b5b6000610f7e84828501610f45565b91505092915050565b600077ffffffffffffffffffffffffffffffffffffffffffffffff82169050919050565b610fb481610f87565b8114610fbf57600080fd5b50565b600081359050610fd181610fab565b92915050565b600080fd5b600080fd5b6000601f19601f8301169050919050565b7f4e487b7100000000000000000000000000000000000000000000000000000000600052604160045260246000fd5b61102a82610fe1565b810181811067ffffffffffffffff8211171561104957611048610ff2565b5b80604052505050565b600061105c610f1a565b90506110688282611021565b919050565b600067ffffffffffffffff82111561108857611087610ff2565b5b61109182610fe1565b9050602081019050919050565b82818337600083830152505050565b60006110c06110bb8461106d565b611052565b9050828152602081018484840111156110dc576110db610fdc565b5b6110e784828561109e565b509392505050565b600082601f83011261110457611103610fd7565b5b81356111148482602086016110ad565b91505092915050565b6000806000806080858703121561113757611136610f24565b5b600061114587828801610f45565b945050602061115687828801610fc2565b935050604061116787828801610f45565b925050606085013567ffffffffffffffff81111561118857611187610f29565b5b611194878288016110ef565b91505092959194509250565b6000819050919050565b6111b3816111a0565b82525050565b60006020820190506111ce60008301846111aa565b92915050565b6000819050919050565b6111e7816111d4565b82525050565b600067ffffffffffffffff82169050919050565b61120a816111ed565b82525050565b600060408201905061122560008301856111de565b6112326020830184611201565b9392505050565b600082825260208201905092915050565b7f46756e647320617265207374696c6c206c6f636b656400000000000000000000600082015250565b6000611280601683611239565b915061128b8261124a565b602082019050919050565b600060208201905081810360008301526112af81611273565b9050919050565b6112bf81610f87565b82525050565b60006020820190506112da60008301846112b6565b92915050565b7f41756374696f6e206d617374657220616c726561647920736574000000000000600082015250565b6000611316601a83611239565b9150611321826112e0565b602082019050919050565b6000602082019050818103600083015261134581611309565b9050919050565b7f556e617574686f72697a65640000000000000000000000000000000000000000600082015250565b6000611382600c83611239565b915061138d8261134c565b602082019050919050565b600060208201905081810360008301526113b181611375565b9050919050565b7f496e73756666696369656e742066756e64730000000000000000000000000000600082015250565b60006113ee601283611239565b91506113f9826113b8565b602082019050919050565b6000602082019050818103600083015261141d816113e1565b9050919050565b7f4e6f2066756e6473206c6f636b65640000000000000000000000000000000000600082015250565b600061145a600f83611239565b915061146582611424565b602082019050919050565b600060208201905081810360008301526114898161144d565b9050919050565b7f4e487b7100000000000000000000000000000000000000000000000000000000600052601160045260246000fd5b60006114ca826111ed565b91506114d5836111ed565b92508267ffffffffffffffff038211156114f2576114f1611490565b5b828201905092915050565b60006020820190506115126000830184611201565b92915050565b7f56616c7565206d7573742062652067726561746572207468616e203000000000600082015250565b600061154e601c83611239565b915061155982611518565b602082019050919050565b6000602082019050818103600083015261157d81611541565b9050919050565b600060408201905061159960008301856112b6565b6115a66020830184611201565b9392505050565b600081905092915050565b50565b60006115c86000836115ad565b91506115d3826115b8565b600082019050919050565b60006115e9826115bb565b9150819050919050565b7f5472616e73666572206661696c65640000000000000000000000000000000000600082015250565b6000611629600f83611239565b9150611634826115f3565b602082019050919050565b600060208201905081810360008301526116588161161c565b9050919050565b61166881610ede565b82525050565b611677816111d4565b82525050565b604082016000820151611693600085018261165f565b5060208201516116a6602085018261166e565b50505050565b60006040820190506116c1600083018461167d565b92915050565b7f496e76616c6964207369676e6174757265000000000000000000000000000000600082015250565b60006116fd601183611239565b9150611708826116c7565b602082019050919050565b6000602082019050818103600083015261172c816116f0565b9050919050565b600060ff82169050919050565b61174981611733565b82525050565b600060808201905061176460008301876111aa565b6117716020830186611740565b61177e60408301856111aa565b61178b60608301846111aa565b95945050505050565b7f696e76616c6964207369676e6174757265206c656e6774680000000000000000600082015250565b60006117ca601883611239565b91506117d582611794565b602082019050919050565b600060208201905081810360008301526117f9816117bd565b9050919050565b600061180b82611733565b915061181683611733565b92508260ff0382111561182c5761182b611490565b5b82820190509291505056fea2646970667358221220d3c348575a7df21f3b42d9d466eda4d02cf90be900db4e0eaabcc90199eece0564736f6c634300080d0033",
  "devdoc": {
    "kind": "dev",
    "methods": {},
    "version": 1
  },
  "userdoc": {
    "kind": "user",
    "methods": {},
    "version": 1
  },
  "storageLayout": {
    "storage": [
      {
        "astId": 50,
        "contract": "contracts/SettlementVault.sol:SettlementVault",
        "label": "_balances",
        "offset": 0,
        "slot": "0",
        "type": "t_mapping(t_address,t_struct(AccountBalance)37_storage)"
      },
      {
        "astId": 56,
        "contract": "contracts/SettlementVault.sol:SettlementVault",
        "label": "auctionMaster",
        "offset": 0,
        "slot": "1",
        "type": "t_address"
      }
    ],
    "types": {
      "t_address": {
        "encoding": "inplace",
        "label": "address",
        "numberOfBytes": "20"
      },
      "t_mapping(t_address,t_struct(AccountBalance)37_storage)": {
        "encoding": "mapping",
        "key": "t_address",
        "label": "mapping(address => struct SettlementVault.AccountBalance)",
        "numberOfBytes": "32",
        "value": "t_struct(AccountBalance)37_storage"
      },
      "t_struct(AccountBalance)37_storage": {
        "encoding": "inplace",
        "label": "struct SettlementVault.AccountBalance",
        "members": [
          {
            "astId": 34,
            "contract": "contracts/SettlementVault.sol:SettlementVault",
            "label": "unlockTimestamp",
            "offset": 0,
            "slot": "0",
            "type": "t_uint64"
          },
          {
            "astId": 36,
            "contract": "contracts/SettlementVault.sol:SettlementVault",
            "label": "balance",
            "offset": 8,
            "slot": "0",
            "type": "t_uint192"
          }
        ],
        "numberOfBytes": "32"
      },
      "t_uint192": {
        "encoding": "inplace",
        "label": "uint192",
        "numberOfBytes": "24"
      },
      "t_uint64": {
        "encoding": "inplace",
        "label": "uint64",
        "numberOfBytes": "8"
      }
    }
  }
}