{
  "address": "0x2f4E4E7CFc9ebb9Ac8966529Ad30F753D98F4542",
  "abi": [
    {
      "anonymous": false,
      "inputs": [
        {
          "indexed": true,
          "internalType": "address",
          "name": "account",
          "type": "address"
        },
        {
          "indexed": false,
          "internalType": "uint192",
          "name": "amount",
          "type": "uint192"
        },
        {
          "indexed": true,
          "internalType": "address",
          "name": "to",
          "type": "address"
        }
      ],
      "name": "FundsTaken",
      "type": "event"
    },
    {
      "anonymous": false,
      "inputs": [
        {
          "indexed": true,
          "internalType": "address",
          "name": "account",
          "type": "address"
        },
        {
          "indexed": false,
          "internalType": "uint192",
          "name": "amount",
          "type": "uint192"
        },
        {
          "indexed": false,
          "internalType": "uint64",
          "name": "unlockTimestamp",
          "type": "uint64"
        }
      ],
      "name": "Locked",
      "type": "event"
    },
    {
      "anonymous": false,
      "inputs": [
        {
          "indexed": true,
          "internalType": "address",
          "name": "account",
          "type": "address"
        },
        {
          "indexed": false,
          "internalType": "uint64",
          "name": "unlockTimestamp",
          "type": "uint64"
        }
      ],
      "name": "ScheduledUnlock",
      "type": "event"
    },
    {
      "anonymous": false,
      "inputs": [
        {
          "indexed": true,
          "internalType": "address",
          "name": "account",
          "type": "address"
        },
        {
          "indexed": false,
          "internalType": "uint192",
          "name": "amount",
          "type": "uint192"
        }
      ],
      "name": "Withdrawn",
      "type": "event"
    },
    {
      "inputs": [
        {
          "internalType": "address",
          "name": "",
          "type": "address"
        }
      ],
      "name": "accountToPaymentNonce",
      "outputs": [
        {
          "internalType": "uint16",
          "name": "",
          "type": "uint16"
        }
      ],
      "stateMutability": "view",
      "type": "function"
    },
    {
      "inputs": [],
      "name": "auctionMaster",
      "outputs": [
        {
          "internalType": "address",
          "name": "",
          "type": "address"
        }
      ],
      "stateMutability": "view",
      "type": "function"
    },
    {
      "inputs": [
        {
          "internalType": "address",
          "name": "account",
          "type": "address"
        }
      ],
      "name": "getBalance",
      "outputs": [
        {
          "internalType": "uint256",
          "name": "",
          "type": "uint256"
        },
        {
          "internalType": "uint64",
          "name": "",
          "type": "uint64"
        }
      ],
      "stateMutability": "view",
      "type": "function"
    },
    {
      "inputs": [],
      "name": "lock",
      "outputs": [],
      "stateMutability": "payable",
      "type": "function"
    },
    {
      "inputs": [
        {
          "internalType": "address",
          "name": "_auctionMaster",
          "type": "address"
        }
      ],
      "name": "registerAuctionMaster",
      "outputs": [],
      "stateMutability": "nonpayable",
      "type": "function"
    },
    {
      "inputs": [],
      "name": "scheduleUnlock",
      "outputs": [],
      "stateMutability": "nonpayable",
      "type": "function"
    },
    {
      "inputs": [
        {
          "internalType": "address",
          "name": "account",
          "type": "address"
        },
        {
          "internalType": "uint192",
          "name": "amount",
          "type": "uint192"
        },
        {
          "internalType": "bytes",
          "name": "payoutSignature",
          "type": "bytes"
        }
      ],
      "name": "takeFunds",
      "outputs": [],
      "stateMutability": "nonpayable",
      "type": "function"
    },
    {
      "inputs": [],
      "name": "withdraw",
      "outputs": [],
      "stateMutability": "nonpayable",
      "type": "function"
    }
  ],
  "transactionHash": "0x71b0f98ce4e7658dfb6f3e47fe7239d8d45e04c31647e6e23f6aad7a0a1c1aba",
  "args": [],
  "numDeployments": 1,
  "solcInputHash": "e40d5b9b28445f921bdb883098dd99ae",
  "bytecode": "0x60c06040526201518067ffffffffffffffff1660809067ffffffffffffffff168152503373ffffffffffffffffffffffffffffffffffffffff1660a09073ffffffffffffffffffffffffffffffffffffffff1681525034801561006157600080fd5b5060805160a05161190c61008760003960006107ec01526000610962015261190c6000f3fe60806040526004361061007b5760003560e01c8063ae5cf1d51161004e578063ae5cf1d514610128578063ea477dc814610151578063f83d08ba14610168578063f8b2cb4f146101725761007b565b80631feb67e7146100805780633ccfd60b146100a95780634ca89c2c146100c0578063aa43ef56146100eb575b600080fd5b34801561008c57600080fd5b506100a760048036038101906100a29190611156565b6101b0565b005b3480156100b557600080fd5b506100be610512565b005b3480156100cc57600080fd5b506100d56107a3565b6040516100e291906111d4565b60405180910390f35b3480156100f757600080fd5b50610112600480360381019061010d91906111ef565b6107c9565b60405161011f9190611239565b60405180910390f35b34801561013457600080fd5b5061014f600480360381019061014a91906111ef565b6107ea565b005b34801561015d57600080fd5b506101666108bc565b005b610170610a47565b005b34801561017e57600080fd5b50610199600480360381019061019491906111ef565b610bdc565b6040516101a7929190611290565b60405180910390f35b600033905060006040518060a001604052803073ffffffffffffffffffffffffffffffffffffffff1681526020018373ffffffffffffffffffffffffffffffffffffffff168152602001600260008573ffffffffffffffffffffffffffffffffffffffff1673ffffffffffffffffffffffffffffffffffffffff16815260200190815260200160002060009054906101000a900461ffff1661ffff1681526020018673ffffffffffffffffffffffffffffffffffffffff1681526020018577ffffffffffffffffffffffffffffffffffffffffffffffff1681525090506102978184610cc1565b8377ffffffffffffffffffffffffffffffffffffffffffffffff166000808773ffffffffffffffffffffffffffffffffffffffff1673ffffffffffffffffffffffffffffffffffffffff16815260200190815260200160002060000160089054906101000a900477ffffffffffffffffffffffffffffffffffffffffffffffff1677ffffffffffffffffffffffffffffffffffffffffffffffff161015610373576040517f08c379a000000000000000000000000000000000000000000000000000000000815260040161036a90611316565b60405180910390fd5b836000808773ffffffffffffffffffffffffffffffffffffffff1673ffffffffffffffffffffffffffffffffffffffff16815260200190815260200160002060000160088282829054906101000a900477ffffffffffffffffffffffffffffffffffffffffffffffff160392506101000a81548177ffffffffffffffffffffffffffffffffffffffffffffffff021916908377ffffffffffffffffffffffffffffffffffffffffffffffff160217905550600260008373ffffffffffffffffffffffffffffffffffffffff1673ffffffffffffffffffffffffffffffffffffffff168152602001908152602001600020600081819054906101000a900461ffff168092919061048190611365565b91906101000a81548161ffff021916908361ffff160217905550506104a63385610d90565b8473ffffffffffffffffffffffffffffffffffffffff168573ffffffffffffffffffffffffffffffffffffffff167fc180277adfd769578ae3840b13fbf8e72d19aea1d030435da520e3f2285e527e86604051610503919061139e565b60405180910390a35050505050565b60008060003373ffffffffffffffffffffffffffffffffffffffff1673ffffffffffffffffffffffffffffffffffffffff1681526020019081526020016000206040518060400160405290816000820160009054906101000a900467ffffffffffffffff1667ffffffffffffffff1667ffffffffffffffff1681526020016000820160089054906101000a900477ffffffffffffffffffffffffffffffffffffffffffffffff1677ffffffffffffffffffffffffffffffffffffffffffffffff1677ffffffffffffffffffffffffffffffffffffffffffffffff1681525050905042816000015167ffffffffffffffff161115610644576040517f08c379a000000000000000000000000000000000000000000000000000000000815260040161063b90611405565b60405180910390fd5b6040518060400160405280600067ffffffffffffffff168152602001600077ffffffffffffffffffffffffffffffffffffffffffffffff168152506000803373ffffffffffffffffffffffffffffffffffffffff1673ffffffffffffffffffffffffffffffffffffffff16815260200190815260200160002060008201518160000160006101000a81548167ffffffffffffffff021916908367ffffffffffffffff16021790555060208201518160000160086101000a81548177ffffffffffffffffffffffffffffffffffffffffffffffff021916908377ffffffffffffffffffffffffffffffffffffffffffffffff1602179055509050506000816020015190506107513382610d90565b3373ffffffffffffffffffffffffffffffffffffffff167f47cf194f5e559cca0413017d38814a7843cc6f3052bc43c8085938774ae5815182604051610797919061139e565b60405180910390a25050565b600160009054906101000a900473ffffffffffffffffffffffffffffffffffffffff1681565b60026020528060005260406000206000915054906101000a900461ffff1681565b7f000000000000000000000000000000000000000000000000000000000000000073ffffffffffffffffffffffffffffffffffffffff163373ffffffffffffffffffffffffffffffffffffffff1614610878576040517f08c379a000000000000000000000000000000000000000000000000000000000815260040161086f90611471565b60405180910390fd5b80600160006101000a81548173ffffffffffffffffffffffffffffffffffffffff021916908373ffffffffffffffffffffffffffffffffffffffff16021790555050565b60008060003373ffffffffffffffffffffffffffffffffffffffff1673ffffffffffffffffffffffffffffffffffffffff16815260200190815260200160002060000160009054906101000a900467ffffffffffffffff1667ffffffffffffffff161161095e576040517f08c379a0000000000000000000000000000000000000000000000000000000008152600401610955906114dd565b60405180910390fd5b60007f00000000000000000000000000000000000000000000000000000000000000004261098c91906114fd565b9050806000803373ffffffffffffffffffffffffffffffffffffffff1673ffffffffffffffffffffffffffffffffffffffff16815260200190815260200160002060000160006101000a81548167ffffffffffffffff021916908367ffffffffffffffff1602179055503373ffffffffffffffffffffffffffffffffffffffff167f1e4d7daa55eb36e3f003920d231b23fe4fa76d7d5e83328d8b5a13217f74862782604051610a3c919061153b565b60405180910390a250565b60003411610a8a576040517f08c379a0000000000000000000000000000000000000000000000000000000008152600401610a81906115a2565b60405180910390fd5b604051806040016040528067ffffffffffffffff801681526020013477ffffffffffffffffffffffffffffffffffffffffffffffff168152506000803373ffffffffffffffffffffffffffffffffffffffff1673ffffffffffffffffffffffffffffffffffffffff16815260200190815260200160002060008201518160000160006101000a81548167ffffffffffffffff021916908367ffffffffffffffff16021790555060208201518160000160086101000a81548177ffffffffffffffffffffffffffffffffffffffffffffffff021916908377ffffffffffffffffffffffffffffffffffffffffffffffff1602179055509050503373ffffffffffffffffffffffffffffffffffffffff167f46e0212fcc31845d59d15ee73a636453da2ae166a6fa17347997e4e9c580c3163467ffffffffffffffff604051610bd29291906115c2565b60405180910390a2565b6000806000808473ffffffffffffffffffffffffffffffffffffffff1673ffffffffffffffffffffffffffffffffffffffff16815260200190815260200160002060000160089054906101000a900477ffffffffffffffffffffffffffffffffffffffffffffffff166000808573ffffffffffffffffffffffffffffffffffffffff1673ffffffffffffffffffffffffffffffffffffffff16815260200190815260200160002060000160009054906101000a900467ffffffffffffffff168177ffffffffffffffffffffffffffffffffffffffffffffffff16915091509150915091565b600082604051602001610cd49190611680565b6040516020818303038152906040528051906020012090506000610cf88284610e5b565b9050600160009054906101000a900473ffffffffffffffffffffffffffffffffffffffff1673ffffffffffffffffffffffffffffffffffffffff168173ffffffffffffffffffffffffffffffffffffffff1614610d8a576040517f08c379a0000000000000000000000000000000000000000000000000000000008152600401610d81906116e7565b60405180910390fd5b50505050565b60008273ffffffffffffffffffffffffffffffffffffffff168277ffffffffffffffffffffffffffffffffffffffffffffffff16604051610dd090611738565b60006040518083038185875af1925050503d8060008114610e0d576040519150601f19603f3d011682016040523d82523d6000602084013e610e12565b606091505b5050905080610e56576040517f08c379a0000000000000000000000000000000000000000000000000000000008152600401610e4d90611799565b60405180910390fd5b505050565b600080600080610e6a85610eca565b92509250925060018682858560405160008152602001604052604051610e9394939291906117ee565b6020604051602081039080840390855afa158015610eb5573d6000803e3d6000fd5b50505060206040510351935050505092915050565b60008060006041845114610f13576040517f08c379a0000000000000000000000000000000000000000000000000000000008152600401610f0a9061187f565b60405180910390fd5b6020840151925060408401519150606084015160001a9050601b8160ff161015610f4757601b81610f44919061189f565b90505b9193909250565b6000604051905090565b600080fd5b600080fd5b600073ffffffffffffffffffffffffffffffffffffffff82169050919050565b6000610f8d82610f62565b9050919050565b610f9d81610f82565b8114610fa857600080fd5b50565b600081359050610fba81610f94565b92915050565b600077ffffffffffffffffffffffffffffffffffffffffffffffff82169050919050565b610fed81610fc0565b8114610ff857600080fd5b50565b60008135905061100a81610fe4565b92915050565b600080fd5b600080fd5b6000601f19601f8301169050919050565b7f4e487b7100000000000000000000000000000000000000000000000000000000600052604160045260246000fd5b6110638261101a565b810181811067ffffffffffffffff821117156110825761108161102b565b5b80604052505050565b6000611095610f4e565b90506110a1828261105a565b919050565b600067ffffffffffffffff8211156110c1576110c061102b565b5b6110ca8261101a565b9050602081019050919050565b82818337600083830152505050565b60006110f96110f4846110a6565b61108b565b90508281526020810184848401111561111557611114611015565b5b6111208482856110d7565b509392505050565b600082601f83011261113d5761113c611010565b5b813561114d8482602086016110e6565b91505092915050565b60008060006060848603121561116f5761116e610f58565b5b600061117d86828701610fab565b935050602061118e86828701610ffb565b925050604084013567ffffffffffffffff8111156111af576111ae610f5d565b5b6111bb86828701611128565b9150509250925092565b6111ce81610f82565b82525050565b60006020820190506111e960008301846111c5565b92915050565b60006020828403121561120557611204610f58565b5b600061121384828501610fab565b91505092915050565b600061ffff82169050919050565b6112338161121c565b82525050565b600060208201905061124e600083018461122a565b92915050565b6000819050919050565b61126781611254565b82525050565b600067ffffffffffffffff82169050919050565b61128a8161126d565b82525050565b60006040820190506112a5600083018561125e565b6112b26020830184611281565b9392505050565b600082825260208201905092915050565b7f496e73756666696369656e742066756e64730000000000000000000000000000600082015250565b60006113006012836112b9565b915061130b826112ca565b602082019050919050565b6000602082019050818103600083015261132f816112f3565b9050919050565b7f4e487b7100000000000000000000000000000000000000000000000000000000600052601160045260246000fd5b60006113708261121c565b915061ffff820361138457611383611336565b5b600182019050919050565b61139881610fc0565b82525050565b60006020820190506113b3600083018461138f565b92915050565b7f46756e647320617265207374696c6c206c6f636b656400000000000000000000600082015250565b60006113ef6016836112b9565b91506113fa826113b9565b602082019050919050565b6000602082019050818103600083015261141e816113e2565b9050919050565b7f556e617574686f72697a65640000000000000000000000000000000000000000600082015250565b600061145b600c836112b9565b915061146682611425565b602082019050919050565b6000602082019050818103600083015261148a8161144e565b9050919050565b7f4e6f2066756e6473206c6f636b65640000000000000000000000000000000000600082015250565b60006114c7600f836112b9565b91506114d282611491565b602082019050919050565b600060208201905081810360008301526114f6816114ba565b9050919050565b60006115088261126d565b91506115138361126d565b92508267ffffffffffffffff038211156115305761152f611336565b5b828201905092915050565b60006020820190506115506000830184611281565b92915050565b7f56616c7565206d7573742062652067726561746572207468616e203000000000600082015250565b600061158c601c836112b9565b915061159782611556565b602082019050919050565b600060208201905081810360008301526115bb8161157f565b9050919050565b60006040820190506115d7600083018561138f565b6115e46020830184611281565b9392505050565b6115f481610f82565b82525050565b6116038161121c565b82525050565b61161281611254565b82525050565b60a08201600082015161162e60008501826115eb565b50602082015161164160208501826115eb565b50604082015161165460408501826115fa565b50606082015161166760608501826115eb565b50608082015161167a6080850182611609565b50505050565b600060a0820190506116956000830184611618565b92915050565b7f496e76616c6964207369676e6174757265000000000000000000000000000000600082015250565b60006116d16011836112b9565b91506116dc8261169b565b602082019050919050565b60006020820190508181036000830152611700816116c4565b9050919050565b600081905092915050565b50565b6000611722600083611707565b915061172d82611712565b600082019050919050565b600061174382611715565b9150819050919050565b7f5472616e73666572206661696c65640000000000000000000000000000000000600082015250565b6000611783600f836112b9565b915061178e8261174d565b602082019050919050565b600060208201905081810360008301526117b281611776565b9050919050565b6000819050919050565b6117cc816117b9565b82525050565b600060ff82169050919050565b6117e8816117d2565b82525050565b600060808201905061180360008301876117c3565b61181060208301866117df565b61181d60408301856117c3565b61182a60608301846117c3565b95945050505050565b7f696e76616c6964207369676e6174757265206c656e6774680000000000000000600082015250565b60006118696018836112b9565b915061187482611833565b602082019050919050565b600060208201905081810360008301526118988161185c565b9050919050565b60006118aa826117d2565b91506118b5836117d2565b92508260ff038211156118cb576118ca611336565b5b82820190509291505056fea26469706673582212200ec1dcf1917271be627cd5ac4cbda6a5439dffb609178eed8126eae662e8cb0164736f6c634300080d0033",
  "devdoc": {
    "kind": "dev",
    "methods": {},
    "version": 1
  },
  "userdoc": {
    "kind": "user",
    "methods": {},
    "version": 1
  },
  "storageLayout": {
    "storage": [
      {
        "astId": 1456,
        "contract": "contracts/SettlementVault.sol:SettlementVault",
        "label": "_balances",
        "offset": 0,
        "slot": "0",
        "type": "t_mapping(t_address,t_struct(AccountBalance)1448_storage)"
      },
      {
        "astId": 1462,
        "contract": "contracts/SettlementVault.sol:SettlementVault",
        "label": "auctionMaster",
        "offset": 0,
        "slot": "1",
        "type": "t_address"
      },
      {
        "astId": 1466,
        "contract": "contracts/SettlementVault.sol:SettlementVault",
        "label": "accountToPaymentNonce",
        "offset": 0,
        "slot": "2",
        "type": "t_mapping(t_address,t_uint16)"
      }
    ],
    "types": {
      "t_address": {
        "encoding": "inplace",
        "label": "address",
        "numberOfBytes": "20"
      },
      "t_mapping(t_address,t_struct(AccountBalance)1448_storage)": {
        "encoding": "mapping",
        "key": "t_address",
        "label": "mapping(address => struct SettlementVault.AccountBalance)",
        "numberOfBytes": "32",
        "value": "t_struct(AccountBalance)1448_storage"
      },
      "t_mapping(t_address,t_uint16)": {
        "encoding": "mapping",
        "key": "t_address",
        "label": "mapping(address => uint16)",
        "numberOfBytes": "32",
        "value": "t_uint16"
      },
      "t_struct(AccountBalance)1448_storage": {
        "encoding": "inplace",
        "label": "struct SettlementVault.AccountBalance",
        "members": [
          {
            "astId": 1445,
            "contract": "contracts/SettlementVault.sol:SettlementVault",
            "label": "unlockTimestamp",
            "offset": 0,
            "slot": "0",
            "type": "t_uint64"
          },
          {
            "astId": 1447,
            "contract": "contracts/SettlementVault.sol:SettlementVault",
            "label": "balance",
            "offset": 8,
            "slot": "0",
            "type": "t_uint192"
          }
        ],
        "numberOfBytes": "32"
      },
      "t_uint16": {
        "encoding": "inplace",
        "label": "uint16",
        "numberOfBytes": "2"
      },
      "t_uint192": {
        "encoding": "inplace",
        "label": "uint192",
        "numberOfBytes": "24"
      },
      "t_uint64": {
        "encoding": "inplace",
        "label": "uint64",
        "numberOfBytes": "8"
      }
    }
  }
}