{
  "address": "0xb72e99654d87DBf02981fBf94BC9969BaA76f94B",
  "abi": [
    {
      "anonymous": false,
      "inputs": [
        {
          "indexed": true,
          "internalType": "address",
          "name": "account",
          "type": "address"
        },
        {
          "indexed": false,
          "internalType": "uint192",
          "name": "amount",
          "type": "uint192"
        },
        {
          "indexed": true,
          "internalType": "address",
          "name": "to",
          "type": "address"
        }
      ],
      "name": "FundsTaken",
      "type": "event"
    },
    {
      "anonymous": false,
      "inputs": [
        {
          "indexed": true,
          "internalType": "address",
          "name": "account",
          "type": "address"
        },
        {
          "indexed": false,
          "internalType": "uint192",
          "name": "amount",
          "type": "uint192"
        },
        {
          "indexed": false,
          "internalType": "uint64",
          "name": "unlockTimestamp",
          "type": "uint64"
        }
      ],
      "name": "Locked",
      "type": "event"
    },
    {
      "anonymous": false,
      "inputs": [
        {
          "indexed": true,
          "internalType": "address",
          "name": "account",
          "type": "address"
        },
        {
          "indexed": false,
          "internalType": "uint64",
          "name": "unlockTimestamp",
          "type": "uint64"
        }
      ],
      "name": "ScheduledUnlock",
      "type": "event"
    },
    {
      "anonymous": false,
      "inputs": [
        {
          "indexed": true,
          "internalType": "address",
          "name": "account",
          "type": "address"
        },
        {
          "indexed": false,
          "internalType": "uint192",
          "name": "amount",
          "type": "uint192"
        }
      ],
      "name": "Withdrawn",
      "type": "event"
    },
    {
      "inputs": [],
      "name": "auctionMaster",
      "outputs": [
        {
          "internalType": "address",
          "name": "",
          "type": "address"
        }
      ],
      "stateMutability": "view",
      "type": "function"
    },
    {
      "inputs": [
        {
          "internalType": "address",
          "name": "account",
          "type": "address"
        }
      ],
      "name": "getBalance",
      "outputs": [
        {
          "internalType": "uint256",
          "name": "",
          "type": "uint256"
        },
        {
          "internalType": "uint64",
          "name": "",
          "type": "uint64"
        }
      ],
      "stateMutability": "view",
      "type": "function"
    },
    {
      "inputs": [],
      "name": "lock",
      "outputs": [],
      "stateMutability": "payable",
      "type": "function"
    },
    {
      "inputs": [
        {
          "internalType": "address",
          "name": "_auctionMaster",
          "type": "address"
        }
      ],
      "name": "registerAuctionMaster",
      "outputs": [],
      "stateMutability": "nonpayable",
      "type": "function"
    },
    {
      "inputs": [],
      "name": "scheduleUnlock",
      "outputs": [],
      "stateMutability": "nonpayable",
      "type": "function"
    },
    {
      "inputs": [
        {
          "internalType": "address",
          "name": "account",
          "type": "address"
        },
        {
          "internalType": "uint192",
          "name": "amount",
          "type": "uint192"
        },
        {
          "internalType": "address",
          "name": "to",
          "type": "address"
        },
        {
          "internalType": "bytes",
          "name": "payoutSignature",
          "type": "bytes"
        }
      ],
      "name": "takeFunds",
      "outputs": [],
      "stateMutability": "nonpayable",
      "type": "function"
    },
    {
      "inputs": [],
      "name": "withdraw",
      "outputs": [],
      "stateMutability": "nonpayable",
      "type": "function"
    }
  ],
  "transactionHash": "0xbd747ae481bde00e9976374049cad87a1177e46efb93c62a7ef6a47222100aa0",
  "args": [],
  "numDeployments": 2,
  "solcInputHash": "294e446e15c5cbe76e09fab95e6dcb85",
  "bytecode": "0x60c06040526201518067ffffffffffffffff1660809067ffffffffffffffff168152503373ffffffffffffffffffffffffffffffffffffffff1660a09073ffffffffffffffffffffffffffffffffffffffff1681525034801561006157600080fd5b5060805160a0516116fb6100876000396000610421015260006107e701526116fb6000f3fe6080604052600436106100705760003560e01c8063e0b0020f1161004e578063e0b0020f146100e0578063ea477dc814610109578063f83d08ba14610120578063f8b2cb4f1461012a57610070565b80633ccfd60b146100755780634ca89c2c1461008c578063ae5cf1d5146100b7575b600080fd5b34801561008157600080fd5b5061008a610168565b005b34801561009857600080fd5b506100a16103f9565b6040516100ae9190610e14565b60405180910390f35b3480156100c357600080fd5b506100de60048036038101906100d99190610e6f565b61041f565b005b3480156100ec57600080fd5b5061010760048036038101906101029190611032565b6104f1565b005b34801561011557600080fd5b5061011e610741565b005b6101286108cc565b005b34801561013657600080fd5b50610151600480360381019061014c9190610e6f565b610a61565b60405161015f9291906110f1565b60405180910390f35b60008060003373ffffffffffffffffffffffffffffffffffffffff1673ffffffffffffffffffffffffffffffffffffffff1681526020019081526020016000206040518060400160405290816000820160009054906101000a900467ffffffffffffffff1667ffffffffffffffff1667ffffffffffffffff1681526020016000820160089054906101000a900477ffffffffffffffffffffffffffffffffffffffffffffffff1677ffffffffffffffffffffffffffffffffffffffffffffffff1677ffffffffffffffffffffffffffffffffffffffffffffffff1681525050905042816000015167ffffffffffffffff16111561029a576040517f08c379a000000000000000000000000000000000000000000000000000000000815260040161029190611177565b60405180910390fd5b6040518060400160405280600067ffffffffffffffff168152602001600077ffffffffffffffffffffffffffffffffffffffffffffffff168152506000803373ffffffffffffffffffffffffffffffffffffffff1673ffffffffffffffffffffffffffffffffffffffff16815260200190815260200160002060008201518160000160006101000a81548167ffffffffffffffff021916908367ffffffffffffffff16021790555060208201518160000160086101000a81548177ffffffffffffffffffffffffffffffffffffffffffffffff021916908377ffffffffffffffffffffffffffffffffffffffffffffffff1602179055509050506000816020015190506103a73382610b46565b3373ffffffffffffffffffffffffffffffffffffffff167f47cf194f5e559cca0413017d38814a7843cc6f3052bc43c8085938774ae58151826040516103ed91906111a6565b60405180910390a25050565b600160009054906101000a900473ffffffffffffffffffffffffffffffffffffffff1681565b7f000000000000000000000000000000000000000000000000000000000000000073ffffffffffffffffffffffffffffffffffffffff163373ffffffffffffffffffffffffffffffffffffffff16146104ad576040517f08c379a00000000000000000000000000000000000000000000000000000000081526004016104a49061120d565b60405180910390fd5b80600160006101000a81548173ffffffffffffffffffffffffffffffffffffffff021916908373ffffffffffffffffffffffffffffffffffffffff16021790555050565b61053f60405180604001604052808673ffffffffffffffffffffffffffffffffffffffff1681526020018577ffffffffffffffffffffffffffffffffffffffffffffffff1681525082610c11565b8277ffffffffffffffffffffffffffffffffffffffffffffffff166000808673ffffffffffffffffffffffffffffffffffffffff1673ffffffffffffffffffffffffffffffffffffffff16815260200190815260200160002060000160089054906101000a900477ffffffffffffffffffffffffffffffffffffffffffffffff1677ffffffffffffffffffffffffffffffffffffffffffffffff16101561061b576040517f08c379a000000000000000000000000000000000000000000000000000000000815260040161061290611279565b60405180910390fd5b826000808673ffffffffffffffffffffffffffffffffffffffff1673ffffffffffffffffffffffffffffffffffffffff16815260200190815260200160002060000160088282829054906101000a900477ffffffffffffffffffffffffffffffffffffffffffffffff160392506101000a81548177ffffffffffffffffffffffffffffffffffffffffffffffff021916908377ffffffffffffffffffffffffffffffffffffffffffffffff1602179055506106d63384610b46565b8173ffffffffffffffffffffffffffffffffffffffff168473ffffffffffffffffffffffffffffffffffffffff167fc180277adfd769578ae3840b13fbf8e72d19aea1d030435da520e3f2285e527e8560405161073391906111a6565b60405180910390a350505050565b60008060003373ffffffffffffffffffffffffffffffffffffffff1673ffffffffffffffffffffffffffffffffffffffff16815260200190815260200160002060000160009054906101000a900467ffffffffffffffff1667ffffffffffffffff16116107e3576040517f08c379a00000000000000000000000000000000000000000000000000000000081526004016107da906112e5565b60405180910390fd5b60007f0000000000000000000000000000000000000000000000000000000000000000426108119190611334565b9050806000803373ffffffffffffffffffffffffffffffffffffffff1673ffffffffffffffffffffffffffffffffffffffff16815260200190815260200160002060000160006101000a81548167ffffffffffffffff021916908367ffffffffffffffff1602179055503373ffffffffffffffffffffffffffffffffffffffff167f1e4d7daa55eb36e3f003920d231b23fe4fa76d7d5e83328d8b5a13217f748627826040516108c19190611372565b60405180910390a250565b6000341161090f576040517f08c379a0000000000000000000000000000000000000000000000000000000008152600401610906906113d9565b60405180910390fd5b604051806040016040528067ffffffffffffffff801681526020013477ffffffffffffffffffffffffffffffffffffffffffffffff168152506000803373ffffffffffffffffffffffffffffffffffffffff1673ffffffffffffffffffffffffffffffffffffffff16815260200190815260200160002060008201518160000160006101000a81548167ffffffffffffffff021916908367ffffffffffffffff16021790555060208201518160000160086101000a81548177ffffffffffffffffffffffffffffffffffffffffffffffff021916908377ffffffffffffffffffffffffffffffffffffffffffffffff1602179055509050503373ffffffffffffffffffffffffffffffffffffffff167f46e0212fcc31845d59d15ee73a636453da2ae166a6fa17347997e4e9c580c3163467ffffffffffffffff604051610a579291906113f9565b60405180910390a2565b6000806000808473ffffffffffffffffffffffffffffffffffffffff1673ffffffffffffffffffffffffffffffffffffffff16815260200190815260200160002060000160089054906101000a900477ffffffffffffffffffffffffffffffffffffffffffffffff166000808573ffffffffffffffffffffffffffffffffffffffff1673ffffffffffffffffffffffffffffffffffffffff16815260200190815260200160002060000160009054906101000a900467ffffffffffffffff168177ffffffffffffffffffffffffffffffffffffffffffffffff16915091509150915091565b60008273ffffffffffffffffffffffffffffffffffffffff168277ffffffffffffffffffffffffffffffffffffffffffffffff16604051610b8690611453565b60006040518083038185875af1925050503d8060008114610bc3576040519150601f19603f3d011682016040523d82523d6000602084013e610bc8565b606091505b5050905080610c0c576040517f08c379a0000000000000000000000000000000000000000000000000000000008152600401610c03906114b4565b60405180910390fd5b505050565b600082604051602001610c249190611521565b6040516020818303038152906040528051906020012090506000610c488284610ce0565b9050600160009054906101000a900473ffffffffffffffffffffffffffffffffffffffff1673ffffffffffffffffffffffffffffffffffffffff168173ffffffffffffffffffffffffffffffffffffffff1614610cda576040517f08c379a0000000000000000000000000000000000000000000000000000000008152600401610cd190611588565b60405180910390fd5b50505050565b600080600080610cef85610d4f565b92509250925060018682858560405160008152602001604052604051610d1894939291906115dd565b6020604051602081039080840390855afa158015610d3a573d6000803e3d6000fd5b50505060206040510351935050505092915050565b60008060006041845114610d98576040517f08c379a0000000000000000000000000000000000000000000000000000000008152600401610d8f9061166e565b60405180910390fd5b6020840151925060408401519150606084015160001a9050601b8160ff161015610dcc57601b81610dc9919061168e565b90505b9193909250565b600073ffffffffffffffffffffffffffffffffffffffff82169050919050565b6000610dfe82610dd3565b9050919050565b610e0e81610df3565b82525050565b6000602082019050610e296000830184610e05565b92915050565b6000604051905090565b600080fd5b600080fd5b610e4c81610df3565b8114610e5757600080fd5b50565b600081359050610e6981610e43565b92915050565b600060208284031215610e8557610e84610e39565b5b6000610e9384828501610e5a565b91505092915050565b600077ffffffffffffffffffffffffffffffffffffffffffffffff82169050919050565b610ec981610e9c565b8114610ed457600080fd5b50565b600081359050610ee681610ec0565b92915050565b600080fd5b600080fd5b6000601f19601f8301169050919050565b7f4e487b7100000000000000000000000000000000000000000000000000000000600052604160045260246000fd5b610f3f82610ef6565b810181811067ffffffffffffffff82111715610f5e57610f5d610f07565b5b80604052505050565b6000610f71610e2f565b9050610f7d8282610f36565b919050565b600067ffffffffffffffff821115610f9d57610f9c610f07565b5b610fa682610ef6565b9050602081019050919050565b82818337600083830152505050565b6000610fd5610fd084610f82565b610f67565b905082815260208101848484011115610ff157610ff0610ef1565b5b610ffc848285610fb3565b509392505050565b600082601f83011261101957611018610eec565b5b8135611029848260208601610fc2565b91505092915050565b6000806000806080858703121561104c5761104b610e39565b5b600061105a87828801610e5a565b945050602061106b87828801610ed7565b935050604061107c87828801610e5a565b925050606085013567ffffffffffffffff81111561109d5761109c610e3e565b5b6110a987828801611004565b91505092959194509250565b6000819050919050565b6110c8816110b5565b82525050565b600067ffffffffffffffff82169050919050565b6110eb816110ce565b82525050565b600060408201905061110660008301856110bf565b61111360208301846110e2565b9392505050565b600082825260208201905092915050565b7f46756e647320617265207374696c6c206c6f636b656400000000000000000000600082015250565b600061116160168361111a565b915061116c8261112b565b602082019050919050565b6000602082019050818103600083015261119081611154565b9050919050565b6111a081610e9c565b82525050565b60006020820190506111bb6000830184611197565b92915050565b7f556e617574686f72697a65640000000000000000000000000000000000000000600082015250565b60006111f7600c8361111a565b9150611202826111c1565b602082019050919050565b60006020820190508181036000830152611226816111ea565b9050919050565b7f496e73756666696369656e742066756e64730000000000000000000000000000600082015250565b600061126360128361111a565b915061126e8261122d565b602082019050919050565b6000602082019050818103600083015261129281611256565b9050919050565b7f4e6f2066756e6473206c6f636b65640000000000000000000000000000000000600082015250565b60006112cf600f8361111a565b91506112da82611299565b602082019050919050565b600060208201905081810360008301526112fe816112c2565b9050919050565b7f4e487b7100000000000000000000000000000000000000000000000000000000600052601160045260246000fd5b600061133f826110ce565b915061134a836110ce565b92508267ffffffffffffffff0382111561136757611366611305565b5b828201905092915050565b600060208201905061138760008301846110e2565b92915050565b7f56616c7565206d7573742062652067726561746572207468616e203000000000600082015250565b60006113c3601c8361111a565b91506113ce8261138d565b602082019050919050565b600060208201905081810360008301526113f2816113b6565b9050919050565b600060408201905061140e6000830185611197565b61141b60208301846110e2565b9392505050565b600081905092915050565b50565b600061143d600083611422565b91506114488261142d565b600082019050919050565b600061145e82611430565b9150819050919050565b7f5472616e73666572206661696c65640000000000000000000000000000000000600082015250565b600061149e600f8361111a565b91506114a982611468565b602082019050919050565b600060208201905081810360008301526114cd81611491565b9050919050565b6114dd81610df3565b82525050565b6114ec816110b5565b82525050565b60408201600082015161150860008501826114d4565b50602082015161151b60208501826114e3565b50505050565b600060408201905061153660008301846114f2565b92915050565b7f496e76616c6964207369676e6174757265000000000000000000000000000000600082015250565b600061157260118361111a565b915061157d8261153c565b602082019050919050565b600060208201905081810360008301526115a181611565565b9050919050565b6000819050919050565b6115bb816115a8565b82525050565b600060ff82169050919050565b6115d7816115c1565b82525050565b60006080820190506115f260008301876115b2565b6115ff60208301866115ce565b61160c60408301856115b2565b61161960608301846115b2565b95945050505050565b7f696e76616c6964207369676e6174757265206c656e6774680000000000000000600082015250565b600061165860188361111a565b915061166382611622565b602082019050919050565b600060208201905081810360008301526116878161164b565b9050919050565b6000611699826115c1565b91506116a4836115c1565b92508260ff038211156116ba576116b9611305565b5b82820190509291505056fea264697066735822122065baa8747b6743b27c2726b98379862c82331f3abcbf24e39776da975dc8fb3964736f6c634300080d0033",
  "devdoc": {
    "kind": "dev",
    "methods": {},
    "version": 1
  },
  "userdoc": {
    "kind": "user",
    "methods": {},
    "version": 1
  },
  "storageLayout": {
    "storage": [
      {
        "astId": 45,
        "contract": "contracts/SettlementVault.sol:SettlementVault",
        "label": "_balances",
        "offset": 0,
        "slot": "0",
        "type": "t_mapping(t_address,t_struct(AccountBalance)37_storage)"
      },
      {
        "astId": 51,
        "contract": "contracts/SettlementVault.sol:SettlementVault",
        "label": "auctionMaster",
        "offset": 0,
        "slot": "1",
        "type": "t_address"
      }
    ],
    "types": {
      "t_address": {
        "encoding": "inplace",
        "label": "address",
        "numberOfBytes": "20"
      },
      "t_mapping(t_address,t_struct(AccountBalance)37_storage)": {
        "encoding": "mapping",
        "key": "t_address",
        "label": "mapping(address => struct SettlementVault.AccountBalance)",
        "numberOfBytes": "32",
        "value": "t_struct(AccountBalance)37_storage"
      },
      "t_struct(AccountBalance)37_storage": {
        "encoding": "inplace",
        "label": "struct SettlementVault.AccountBalance",
        "members": [
          {
            "astId": 34,
            "contract": "contracts/SettlementVault.sol:SettlementVault",
            "label": "unlockTimestamp",
            "offset": 0,
            "slot": "0",
            "type": "t_uint64"
          },
          {
            "astId": 36,
            "contract": "contracts/SettlementVault.sol:SettlementVault",
            "label": "balance",
            "offset": 8,
            "slot": "0",
            "type": "t_uint192"
          }
        ],
        "numberOfBytes": "32"
      },
      "t_uint192": {
        "encoding": "inplace",
        "label": "uint192",
        "numberOfBytes": "24"
      },
      "t_uint64": {
        "encoding": "inplace",
        "label": "uint64",
        "numberOfBytes": "8"
      }
    }
  }
}