{
  "address": "0x5fef7F0009a0c518183BA6858f10A4982da12a23",
  "abi": [
    {
      "anonymous": false,
      "inputs": [
        {
          "indexed": true,
          "internalType": "address",
          "name": "account",
          "type": "address"
        },
        {
          "indexed": false,
          "internalType": "uint192",
          "name": "amount",
          "type": "uint192"
        },
        {
          "indexed": true,
          "internalType": "address",
          "name": "to",
          "type": "address"
        }
      ],
      "name": "FundsTaken",
      "type": "event"
    },
    {
      "anonymous": false,
      "inputs": [
        {
          "indexed": true,
          "internalType": "address",
          "name": "account",
          "type": "address"
        },
        {
          "indexed": false,
          "internalType": "uint192",
          "name": "amount",
          "type": "uint192"
        },
        {
          "indexed": false,
          "internalType": "uint64",
          "name": "unlockTimestamp",
          "type": "uint64"
        }
      ],
      "name": "Locked",
      "type": "event"
    },
    {
      "anonymous": false,
      "inputs": [
        {
          "indexed": true,
          "internalType": "address",
          "name": "account",
          "type": "address"
        },
        {
          "indexed": false,
          "internalType": "uint64",
          "name": "unlockTimestamp",
          "type": "uint64"
        }
      ],
      "name": "ScheduledUnlock",
      "type": "event"
    },
    {
      "anonymous": false,
      "inputs": [
        {
          "indexed": true,
          "internalType": "address",
          "name": "account",
          "type": "address"
        },
        {
          "indexed": false,
          "internalType": "uint192",
          "name": "amount",
          "type": "uint192"
        }
      ],
      "name": "Withdrawn",
      "type": "event"
    },
    {
      "inputs": [
        {
          "internalType": "address",
          "name": "",
          "type": "address"
        }
      ],
      "name": "accountToPaymentNonce",
      "outputs": [
        {
          "internalType": "uint16",
          "name": "",
          "type": "uint16"
        }
      ],
      "stateMutability": "view",
      "type": "function"
    },
    {
      "inputs": [],
      "name": "auctionMaster",
      "outputs": [
        {
          "internalType": "address",
          "name": "",
          "type": "address"
        }
      ],
      "stateMutability": "view",
      "type": "function"
    },
    {
      "inputs": [
        {
          "internalType": "address",
          "name": "account",
          "type": "address"
        }
      ],
      "name": "getBalance",
      "outputs": [
        {
          "internalType": "uint256",
          "name": "",
          "type": "uint256"
        },
        {
          "internalType": "uint64",
          "name": "",
          "type": "uint64"
        }
      ],
      "stateMutability": "view",
      "type": "function"
    },
    {
      "inputs": [],
      "name": "lock",
      "outputs": [],
      "stateMutability": "payable",
      "type": "function"
    },
    {
      "inputs": [
        {
          "internalType": "address",
          "name": "_auctionMaster",
          "type": "address"
        }
      ],
      "name": "registerAuctionMaster",
      "outputs": [],
      "stateMutability": "nonpayable",
      "type": "function"
    },
    {
      "inputs": [],
      "name": "scheduleUnlock",
      "outputs": [],
      "stateMutability": "nonpayable",
      "type": "function"
    },
    {
      "inputs": [
        {
          "internalType": "address",
          "name": "account",
          "type": "address"
        },
        {
          "internalType": "uint192",
          "name": "amount",
          "type": "uint192"
        },
        {
          "internalType": "bytes",
          "name": "payoutSignature",
          "type": "bytes"
        }
      ],
      "name": "takeFunds",
      "outputs": [],
      "stateMutability": "nonpayable",
      "type": "function"
    },
    {
      "inputs": [],
      "name": "withdraw",
      "outputs": [],
      "stateMutability": "nonpayable",
      "type": "function"
    }
  ],
  "transactionHash": "0x20da8ef3403fd098e2600c85c6c41e4f76e9d5aeb470d255686d5b8ceebcd84f",
  "args": [],
  "numDeployments": 1,
  "solcInputHash": "9a6421e952a25d44f65dea5a6264c9b2",
  "bytecode": "0x60c06040526201518067ffffffffffffffff1660809067ffffffffffffffff168152503373ffffffffffffffffffffffffffffffffffffffff1660a09073ffffffffffffffffffffffffffffffffffffffff1681525034801561006157600080fd5b5060805160a051611a09610087600039600061087d015260006109f30152611a096000f3fe60806040526004361061007b5760003560e01c8063ae5cf1d51161004e578063ae5cf1d514610128578063ea477dc814610151578063f83d08ba14610168578063f8b2cb4f146101725761007b565b80631feb67e7146100805780633ccfd60b146100a95780634ca89c2c146100c0578063aa43ef56146100eb575b600080fd5b34801561008c57600080fd5b506100a760048036038101906100a291906111e7565b6101b0565b005b3480156100b557600080fd5b506100be610512565b005b3480156100cc57600080fd5b506100d56107a3565b6040516100e29190611265565b60405180910390f35b3480156100f757600080fd5b50610112600480360381019061010d9190611280565b6107c9565b60405161011f91906112ca565b60405180910390f35b34801561013457600080fd5b5061014f600480360381019061014a9190611280565b6107ea565b005b34801561015d57600080fd5b5061016661094d565b005b610170610ad8565b005b34801561017e57600080fd5b5061019960048036038101906101949190611280565b610c6d565b6040516101a7929190611321565b60405180910390f35b600033905060006040518060a001604052803073ffffffffffffffffffffffffffffffffffffffff1681526020018373ffffffffffffffffffffffffffffffffffffffff168152602001600260008573ffffffffffffffffffffffffffffffffffffffff1673ffffffffffffffffffffffffffffffffffffffff16815260200190815260200160002060009054906101000a900461ffff1661ffff1681526020018673ffffffffffffffffffffffffffffffffffffffff1681526020018577ffffffffffffffffffffffffffffffffffffffffffffffff1681525090506102978184610d52565b8377ffffffffffffffffffffffffffffffffffffffffffffffff166000808773ffffffffffffffffffffffffffffffffffffffff1673ffffffffffffffffffffffffffffffffffffffff16815260200190815260200160002060000160089054906101000a900477ffffffffffffffffffffffffffffffffffffffffffffffff1677ffffffffffffffffffffffffffffffffffffffffffffffff161015610373576040517f08c379a000000000000000000000000000000000000000000000000000000000815260040161036a906113a7565b60405180910390fd5b836000808773ffffffffffffffffffffffffffffffffffffffff1673ffffffffffffffffffffffffffffffffffffffff16815260200190815260200160002060000160088282829054906101000a900477ffffffffffffffffffffffffffffffffffffffffffffffff160392506101000a81548177ffffffffffffffffffffffffffffffffffffffffffffffff021916908377ffffffffffffffffffffffffffffffffffffffffffffffff160217905550600260008373ffffffffffffffffffffffffffffffffffffffff1673ffffffffffffffffffffffffffffffffffffffff168152602001908152602001600020600081819054906101000a900461ffff1680929190610481906113f6565b91906101000a81548161ffff021916908361ffff160217905550506104a63385610e21565b8473ffffffffffffffffffffffffffffffffffffffff168573ffffffffffffffffffffffffffffffffffffffff167fc180277adfd769578ae3840b13fbf8e72d19aea1d030435da520e3f2285e527e86604051610503919061142f565b60405180910390a35050505050565b60008060003373ffffffffffffffffffffffffffffffffffffffff1673ffffffffffffffffffffffffffffffffffffffff1681526020019081526020016000206040518060400160405290816000820160009054906101000a900467ffffffffffffffff1667ffffffffffffffff1667ffffffffffffffff1681526020016000820160089054906101000a900477ffffffffffffffffffffffffffffffffffffffffffffffff1677ffffffffffffffffffffffffffffffffffffffffffffffff1677ffffffffffffffffffffffffffffffffffffffffffffffff1681525050905042816000015167ffffffffffffffff161115610644576040517f08c379a000000000000000000000000000000000000000000000000000000000815260040161063b90611496565b60405180910390fd5b6040518060400160405280600067ffffffffffffffff168152602001600077ffffffffffffffffffffffffffffffffffffffffffffffff168152506000803373ffffffffffffffffffffffffffffffffffffffff1673ffffffffffffffffffffffffffffffffffffffff16815260200190815260200160002060008201518160000160006101000a81548167ffffffffffffffff021916908367ffffffffffffffff16021790555060208201518160000160086101000a81548177ffffffffffffffffffffffffffffffffffffffffffffffff021916908377ffffffffffffffffffffffffffffffffffffffffffffffff1602179055509050506000816020015190506107513382610e21565b3373ffffffffffffffffffffffffffffffffffffffff167f47cf194f5e559cca0413017d38814a7843cc6f3052bc43c8085938774ae5815182604051610797919061142f565b60405180910390a25050565b600160009054906101000a900473ffffffffffffffffffffffffffffffffffffffff1681565b60026020528060005260406000206000915054906101000a900461ffff1681565b600073ffffffffffffffffffffffffffffffffffffffff16600160009054906101000a900473ffffffffffffffffffffffffffffffffffffffff1673ffffffffffffffffffffffffffffffffffffffff161461087b576040517f08c379a000000000000000000000000000000000000000000000000000000000815260040161087290611502565b60405180910390fd5b7f000000000000000000000000000000000000000000000000000000000000000073ffffffffffffffffffffffffffffffffffffffff163373ffffffffffffffffffffffffffffffffffffffff1614610909576040517f08c379a00000000000000000000000000000000000000000000000000000000081526004016109009061156e565b60405180910390fd5b80600160006101000a81548173ffffffffffffffffffffffffffffffffffffffff021916908373ffffffffffffffffffffffffffffffffffffffff16021790555050565b60008060003373ffffffffffffffffffffffffffffffffffffffff1673ffffffffffffffffffffffffffffffffffffffff16815260200190815260200160002060000160009054906101000a900467ffffffffffffffff1667ffffffffffffffff16116109ef576040517f08c379a00000000000000000000000000000000000000000000000000000000081526004016109e6906115da565b60405180910390fd5b60007f000000000000000000000000000000000000000000000000000000000000000042610a1d91906115fa565b9050806000803373ffffffffffffffffffffffffffffffffffffffff1673ffffffffffffffffffffffffffffffffffffffff16815260200190815260200160002060000160006101000a81548167ffffffffffffffff021916908367ffffffffffffffff1602179055503373ffffffffffffffffffffffffffffffffffffffff167f1e4d7daa55eb36e3f003920d231b23fe4fa76d7d5e83328d8b5a13217f74862782604051610acd9190611638565b60405180910390a250565b60003411610b1b576040517f08c379a0000000000000000000000000000000000000000000000000000000008152600401610b129061169f565b60405180910390fd5b604051806040016040528067ffffffffffffffff801681526020013477ffffffffffffffffffffffffffffffffffffffffffffffff168152506000803373ffffffffffffffffffffffffffffffffffffffff1673ffffffffffffffffffffffffffffffffffffffff16815260200190815260200160002060008201518160000160006101000a81548167ffffffffffffffff021916908367ffffffffffffffff16021790555060208201518160000160086101000a81548177ffffffffffffffffffffffffffffffffffffffffffffffff021916908377ffffffffffffffffffffffffffffffffffffffffffffffff1602179055509050503373ffffffffffffffffffffffffffffffffffffffff167f46e0212fcc31845d59d15ee73a636453da2ae166a6fa17347997e4e9c580c3163467ffffffffffffffff604051610c639291906116bf565b60405180910390a2565b6000806000808473ffffffffffffffffffffffffffffffffffffffff1673ffffffffffffffffffffffffffffffffffffffff16815260200190815260200160002060000160089054906101000a900477ffffffffffffffffffffffffffffffffffffffffffffffff166000808573ffffffffffffffffffffffffffffffffffffffff1673ffffffffffffffffffffffffffffffffffffffff16815260200190815260200160002060000160009054906101000a900467ffffffffffffffff168177ffffffffffffffffffffffffffffffffffffffffffffffff16915091509150915091565b600082604051602001610d65919061177d565b6040516020818303038152906040528051906020012090506000610d898284610eec565b9050600160009054906101000a900473ffffffffffffffffffffffffffffffffffffffff1673ffffffffffffffffffffffffffffffffffffffff168173ffffffffffffffffffffffffffffffffffffffff1614610e1b576040517f08c379a0000000000000000000000000000000000000000000000000000000008152600401610e12906117e4565b60405180910390fd5b50505050565b60008273ffffffffffffffffffffffffffffffffffffffff168277ffffffffffffffffffffffffffffffffffffffffffffffff16604051610e6190611835565b60006040518083038185875af1925050503d8060008114610e9e576040519150601f19603f3d011682016040523d82523d6000602084013e610ea3565b606091505b5050905080610ee7576040517f08c379a0000000000000000000000000000000000000000000000000000000008152600401610ede90611896565b60405180910390fd5b505050565b600080600080610efb85610f5b565b92509250925060018682858560405160008152602001604052604051610f2494939291906118eb565b6020604051602081039080840390855afa158015610f46573d6000803e3d6000fd5b50505060206040510351935050505092915050565b60008060006041845114610fa4576040517f08c379a0000000000000000000000000000000000000000000000000000000008152600401610f9b9061197c565b60405180910390fd5b6020840151925060408401519150606084015160001a9050601b8160ff161015610fd857601b81610fd5919061199c565b90505b9193909250565b6000604051905090565b600080fd5b600080fd5b600073ffffffffffffffffffffffffffffffffffffffff82169050919050565b600061101e82610ff3565b9050919050565b61102e81611013565b811461103957600080fd5b50565b60008135905061104b81611025565b92915050565b600077ffffffffffffffffffffffffffffffffffffffffffffffff82169050919050565b61107e81611051565b811461108957600080fd5b50565b60008135905061109b81611075565b92915050565b600080fd5b600080fd5b6000601f19601f8301169050919050565b7f4e487b7100000000000000000000000000000000000000000000000000000000600052604160045260246000fd5b6110f4826110ab565b810181811067ffffffffffffffff82111715611113576111126110bc565b5b80604052505050565b6000611126610fdf565b905061113282826110eb565b919050565b600067ffffffffffffffff821115611152576111516110bc565b5b61115b826110ab565b9050602081019050919050565b82818337600083830152505050565b600061118a61118584611137565b61111c565b9050828152602081018484840111156111a6576111a56110a6565b5b6111b1848285611168565b509392505050565b600082601f8301126111ce576111cd6110a1565b5b81356111de848260208601611177565b91505092915050565b600080600060608486031215611200576111ff610fe9565b5b600061120e8682870161103c565b935050602061121f8682870161108c565b925050604084013567ffffffffffffffff8111156112405761123f610fee565b5b61124c868287016111b9565b9150509250925092565b61125f81611013565b82525050565b600060208201905061127a6000830184611256565b92915050565b60006020828403121561129657611295610fe9565b5b60006112a48482850161103c565b91505092915050565b600061ffff82169050919050565b6112c4816112ad565b82525050565b60006020820190506112df60008301846112bb565b92915050565b6000819050919050565b6112f8816112e5565b82525050565b600067ffffffffffffffff82169050919050565b61131b816112fe565b82525050565b600060408201905061133660008301856112ef565b6113436020830184611312565b9392505050565b600082825260208201905092915050565b7f496e73756666696369656e742066756e64730000000000000000000000000000600082015250565b600061139160128361134a565b915061139c8261135b565b602082019050919050565b600060208201905081810360008301526113c081611384565b9050919050565b7f4e487b7100000000000000000000000000000000000000000000000000000000600052601160045260246000fd5b6000611401826112ad565b915061ffff8203611415576114146113c7565b5b600182019050919050565b61142981611051565b82525050565b60006020820190506114446000830184611420565b92915050565b7f46756e647320617265207374696c6c206c6f636b656400000000000000000000600082015250565b600061148060168361134a565b915061148b8261144a565b602082019050919050565b600060208201905081810360008301526114af81611473565b9050919050565b7f41756374696f6e206d617374657220616c726561647920736574000000000000600082015250565b60006114ec601a8361134a565b91506114f7826114b6565b602082019050919050565b6000602082019050818103600083015261151b816114df565b9050919050565b7f556e617574686f72697a65640000000000000000000000000000000000000000600082015250565b6000611558600c8361134a565b915061156382611522565b602082019050919050565b600060208201905081810360008301526115878161154b565b9050919050565b7f4e6f2066756e6473206c6f636b65640000000000000000000000000000000000600082015250565b60006115c4600f8361134a565b91506115cf8261158e565b602082019050919050565b600060208201905081810360008301526115f3816115b7565b9050919050565b6000611605826112fe565b9150611610836112fe565b92508267ffffffffffffffff0382111561162d5761162c6113c7565b5b828201905092915050565b600060208201905061164d6000830184611312565b92915050565b7f56616c7565206d7573742062652067726561746572207468616e203000000000600082015250565b6000611689601c8361134a565b915061169482611653565b602082019050919050565b600060208201905081810360008301526116b88161167c565b9050919050565b60006040820190506116d46000830185611420565b6116e16020830184611312565b9392505050565b6116f181611013565b82525050565b611700816112ad565b82525050565b61170f816112e5565b82525050565b60a08201600082015161172b60008501826116e8565b50602082015161173e60208501826116e8565b50604082015161175160408501826116f7565b50606082015161176460608501826116e8565b5060808201516117776080850182611706565b50505050565b600060a0820190506117926000830184611715565b92915050565b7f496e76616c6964207369676e6174757265000000000000000000000000000000600082015250565b60006117ce60118361134a565b91506117d982611798565b602082019050919050565b600060208201905081810360008301526117fd816117c1565b9050919050565b600081905092915050565b50565b600061181f600083611804565b915061182a8261180f565b600082019050919050565b600061184082611812565b9150819050919050565b7f5472616e73666572206661696c65640000000000000000000000000000000000600082015250565b6000611880600f8361134a565b915061188b8261184a565b602082019050919050565b600060208201905081810360008301526118af81611873565b9050919050565b6000819050919050565b6118c9816118b6565b82525050565b600060ff82169050919050565b6118e5816118cf565b82525050565b600060808201905061190060008301876118c0565b61190d60208301866118dc565b61191a60408301856118c0565b61192760608301846118c0565b95945050505050565b7f696e76616c6964207369676e6174757265206c656e6774680000000000000000600082015250565b600061196660188361134a565b915061197182611930565b602082019050919050565b6000602082019050818103600083015261199581611959565b9050919050565b60006119a7826118cf565b91506119b2836118cf565b92508260ff038211156119c8576119c76113c7565b5b82820190509291505056fea2646970667358221220ac7a95489ef89343f5a32ac0e4c02fda56c43756c3d3a549a7f23789844e5e6664736f6c634300080d0033",
  "devdoc": {
    "kind": "dev",
    "methods": {},
    "version": 1
  },
  "userdoc": {
    "kind": "user",
    "methods": {},
    "version": 1
  },
  "storageLayout": {
    "storage": [
      {
        "astId": 45,
        "contract": "contracts/SettlementVault.sol:SettlementVault",
        "label": "_balances",
        "offset": 0,
        "slot": "0",
        "type": "t_mapping(t_address,t_struct(AccountBalance)37_storage)"
      },
      {
        "astId": 51,
        "contract": "contracts/SettlementVault.sol:SettlementVault",
        "label": "auctionMaster",
        "offset": 0,
        "slot": "1",
        "type": "t_address"
      },
      {
        "astId": 55,
        "contract": "contracts/SettlementVault.sol:SettlementVault",
        "label": "accountToPaymentNonce",
        "offset": 0,
        "slot": "2",
        "type": "t_mapping(t_address,t_uint16)"
      }
    ],
    "types": {
      "t_address": {
        "encoding": "inplace",
        "label": "address",
        "numberOfBytes": "20"
      },
      "t_mapping(t_address,t_struct(AccountBalance)37_storage)": {
        "encoding": "mapping",
        "key": "t_address",
        "label": "mapping(address => struct SettlementVault.AccountBalance)",
        "numberOfBytes": "32",
        "value": "t_struct(AccountBalance)37_storage"
      },
      "t_mapping(t_address,t_uint16)": {
        "encoding": "mapping",
        "key": "t_address",
        "label": "mapping(address => uint16)",
        "numberOfBytes": "32",
        "value": "t_uint16"
      },
      "t_struct(AccountBalance)37_storage": {
        "encoding": "inplace",
        "label": "struct SettlementVault.AccountBalance",
        "members": [
          {
            "astId": 34,
            "contract": "contracts/SettlementVault.sol:SettlementVault",
            "label": "unlockTimestamp",
            "offset": 0,
            "slot": "0",
            "type": "t_uint64"
          },
          {
            "astId": 36,
            "contract": "contracts/SettlementVault.sol:SettlementVault",
            "label": "balance",
            "offset": 8,
            "slot": "0",
            "type": "t_uint192"
          }
        ],
        "numberOfBytes": "32"
      },
      "t_uint16": {
        "encoding": "inplace",
        "label": "uint16",
        "numberOfBytes": "2"
      },
      "t_uint192": {
        "encoding": "inplace",
        "label": "uint192",
        "numberOfBytes": "24"
      },
      "t_uint64": {
        "encoding": "inplace",
        "label": "uint64",
        "numberOfBytes": "8"
      }
    }
  }
}